{
  "contractName": "ConvertLib",
  "abi": [
    {
      "constant": true,
      "inputs": [
        {
          "name": "amount",
          "type": "uint256"
        },
        {
          "name": "conversionRate",
          "type": "uint256"
        }
      ],
      "name": "convert",
      "outputs": [
        {
          "name": "convertedAmount",
          "type": "uint256"
        }
      ],
      "payable": false,
      "stateMutability": "pure",
      "type": "function"
    }
  ],
  "bytecode": "0x60a861002f600b82828239805160001a6073146000811461001f57610021565bfe5b5030600052607381538281f300730000000000000000000000000000000000000000301460806040526004361060555763ffffffff7c010000000000000000000000000000000000000000000000000000000060003504166396e4ee3d8114605a575b600080fd5b60666004356024356078565b60408051918252519081900360200190f35b02905600a165627a7a7230582003b243ab34512a42b6facb921a821152b6c315b4b6445f351aa5788211abc66a0029",
  "source": "pragma solidity ^0.4.18;\n\nlibrary ConvertLib {\n\tfunction convert(uint amount,uint conversionRate) public pure returns (uint convertedAmount) {\n\t\treturn amount * conversionRate;\n\t}\n}",
  "sourcePath": "/home/ubuntu/dev/Kryptopal/kryptopal-contracts/contracts/utils/ConvertLib.sol",
  "compiler": {
    "name": "solc",
    "version": "0.4.24+commit.e67f0147.Emscripten.clang"
  },
  "schemaVersion": "2.0.1",
  "updatedAt": "2018-07-19T04:57:34.957Z"
}