{
  "contractName": "DEPREACATEDBasic777",
  "abi": [
    {
      "constant": true,
      "inputs": [],
      "name": "owner",
      "outputs": [
        {
          "name": "",
          "type": "address"
        }
      ],
      "payable": false,
      "stateMutability": "view",
      "type": "function"
    },
    {
      "constant": false,
      "inputs": [
        {
          "name": "newOwner",
          "type": "address"
        }
      ],
      "name": "transferOwnership",
      "outputs": [],
      "payable": false,
      "stateMutability": "nonpayable",
      "type": "function"
    },
    {
      "inputs": [],
      "payable": false,
      "stateMutability": "nonpayable",
      "type": "constructor"
    },
    {
      "anonymous": false,
      "inputs": [
        {
          "indexed": true,
          "name": "from",
          "type": "address"
        },
        {
          "indexed": true,
          "name": "to",
          "type": "address"
        },
        {
          "indexed": false,
          "name": "amount",
          "type": "uint256"
        },
        {
          "indexed": false,
          "name": "userData",
          "type": "bytes"
        },
        {
          "indexed": true,
          "name": "operator",
          "type": "address"
        },
        {
          "indexed": false,
          "name": "operatorData",
          "type": "bytes"
        }
      ],
      "name": "Sent",
      "type": "event"
    },
    {
      "anonymous": false,
      "inputs": [
        {
          "indexed": true,
          "name": "to",
          "type": "address"
        },
        {
          "indexed": false,
          "name": "amount",
          "type": "uint256"
        },
        {
          "indexed": true,
          "name": "operator",
          "type": "address"
        },
        {
          "indexed": false,
          "name": "operatorData",
          "type": "bytes"
        }
      ],
      "name": "Minted",
      "type": "event"
    },
    {
      "anonymous": false,
      "inputs": [
        {
          "indexed": true,
          "name": "from",
          "type": "address"
        },
        {
          "indexed": false,
          "name": "amount",
          "type": "uint256"
        }
      ],
      "name": "Burnt",
      "type": "event"
    },
    {
      "anonymous": false,
      "inputs": [
        {
          "indexed": true,
          "name": "operator",
          "type": "address"
        },
        {
          "indexed": true,
          "name": "tokenHolder",
          "type": "address"
        }
      ],
      "name": "AuthorizedOperator",
      "type": "event"
    },
    {
      "anonymous": false,
      "inputs": [
        {
          "indexed": true,
          "name": "operator",
          "type": "address"
        },
        {
          "indexed": true,
          "name": "tokenHolder",
          "type": "address"
        }
      ],
      "name": "RevokedOperator",
      "type": "event"
    },
    {
      "anonymous": false,
      "inputs": [
        {
          "indexed": true,
          "name": "from",
          "type": "address"
        },
        {
          "indexed": true,
          "name": "to",
          "type": "address"
        },
        {
          "indexed": false,
          "name": "value",
          "type": "uint256"
        }
      ],
      "name": "Transfer",
      "type": "event"
    },
    {
      "anonymous": false,
      "inputs": [
        {
          "indexed": true,
          "name": "owner",
          "type": "address"
        },
        {
          "indexed": true,
          "name": "spender",
          "type": "address"
        },
        {
          "indexed": false,
          "name": "value",
          "type": "uint256"
        }
      ],
      "name": "Approval",
      "type": "event"
    },
    {
      "anonymous": false,
      "inputs": [
        {
          "indexed": false,
          "name": "previousOwner",
          "type": "address"
        },
        {
          "indexed": false,
          "name": "newOwner",
          "type": "address"
        }
      ],
      "name": "OwnershipTransferred",
      "type": "event"
    },
    {
      "anonymous": false,
      "inputs": [
        {
          "indexed": false,
          "name": "newOwner",
          "type": "address"
        }
      ],
      "name": "OwnerSet",
      "type": "event"
    },
    {
      "constant": false,
      "inputs": [
        {
          "name": "_name",
          "type": "string"
        },
        {
          "name": "_symbol",
          "type": "string"
        },
        {
          "name": "_granularity",
          "type": "uint256"
        },
        {
          "name": "_totalSupply",
          "type": "uint256"
        },
        {
          "name": "_eip820RegistryAddr",
          "type": "address"
        },
        {
          "name": "_owner",
          "type": "address"
        }
      ],
      "name": "initialize",
      "outputs": [],
      "payable": false,
      "stateMutability": "nonpayable",
      "type": "function"
    },
    {
      "constant": true,
      "inputs": [],
      "name": "initialized",
      "outputs": [
        {
          "name": "",
          "type": "bool"
        }
      ],
      "payable": false,
      "stateMutability": "view",
      "type": "function"
    },
    {
      "constant": true,
      "inputs": [],
      "name": "name",
      "outputs": [
        {
          "name": "",
          "type": "string"
        }
      ],
      "payable": false,
      "stateMutability": "view",
      "type": "function"
    },
    {
      "constant": true,
      "inputs": [],
      "name": "symbol",
      "outputs": [
        {
          "name": "",
          "type": "string"
        }
      ],
      "payable": false,
      "stateMutability": "view",
      "type": "function"
    },
    {
      "constant": true,
      "inputs": [],
      "name": "granularity",
      "outputs": [
        {
          "name": "",
          "type": "uint256"
        }
      ],
      "payable": false,
      "stateMutability": "view",
      "type": "function"
    },
    {
      "constant": true,
      "inputs": [],
      "name": "totalSupply",
      "outputs": [
        {
          "name": "",
          "type": "uint256"
        }
      ],
      "payable": false,
      "stateMutability": "view",
      "type": "function"
    },
    {
      "constant": true,
      "inputs": [],
      "name": "decimals",
      "outputs": [
        {
          "name": "",
          "type": "uint8"
        }
      ],
      "payable": false,
      "stateMutability": "view",
      "type": "function"
    },
    {
      "constant": true,
      "inputs": [
        {
          "name": "_tokenHolder",
          "type": "address"
        }
      ],
      "name": "balanceOf",
      "outputs": [
        {
          "name": "",
          "type": "uint256"
        }
      ],
      "payable": false,
      "stateMutability": "view",
      "type": "function"
    },
    {
      "constant": false,
      "inputs": [],
      "name": "disableERC20",
      "outputs": [],
      "payable": false,
      "stateMutability": "nonpayable",
      "type": "function"
    },
    {
      "constant": false,
      "inputs": [],
      "name": "enableERC20",
      "outputs": [],
      "payable": false,
      "stateMutability": "nonpayable",
      "type": "function"
    },
    {
      "constant": false,
      "inputs": [
        {
          "name": "_to",
          "type": "address"
        },
        {
          "name": "_value",
          "type": "uint256"
        }
      ],
      "name": "transfer",
      "outputs": [
        {
          "name": "success",
          "type": "bool"
        }
      ],
      "payable": false,
      "stateMutability": "nonpayable",
      "type": "function"
    },
    {
      "constant": false,
      "inputs": [
        {
          "name": "_from",
          "type": "address"
        },
        {
          "name": "_to",
          "type": "address"
        },
        {
          "name": "_value",
          "type": "uint256"
        }
      ],
      "name": "transferFrom",
      "outputs": [
        {
          "name": "success",
          "type": "bool"
        }
      ],
      "payable": false,
      "stateMutability": "nonpayable",
      "type": "function"
    },
    {
      "constant": false,
      "inputs": [
        {
          "name": "_spender",
          "type": "address"
        },
        {
          "name": "_value",
          "type": "uint256"
        }
      ],
      "name": "approve",
      "outputs": [
        {
          "name": "success",
          "type": "bool"
        }
      ],
      "payable": false,
      "stateMutability": "nonpayable",
      "type": "function"
    },
    {
      "constant": true,
      "inputs": [
        {
          "name": "_owner",
          "type": "address"
        },
        {
          "name": "_spender",
          "type": "address"
        }
      ],
      "name": "allowance",
      "outputs": [
        {
          "name": "remaining",
          "type": "uint256"
        }
      ],
      "payable": false,
      "stateMutability": "view",
      "type": "function"
    },
    {
      "constant": false,
      "inputs": [
        {
          "name": "_to",
          "type": "address"
        },
        {
          "name": "_value",
          "type": "uint256"
        },
        {
          "name": "_userData",
          "type": "bytes"
        }
      ],
      "name": "send",
      "outputs": [],
      "payable": false,
      "stateMutability": "nonpayable",
      "type": "function"
    },
    {
      "constant": false,
      "inputs": [
        {
          "name": "_to",
          "type": "address"
        },
        {
          "name": "_value",
          "type": "uint256"
        }
      ],
      "name": "send",
      "outputs": [],
      "payable": false,
      "stateMutability": "nonpayable",
      "type": "function"
    },
    {
      "constant": false,
      "inputs": [
        {
          "name": "_operator",
          "type": "address"
        },
        {
          "name": "_value",
          "type": "uint256"
        }
      ],
      "name": "authorizeOperator",
      "outputs": [],
      "payable": false,
      "stateMutability": "nonpayable",
      "type": "function"
    },
    {
      "constant": false,
      "inputs": [
        {
          "name": "_operator",
          "type": "address"
        }
      ],
      "name": "authorizeOperator",
      "outputs": [],
      "payable": false,
      "stateMutability": "nonpayable",
      "type": "function"
    },
    {
      "constant": false,
      "inputs": [
        {
          "name": "_operator",
          "type": "address"
        }
      ],
      "name": "revokeOperator",
      "outputs": [],
      "payable": false,
      "stateMutability": "nonpayable",
      "type": "function"
    },
    {
      "constant": true,
      "inputs": [
        {
          "name": "_operator",
          "type": "address"
        },
        {
          "name": "_tokenHolder",
          "type": "address"
        }
      ],
      "name": "isOperatorFor",
      "outputs": [
        {
          "name": "",
          "type": "bool"
        }
      ],
      "payable": false,
      "stateMutability": "view",
      "type": "function"
    },
    {
      "constant": false,
      "inputs": [
        {
          "name": "_operator",
          "type": "address"
        },
        {
          "name": "_from",
          "type": "address"
        },
        {
          "name": "_to",
          "type": "address"
        },
        {
          "name": "_value",
          "type": "uint256"
        },
        {
          "name": "_userData",
          "type": "bytes"
        },
        {
          "name": "_operatorData",
          "type": "bytes"
        }
      ],
      "name": "operatorSend",
      "outputs": [],
      "payable": false,
      "stateMutability": "nonpayable",
      "type": "function"
    },
    {
      "constant": false,
      "inputs": [
        {
          "name": "_from",
          "type": "address"
        },
        {
          "name": "_to",
          "type": "address"
        },
        {
          "name": "_value",
          "type": "uint256"
        },
        {
          "name": "_userData",
          "type": "bytes"
        },
        {
          "name": "_operatorData",
          "type": "bytes"
        }
      ],
      "name": "operatorSend",
      "outputs": [],
      "payable": false,
      "stateMutability": "nonpayable",
      "type": "function"
    },
    {
      "constant": false,
      "inputs": [
        {
          "name": "_tokenHolder",
          "type": "address"
        },
        {
          "name": "_value",
          "type": "uint256"
        }
      ],
      "name": "burn",
      "outputs": [],
      "payable": false,
      "stateMutability": "nonpayable",
      "type": "function"
    },
    {
      "constant": false,
      "inputs": [
        {
          "name": "_tokenHolder",
          "type": "address"
        },
        {
          "name": "_value",
          "type": "uint256"
        },
        {
          "name": "_operatorData",
          "type": "bytes"
        }
      ],
      "name": "mint",
      "outputs": [],
      "payable": false,
      "stateMutability": "nonpayable",
      "type": "function"
    }
  ],
  "bytecode": "0x608060405234801561001057600080fd5b5061002333640100000000610028810204565b61007c565b60008054600160a060020a038316600160a060020a0319909116811790915560408051918252517f50146d0e3c60aa1d17a70635b05494f864e86144a2201275021014fbf08bafe29181900360200190a150565b611dd58061008b6000396000f30060806040526004361061013a5763ffffffff60e060020a60003504166306fdde03811461013f578063070c87f9146101c9578063095ea7b3146101e0578063158ef93e1461021857806318160ddd1461022d57806323b872dd14610254578063313ce5671461027e57806347980aa3146102a9578063556f0dc7146102cd57806362ad1b83146102e257806370a082311461038f578063767ab122146103b05780638da5cb5b1461046657806394d008ef14610497578063959b8c3f1461050057806395d89b41146105215780639bd9bbc6146105365780639dc29fac1461059f578063a9059cbb146105c3578063d0679d34146105e7578063d95b63711461060b578063dd62ed3e14610632578063ee91444c14610659578063f2fde38b14610712578063f922f21614610733578063fad8b32a14610748575b600080fd5b34801561014b57600080fd5b50610154610769565b6040805160208082528351818301528351919283929083019185019080838360005b8381101561018e578181015183820152602001610176565b50505050905090810190601f1680156101bb5780820380516001836020036101000a031916815260200191505b509250505060405180910390f35b3480156101d557600080fd5b506101de6107fd565b005b3480156101ec57600080fd5b50610204600160a060020a0360043516602435610867565b604080519115158252519081900360200190f35b34801561022457600080fd5b506102046108e7565b34801561023957600080fd5b506102426108f0565b60408051918252519081900360200190f35b34801561026057600080fd5b50610204600160a060020a03600435811690602435166044356108f6565b34801561028a57600080fd5b506102936109cc565b6040805160ff9092168252519081900360200190f35b3480156102b557600080fd5b506101de600160a060020a03600435166024356109eb565b3480156102d957600080fd5b50610242610ad6565b3480156102ee57600080fd5b50604080516020601f6064356004818101359283018490048402850184019095528184526101de94600160a060020a03813581169560248035909216956044359536956084940191819084018382808284375050604080516020601f89358b018035918201839004830284018301909452808352979a999881019791965091820194509250829150840183828082843750949750610adc9650505050505050565b34801561039b57600080fd5b50610242600160a060020a0360043516610af1565b3480156103bc57600080fd5b506040805160206004803580820135601f81018490048402850184019095528484526101de94369492936024939284019190819084018382808284375050604080516020601f89358b018035918201839004830284018301909452808352979a99988101979196509182019450925082915084018382808284375094975050843595505050602083013592600160a060020a03604082013581169350606090910135169050610b0c565b34801561047257600080fd5b5061047b610c10565b60408051600160a060020a039092168252519081900360200190f35b3480156104a357600080fd5b50604080516020600460443581810135601f81018490048402850184019095528484526101de948235600160a060020a0316946024803595369594606494920191908190840183828082843750949750610c1f9650505050505050565b34801561050c57600080fd5b506101de600160a060020a0360043516610dbd565b34801561052d57600080fd5b50610154610e2c565b34801561054257600080fd5b50604080516020600460443581810135601f81018490048402850184019095528484526101de948235600160a060020a0316946024803595369594606494920191908190840183828082843750949750610e8d9650505050505050565b3480156105ab57600080fd5b506101de600160a060020a0360043516602435610ead565b3480156105cf57600080fd5b50610204600160a060020a0360043516602435610fd4565b3480156105f357600080fd5b506101de600160a060020a0360043516602435611026565b34801561061757600080fd5b50610204600160a060020a0360043581169060243516611056565b34801561063e57600080fd5b50610242600160a060020a03600435811690602435166110a4565b34801561066557600080fd5b50604080516020601f6084356004818101359283018490048402850184019095528184526101de94600160a060020a03813581169560248035831696604435909316956064359536959460a49493919091019190819084018382808284375050604080516020601f89358b018035918201839004830284018301909452808352979a9998810197919650918201945092508291508401838280828437509497506110e99650505050505050565b34801561071e57600080fd5b506101de600160a060020a0360043516611116565b34801561073f57600080fd5b506101de61119e565b34801561075457600080fd5b506101de600160a060020a0360043516611203565b60028054604080516020601f60001961010060018716150201909416859004938401819004810282018101909252828152606093909290918301828280156107f25780601f106107c7576101008083540402835291602001916107f2565b820191906000526020600020905b8154815290600101906020018083116107d557829003601f168201915b505050505090505b90565b610805610c10565b600160a060020a0316331461081957600080fd5b6006805461ff001916610100178155604080518082019091529081527f496572633230000000000000000000000000000000000000000000000000000060208201526108659030611282565b565b600654600090610100900460ff16151561088057600080fd5b336000818152600960209081526040808320600160a060020a03881680855290835292819020869055805186815290519293927f8c5be1e5ebec7d5bd14f71427d1e84f3dd0314c0f7b2291e5b200ac8c7c3b925929181900390910190a350600192915050565b60065460ff1690565b60055490565b600654600090610100900460ff16151561090f57600080fd5b600160a060020a038416600090815260096020908152604080832033845290915290205482111561093f57600080fd5b600160a060020a0384166000908152600960209081526040808320338452909152902054610973908363ffffffff61137116565b600160a060020a038516600090815260096020908152604080832033808552908352818420949094558051808301825283815281519283019091528282526109c2938893889388939291611383565b5060019392505050565b600654600090610100900460ff1615156109e557600080fd5b50601290565b600160a060020a038216331415610a0157600080fd5b336000818152600960209081526040808320600160a060020a0387168452825280832085905560088252808320848452825291829020805460ff191660019081179091558251808401845260038082527f3078300000000000000000000000000000000000000000000000000000000000828501819052855180870190965290855292840192909252610a9c938693909284928792906115e4565b6040513390600160a060020a038416907ff4caeb2d6ca8932a215a353d0703c326ec2d81fc68170f320eb2ab49e9df61f990600090a35050565b60045490565b610aea3386868686866110e9565b5050505050565b600160a060020a031660009081526007602052604090205490565b60065460ff1615610b1c57600080fd5b8551610b2f906002906020890190611d11565b508451610b43906003906020880190611d11565b5060058390556006805461ff0019166101001790556001841015610b6657600080fd5b6004849055610b74816117df565b610b7d82611840565b610bbc6040805190810160405280600781526020017f494549503737370000000000000000000000000000000000000000000000000081525030611282565b610bfb6040805190810160405280600681526020017f496572633230000000000000000000000000000000000000000000000000000081525030611282565b50506006805460ff1916600117905550505050565b600054600160a060020a031690565b610c288261186f565b600554610c3b908363ffffffff6118ac16565b600555600160a060020a038316600090815260076020526040902054610c67908363ffffffff6118ac16565b6007600085600160a060020a0316600160a060020a0316815260200190815260200160002081905550610cb1336000858560206040519081016040528060008152508660016118c6565b33600160a060020a031683600160a060020a03167ffedc9d3d7d2dc09d33f2454ca41b1ef178b3bbf37b69fa47d602a8738d5ebdba84846040518083815260200180602001828103825283818151815260200191508051906020019080838360005b83811015610d2b578181015183820152602001610d13565b50505050905090810190601f168015610d585780820380516001836020036101000a031916815260200191505b50935050505060405180910390a3600654610100900460ff1615610db857604080518381529051600160a060020a038516916000917fddf252ad1be2c89b69c2b068fc378daa952ba7f163c4a11628f55a4df523b3ef9181900360200190a35b505050565b600160a060020a038116331415610dd357600080fd5b600160a060020a0381166000818152600860209081526040808320338085529252808320805460ff19166001179055519092917ff4caeb2d6ca8932a215a353d0703c326ec2d81fc68170f320eb2ab49e9df61f991a350565b60038054604080516020601f60026000196101006001881615020190951694909404938401819004810282018101909252828152606093909290918301828280156107f25780601f106107c7576101008083540402835291602001916107f2565b610db8338484843360206040519081016040528060008152506001611383565b610eb5610c10565b600160a060020a03163314610ec957600080fd5b610ed28161186f565b80610edc83610af1565b1015610ee757600080fd5b600160a060020a038216600090815260076020526040902054610f10908263ffffffff61137116565b600160a060020a038316600090815260076020526040902055600554610f3c908263ffffffff61137116565b600555604080518281529051600160a060020a038416917f919f7e2092ffcc9d09f599be18d8152860b0c054df788a33bc549cdd9d0f15b1919081900360200190a2600654610100900460ff1615610fd057604080518281529051600091600160a060020a038516917fddf252ad1be2c89b69c2b068fc378daa952ba7f163c4a11628f55a4df523b3ef9181900360200190a35b5050565b600654600090610100900460ff161515610fed57600080fd5b61101d33848460206040519081016040528060008152503360206040519081016040528060008152506000611383565b50600192915050565b610fd033838360206040519081016040528060008152503360206040519081016040528060008152506001611383565b600081600160a060020a031683600160a060020a0316148061109d5750600160a060020a0380841660009081526008602090815260408083209386168352929052205460ff165b9392505050565b600654600090610100900460ff1615156110bd57600080fd5b50600160a060020a03918216600090815260096020908152604080832093909416825291909152205490565b6110f38686611056565b15156110fe57600080fd5b61110e8585858533866000611383565b505050505050565b61111e610c10565b600160a060020a0316331461113257600080fd5b600160a060020a038116151561114757600080fd5b7f8be0079c531659141344cd1fd0a4f28419497f9722a3daafe3b4186f6b6457e0611170610c10565b60408051600160a060020a03928316815291841660208301528051918290030190a161119b816117df565b50565b6111a6610c10565b600160a060020a031633146111ba57600080fd5b6006805461ff0019168155604080518082019091529081527f49657263323000000000000000000000000000000000000000000000000000006020820152610865906000611282565b600160a060020a03811633141561121957600080fd5b336000818152600960209081526040808320600160a060020a03861680855290835281842084905560088352818420858552909252808320805460ff191690555190917f50546e66e5f44d728365dc3908c63bc5cfeeab470722c1677e3073a6ac294aa191a350565b6000826040518082805190602001908083835b602083106112b45780518252601f199092019160209182019101611295565b5181516020939093036101000a6000190180199091169216919091179052604080519190930181900381206001547f29965a1d00000000000000000000000000000000000000000000000000000000835230600484015260248301829052600160a060020a03898116604485015294519197509390931694506329965a1d9350606480820193600093509182900301818387803b15801561135457600080fd5b505af1158015611368573d6000803e3d6000fd5b50505050505050565b60008282111561137d57fe5b50900390565b61138c8561186f565b61139a8388888888876119cc565b600160a060020a03861615156113af57600080fd5b600160a060020a0387166000908152600760205260409020548511156113d457600080fd5b600160a060020a0387166000908152600760205260409020546113fd908663ffffffff61137116565b600160a060020a038089166000908152600760205260408082209390935590881681522054611432908663ffffffff6118ac16565b600160a060020a03871660009081526007602052604090205561145a838888888887876118c6565b82600160a060020a031686600160a060020a031688600160a060020a03167fc6bcce9531825c4f1772efa373d6fa8ccb63064ff1fd841aa151c8e8dd9bb39b888887604051808481526020018060200180602001838103835285818151815260200191508051906020019080838360005b838110156114e35781810151838201526020016114cb565b50505050905090810190601f1680156115105780820380516001836020036101000a031916815260200191505b50838103825284518152845160209182019186019080838360005b8381101561154357818101518382015260200161152b565b50505050905090810190601f1680156115705780820380516001836020036101000a031916815260200191505b509550505050505060405180910390a4600654610100900460ff16156113685785600160a060020a031687600160a060020a03167fddf252ad1be2c89b69c2b068fc378daa952ba7f163c4a11628f55a4df523b3ef876040518082815260200191505060405180910390a350505050505050565b6000611625866040805190810160405280601581526020017f49454950373737546f6b656e734f70657261746f720000000000000000000000815250611ba7565b9050600160a060020a038116156117bb5780600160a060020a03166332035ca68989898989896040518763ffffffff1660e060020a0281526004018087600160a060020a0316600160a060020a0316815260200186600160a060020a0316600160a060020a0316815260200185600160a060020a0316600160a060020a031681526020018481526020018060200180602001838103835285818151815260200191508051906020019080838360005b838110156116ec5781810151838201526020016116d4565b50505050905090810190601f1680156117195780820380516001836020036101000a031916815260200191505b50838103825284518152845160209182019186019080838360005b8381101561174c578181015183820152602001611734565b50505050905090810190601f1680156117795780820380516001836020036101000a031916815260200191505b5098505050505050505050600060405180830381600087803b15801561179e57600080fd5b505af11580156117b2573d6000803e3d6000fd5b505050506117d5565b81156117d5576117ca86611ca5565b15156117d557600080fd5b5050505050505050565b60008054600160a060020a03831673ffffffffffffffffffffffffffffffffffffffff19909116811790915560408051918252517f50146d0e3c60aa1d17a70635b05494f864e86144a2201275021014fbf08bafe29181900360200190a150565b6001805473ffffffffffffffffffffffffffffffffffffffff1916600160a060020a0392909216919091179055565b6000811180156118a15750600454819061189f90611893838263ffffffff611ccf16565b9063ffffffff611ce616565b145b151561119b57600080fd5b6000828201838110156118bb57fe5b8091505b5092915050565b6000611907866040805190810160405280601681526020017f49454950373737546f6b656e73526563697069656e7400000000000000000000815250611ba7565b9050600160a060020a038116156117bb5780600160a060020a03166223de298989898989896040518763ffffffff1660e060020a0281526004018087600160a060020a0316600160a060020a0316815260200186600160a060020a0316600160a060020a0316815260200185600160a060020a0316600160a060020a03168152602001848152602001806020018060200183810383528581815181526020019150805190602001908083836000838110156116ec5781810151838201526020016116d4565b6000611a0d866040805190810160405280601381526020017f49454950373737546f6b656e7353656e64657200000000000000000000000000815250611ba7565b9050600160a060020a038116156113685780600160a060020a03166375ab97828888888888886040518763ffffffff1660e060020a0281526004018087600160a060020a0316600160a060020a0316815260200186600160a060020a0316600160a060020a0316815260200185600160a060020a0316600160a060020a031681526020018481526020018060200180602001838103835285818151815260200191508051906020019080838360005b83811015611ad4578181015183820152602001611abc565b50505050905090810190601f168015611b015780820380516001836020036101000a031916815260200191505b50838103825284518152845160209182019186019080838360005b83811015611b34578181015183820152602001611b1c565b50505050905090810190601f168015611b615780820380516001836020036101000a031916815260200191505b5098505050505050505050600060405180830381600087803b158015611b8657600080fd5b505af1158015611b9a573d6000803e3d6000fd5b5050505050505050505050565b600080826040518082805190602001908083835b60208310611bda5780518252601f199092019160209182019101611bbb565b51815160209384036101000a6000190180199092169116179052604080519290940182900382206001547faabbb8ca000000000000000000000000000000000000000000000000000000008452600160a060020a038c8116600486015260248501839052955191985094909416955063aabbb8ca945060448083019491935090918290030181600087803b158015611c7157600080fd5b505af1158015611c85573d6000803e3d6000fd5b505050506040513d6020811015611c9b57600080fd5b5051949350505050565b600080600160a060020a0383161515611cc15760009150611cc9565b5050803b8015905b50919050565b6000808284811515611cdd57fe5b04949350505050565b600080831515611cf957600091506118bf565b50828202828482811515611d0957fe5b04146118bb57fe5b828054600181600116156101000203166002900490600052602060002090601f016020900481019282601f10611d5257805160ff1916838001178555611d7f565b82800160010185558215611d7f579182015b82811115611d7f578251825591602001919060010190611d64565b50611d8b929150611d8f565b5090565b6107fa91905b80821115611d8b5760008155600101611d955600a165627a7a7230582058e38e41ef9ac9d301455f1f42c2b46dfc4fadab1eb6be1f64cedec75456c1d80029",
  "source": "pragma solidity ^0.4.23; // solhint-disable-line compiler-fixed\n\nimport \"./IEIP777.sol\";\nimport \"./IEIP777TokensRecipient.sol\";\nimport \"./IEIP777TokensSender.sol\";\nimport \"./IEIP777TokensOperator.sol\";\nimport \"../EIP20/Ierc20.sol\";\nimport \"../EIP820/EIP820Implementer.sol\";\nimport \"../../node_modules/zeppelin-solidity/contracts/math/SafeMath.sol\";\nimport \"../ownership/UnstructuredOwnable.sol\";\n\n//todo jaycen this is deprecated by TokenBase.sol , remove after upgrade prs are done\ncontract DEPREACATEDBasic777 is UnstructuredOwnable, Ierc20, IEIP777, EIP820Implementer {\n\n    using SafeMath for uint256;\n\n    string private mName;\n    string private mSymbol;\n    uint256 private mGranularity;\n    uint256 private mTotalSupply;\n    bool internal _initialized;\n\n    bool private mErc20compatible;\n\n    mapping(address => uint) private mBalances;\n    mapping(address => mapping(address => bool)) private mAuthorized;\n    mapping(address => mapping(address => uint256)) private mAllowed;\n\n    ///  @notice This modifier is applied to erc20 obsolete methods that are\n    ///  implemented only to maintain backwards compatibility. When the erc20\n    ///  compatibility is disabled, this methods will fail.\n    modifier erc20 () {\n        require(mErc20compatible);\n        _;\n    }\n    constructor () public { }\n\n    function initialize (\n        string _name,\n        string _symbol,\n        uint256 _granularity,\n        uint256 _totalSupply,\n        address _eip820RegistryAddr,\n        address _owner\n    )  public\n    {\n        require(!_initialized);\n        mName = _name;\n        mSymbol = _symbol;\n        mTotalSupply = _totalSupply;\n        mErc20compatible = true;\n        require(_granularity >= 1);\n        //todo jaycen I think if we set granularity equal to the zeros in Wei, then we can avoid all the issues we are experiencing requiring casting token amounts the same way as ether\n        mGranularity = _granularity;\n        setOwner(_owner);\n        setIntrospectionRegistry(_eip820RegistryAddr);\n        setInterfaceImplementation(\"IEIP777\", this);\n        setInterfaceImplementation(\"Ierc20\", this);\n        _initialized = true;\n    }\n    function initialized() public  view returns(bool) {\n        return _initialized;\n    }\n    /// @return the name of the token\n    function name() public view returns (string) { return mName; }\n\n    /// @return the symbol of the token\n    function symbol() public view returns(string) { return mSymbol; }\n\n    /// @return the granularity of the token\n    function granularity() public view returns(uint256) { return mGranularity; }\n\n    /// @return the total supply of the token\n    function totalSupply() public view returns(uint256) { return mTotalSupply; }\n\n    /// @notice For Backwards compatibility\n    /// @return The decimls of the token. Forced to 18 in ERC777.\n    function decimals() public erc20 view returns (uint8) { return uint8(18); }\n\n    /// @notice Return the account balance of some account\n    /// @param _tokenHolder Address for which the balance is returned\n    /// @return the balance of `_tokenAddress`.\n    function balanceOf(address _tokenHolder) public view returns (uint256) {\n        return mBalances[_tokenHolder];\n    }\n\n    /// @notice Disables the ERC-20 interface. This function can only be called\n    ///  by the owner.\n    function disableERC20() public onlyOwner {\n        mErc20compatible = false;\n        setInterfaceImplementation(\"Ierc20\", 0x0);\n    }\n\n    /// @notice Re enables the ERC-20 interface. This function can only be called\n    ///  by the owner.\n    function enableERC20() public onlyOwner {\n        mErc20compatible = true;\n        setInterfaceImplementation(\"Ierc20\", this);\n    }\n\n    /// @notice ERC20 backwards compatible transfer.\n    /// @param _to The address of the recipient\n    /// @param _value The amount of tokens to be transferred\n    /// @return `true`, if the transfer can't be done, it should fail.\n    function transfer(address _to, uint256 _value) public erc20 returns (bool success) {\n        doSend(msg.sender, _to, _value, \"\", msg.sender, \"\", false);\n        return true;\n    }\n\n    /// @notice ERC20 backwards compatible transferFrom.\n    /// @param _from The address holding the tokens being transferred\n    /// @param _to The address of the recipient\n    /// @param _value The amount of tokens to be transferred\n    /// @return `true`, if the transfer can't be done, it should fail.\n    function transferFrom(address _from, address _to, uint256 _value) public erc20 returns (bool success) {\n        require(_value <= mAllowed[_from][msg.sender]);\n\n        // Cannot be after doSend because of tokensReceived re-entry\n        mAllowed[_from][msg.sender] = mAllowed[_from][msg.sender].sub(_value);\n        doSend(_from, _to, _value, \"\", msg.sender, \"\", false);\n        return true;\n    }\n\n    /// @notice ERC20 backwards compatible approve.\n    ///  `msg.sender` approves `_spender` to spend `_value` tokens on its behalf.\n    /// @param _spender The address of the account able to transfer the tokens\n    /// @param _value The amount of tokens to be approved for transfer\n    /// @return `true`, if the approve can't be done, it should fail.\n    function approve(address _spender, uint256 _value) public erc20 returns (bool success) {\n        mAllowed[msg.sender][_spender] = _value;\n        emit Approval(msg.sender, _spender, _value);\n        return true;\n    }\n\n    /// @notice ERC20 backwards compatible allowance.\n    ///  This function makes it easy to read the `allowed[]` map\n    /// @param _owner The address of the account that owns the token\n    /// @param _spender The address of the account able to transfer the tokens\n    /// @return Amount of remaining tokens of _owner that _spender is allowed\n    ///  to spend\n    function allowance(address _owner, address _spender) public erc20 constant returns (uint256 remaining) {\n        return mAllowed[_owner][_spender];\n    }\n\n    /// @notice Send `_value` amount of tokens to address `_to`\n    /// @param _to The address of the recipient\n    /// @param _value The amount of tokens to be sent\n    function send(address _to, uint256 _value) public {\n        doSend(msg.sender, _to, _value, \"\", msg.sender, \"\", true);\n    }\n    \n    //todo jaycen are both send funcs needed for some backwards compat reason? check latest 777 draft\n    /// @notice Send `_value` amount of tokens to address `_to` passing `_userData` to the recipient\n    /// @param _to The address of the recipient\n    /// @param _value The amount of tokens to be sent\n    function send(address _to, uint256 _value, bytes _userData) public {\n        doSend(msg.sender, _to, _value, _userData, msg.sender, \"\", true);\n    }\n\n    /// @notice Authorize a third party `_operator` to manage (send) `msg.sender`'s tokens.\n    /// @param _operator The operator that wants to be Authorized\n    //todo jaycen pretty sure overloads dont work so calling the following is impossible\n    function authorizeOperator(address _operator) public {\n        require(_operator != msg.sender);\n        mAuthorized[_operator][msg.sender] = true;\n        emit AuthorizedOperator(_operator, msg.sender);\n    }\n    /// @notice Authorize a third party `_operator` to manage [only some] (send) `msg.sender`'s tokens.\n    /// @param _operator The operator that wants to be Authorized\n    function authorizeOperator(address _operator, uint256 _value) public {\n        require(_operator != msg.sender);\n        //todo jaycen only authorice an allowance\n        mAllowed[msg.sender][_operator] = _value;\n        //todo jaycen is the following needed, It is not in the spec\n        mAuthorized[_operator][msg.sender] = true;\n        callOperator(_operator, msg.sender, _operator, _value, \"0x0\", \"0x0\", true);\n        emit AuthorizedOperator(_operator, msg.sender);\n    }\n\n    /// @notice Revoke a third party `_operator`'s rights to manage (send) `msg.sender`'s tokens.\n    /// @param _operator The operator that wants to be Revoked\n    function revokeOperator(address _operator) public {\n        //todo jaycen IMPORTANT PRELAUNCH implement a revoke operation caller that can cancel market sales\n        require(_operator != msg.sender);\n        //todo do I need to set mAllowed to 0? this is not in the spec due to them decluding allowance\n        mAllowed[msg.sender][_operator] = 0;\n        mAuthorized[_operator][msg.sender] = false;\n        emit RevokedOperator(_operator, msg.sender);\n    }\n\n    /// @notice Check whether the `_operator` address is allowed to manage the tokens held by `_tokenHolder` address.\n    /// @param _operator address to check if it has the right to manage the tokens\n    /// @param _tokenHolder address which holds the tokens to be managed\n    /// @return `true` if `_operator` is authorized for `_tokenHolder`\n    function isOperatorFor(address _operator, address _tokenHolder) public constant returns (bool) {\n        return _operator == _tokenHolder || mAuthorized[_operator][_tokenHolder];\n    }\n\n    /// @notice Send `_value` amount of tokens on behalf of the address `from` to the address `to`.\n    /// @param _from The address holding the tokens being sent\n    /// @param _to The address of the recipient\n    /// @param _value The amount of tokens to be sent\n    /// @param _userData Data generated by the user to be sent to the recipient\n    /// @param _operatorData Data generated by the operator to be sent to the recipient\n    function operatorSend(address _operator, address _from, address _to, uint256 _value, bytes _userData, bytes _operatorData) public {\n        //todo jaycen for somereason the following two lines werent included in the 777\n        // the spec seems to not like wanting to spend allowances, look into why\n\n       //TODO:Check with Jaycen . Took the extra checks from UnstructuredToken Base[NORI]\n\n        //require(_value <= mAllowed[_from][msg.sender]);\n        //mAllowed[_from][msg.sender] = mAllowed[_from][msg.sender].sub(_value);\n       // require(isOperatorFor(_operator, _from));\n       // doSend(_from, _to, _value, _userData, msg.sender, _operatorData, true);\n\n\n\n      // require(_value <= mAllowed[_from][msg.sender]);\n    //mAllowed[_from][msg.sender] = mAllowed[_from][msg.sender].sub(_value);\n        require(isOperatorFor(_operator, _from));\n        doSend(_from,_to, _value, _userData, msg.sender, _operatorData, false);\n    }\n\n    /// @notice Send `_value` amount of tokens on behalf of the address `from` to the address `to`.\n    /// @param _from The address holding the tokens being sent\n    /// @param _to The address of the recipient\n    /// @param _value The amount of tokens to be sent\n    /// @param _userData Data generated by the user to be sent to the recipient\n    /// @param _operatorData Data generated by the operator to be sent to the recipient\n    function operatorSend(address _from, address _to, uint256 _value, bytes _userData, bytes _operatorData) public {\n        // for backwards compatibility (only should be called when callOperator NOT being used)\n        operatorSend(msg.sender, _from, _to, _value, _userData, _operatorData);\n    }\n\n    /// @notice Burns `_value` tokens from `_tokenHolder`\n    ///  Sample burn function to showcase the use of the `Burnt` event.\n    /// @param _tokenHolder The address that will lose the tokens\n    /// @param _value The quantity of tokens to burn\n    function burn(address _tokenHolder, uint256 _value) public onlyOwner {\n        requireMultiple(_value);\n        require(balanceOf(_tokenHolder) >= _value);\n\n        mBalances[_tokenHolder] = mBalances[_tokenHolder].sub(_value);\n        mTotalSupply = mTotalSupply.sub(_value);\n\n        Burnt(_tokenHolder, _value);\n        if (mErc20compatible) {\n            Transfer(_tokenHolder, 0x0, _value);\n        }\n    }\n\n    /// @notice Generates `_value` tokens to be assigned to `_tokenHolder`\n    /// @param _tokenHolder The address that will be assigned the new tokens\n    /// @param _value The quantity of tokens generated\n    /// @param _operatorData Data that will be passed to the recipient as a first transfer\n    /// XXX: DO NOT SHIP TO PRODUCTION (use following instead :  function ownerMint(address _tokenHolder, uint256 _value, bytes _operatorData) public onlyOwner\n    function mint(address _tokenHolder, uint256 _value, bytes _operatorData) public {\n        requireMultiple(_value);\n        mTotalSupply = mTotalSupply.add(_value);\n        mBalances[_tokenHolder] = mBalances[_tokenHolder].add(_value);\n\n        callRecipent(msg.sender, 0x0, _tokenHolder, _value, \"\", _operatorData, true);\n\n        Minted(_tokenHolder, _value, msg.sender, _operatorData);\n        if (mErc20compatible) {\n            Transfer(0x0, _tokenHolder, _value);\n        }\n    }\n\n    /// @notice Internal function that ensures `_value` is multiple of the granularity\n    /// @param _value The quantity that want's to be checked\n    function requireMultiple(uint256 _value) internal view {\n        require(_value > 0 && _value.div(mGranularity).mul(mGranularity) == _value);\n    }\n\n    /// @notice Check whether an address is a regular address or not.\n    /// @param _addr Address of the contract that has to be checked\n    /// @return `true` if `_addr` is a regular address (not a contract)\n    function isRegularAddress(address _addr) internal constant returns(bool) {\n        if (_addr == 0) {\n            return false;\n        }\n        uint size;\n        assembly { size := extcodesize(_addr) } // solhint-disable-line no-inline-assembly\n        return size == 0;\n    }\n\n    /// @notice Helper function actually performing the sending of tokens.\n    /// @param _from The address holding the tokens being sent\n    /// @param _to The address of the recipient\n    /// @param _value The amount of tokens to be sent\n    /// @param _userData Data generated by the user to be passed to the recipient\n    /// @param _operatorData Data generated by the operator to be passed to the recipient\n    /// @param _preventLocking `true` if you want this function to throw when tokens are sent to a contract not\n    ///  implementing `IEIP777TokensRecipient` or not whitelisted in `tokenableContractsRegistry`.\n    ///  ERC777 native Send functions MUST set this parameter to `true`, and backwards compatible ERC20 transfer\n    ///  functions SHOULD set this parameter to `false`.\n    function doSend(\n        address _from,\n        address _to,\n        uint256 _value,\n        bytes _userData,\n        address _operator,\n        bytes _operatorData,\n        bool _preventLocking\n    )\n        private\n    {\n        requireMultiple(_value);\n\n        callSender(_operator, _from, _to, _value, _userData, _operatorData);\n        require(_to != address(0));          // forbid sending to 0x0 (=burning)\n        require(mBalances[_from] >= _value); // ensure enough funds\n\n        mBalances[_from] = mBalances[_from].sub(_value);\n        mBalances[_to] = mBalances[_to].add(_value);\n\n        callRecipent(_operator, _from, _to, _value, _userData, _operatorData, _preventLocking);\n\n        Sent(_from, _to, _value, _userData, _operator, _operatorData);\n        if (mErc20compatible) {\n            Transfer(_from, _to, _value);\n        }\n    }\n\n    function callSender(\n        address _operator,\n        address _from,\n        address _to,\n        uint256 _amount,\n        bytes _userData,\n        bytes _operatorData\n    ) private \n    {\n        address senderImplementation = interfaceAddr(_from, \"IEIP777TokensSender\");\n        if (senderImplementation != 0) {\n            IEIP777TokensSender(senderImplementation).tokensToSend(\n                _operator, _from, _to, _amount, _userData, _operatorData);\n        }\n    }\n\n    /// @notice Helper function that checks for IEIP777TokensRecipient on the recipient and calls it.\n    ///  May throw according to `_preventLocking`\n    /// @param _from The address holding the tokens being sent\n    /// @param _to The address of the recipient\n    /// @param _value The amount of tokens to be sent\n    /// @param _userData Data generated by the user to be passed to the recipient\n    /// @param _operatorData Data generated by the operator to be passed to the recipient\n    /// @param _preventLocking `true` if you want this function to throw when tokens are sent to a contract not\n    ///  implementing `IEIP777TokensRecipient` or not whitelisted in `tokenableContractsRegistry`.\n    ///  ERC777 native Send functions MUST set this parameter to `true`, and backwards compatible ERC20 transfer\n    ///  functions SHOULD set this parameter to `false`.\n    function callRecipent(\n        address _operator,\n        address _from,\n        address _to,\n        uint256 _value,\n        bytes _userData,\n        bytes _operatorData,\n        bool _preventLocking\n    ) private\n    {\n        address recipientImplementation = interfaceAddr(_to, \"IEIP777TokensRecipient\");\n        if (recipientImplementation != 0) {\n           IEIP777TokensRecipient(recipientImplementation).tokensReceived(\n                _operator, _from, _to, _value, _userData, _operatorData);\n        } else if (_preventLocking) {\n            require(isRegularAddress(_to));\n        }\n    }\n\n    /// @notice Helper function that checks for IEIP777TokensOperator on the recipient and calls it.\n    ///  May throw according to `_preventLocking`\n    /// @param _from The address holding the tokens being sent\n    /// @param _to The address of the recipient\n    /// @param _value The amount of tokens to be sent\n    /// @param _userData Data generated by the user to be passed to the recipient\n    /// @param _operatorData Data generated by the operator to be passed to the recipient\n    /// @param _preventLocking `true` if you want this function to throw when tokens are sent to a contract not\n    ///  implementing `IEIP777TokensOperator`\n    ///  ERC777 native Send functions MUST set this parameter to `true`, and backwards compatible ERC20 transfer\n    ///  functions SHOULD set this parameter to `false`.\n    function callOperator(\n        address _operator,\n        address _from,\n        address _to,\n        uint256 _value,\n        bytes _userData,\n        bytes _operatorData,\n        bool _preventLocking\n    ) private\n    {\n        address recipientImplementation = interfaceAddr(_to, \"IEIP777TokensOperator\");\n        if (recipientImplementation != 0) {\n           IEIP777TokensOperator(recipientImplementation).madeOperatorForTokens(\n                _operator, _from, _to, _value, _userData, _operatorData);\n        } else if (_preventLocking) {\n            require(isRegularAddress(_to));\n        }\n    }\n}\n",
  "sourcePath": "/home/ubuntu/dev/Kryptopal/kryptopal-contracts/contracts/EIP777/DEPREACATEDBasic777.sol",
  "compiler": {
    "name": "solc",
    "version": "0.4.24+commit.e67f0147.Emscripten.clang"
  },
  "schemaVersion": "2.0.1",
  "updatedAt": "2018-07-19T04:57:34.807Z"
}