{
  "contractName": "EIP820Registry",
  "abi": [
    {
      "anonymous": false,
      "inputs": [
        {
          "indexed": true,
          "name": "addr",
          "type": "address"
        },
        {
          "indexed": true,
          "name": "interfaceHash",
          "type": "bytes32"
        },
        {
          "indexed": true,
          "name": "implementer",
          "type": "address"
        }
      ],
      "name": "InterfaceImplementerSet",
      "type": "event"
    },
    {
      "anonymous": false,
      "inputs": [
        {
          "indexed": true,
          "name": "addr",
          "type": "address"
        },
        {
          "indexed": true,
          "name": "newManager",
          "type": "address"
        }
      ],
      "name": "ManagerChanged",
      "type": "event"
    },
    {
      "constant": true,
      "inputs": [
        {
          "name": "interfaceName",
          "type": "string"
        }
      ],
      "name": "interfaceHash",
      "outputs": [
        {
          "name": "",
          "type": "bytes32"
        }
      ],
      "payable": false,
      "stateMutability": "pure",
      "type": "function"
    },
    {
      "constant": true,
      "inputs": [
        {
          "name": "addr",
          "type": "address"
        }
      ],
      "name": "getManager",
      "outputs": [
        {
          "name": "",
          "type": "address"
        }
      ],
      "payable": false,
      "stateMutability": "view",
      "type": "function"
    },
    {
      "constant": false,
      "inputs": [
        {
          "name": "addr",
          "type": "address"
        },
        {
          "name": "newManager",
          "type": "address"
        }
      ],
      "name": "setManager",
      "outputs": [],
      "payable": false,
      "stateMutability": "nonpayable",
      "type": "function"
    },
    {
      "constant": true,
      "inputs": [
        {
          "name": "addr",
          "type": "address"
        },
        {
          "name": "iHash",
          "type": "bytes32"
        }
      ],
      "name": "getInterfaceImplementer",
      "outputs": [
        {
          "name": "",
          "type": "address"
        }
      ],
      "payable": false,
      "stateMutability": "view",
      "type": "function"
    },
    {
      "constant": false,
      "inputs": [
        {
          "name": "addr",
          "type": "address"
        },
        {
          "name": "iHash",
          "type": "bytes32"
        },
        {
          "name": "implementer",
          "type": "address"
        }
      ],
      "name": "setInterfaceImplementer",
      "outputs": [],
      "payable": false,
      "stateMutability": "nonpayable",
      "type": "function"
    },
    {
      "constant": true,
      "inputs": [
        {
          "name": "_contract",
          "type": "address"
        },
        {
          "name": "_interfaceId",
          "type": "bytes4"
        }
      ],
      "name": "eip165InterfaceSupported",
      "outputs": [
        {
          "name": "",
          "type": "bool"
        }
      ],
      "payable": false,
      "stateMutability": "view",
      "type": "function"
    },
    {
      "constant": false,
      "inputs": [
        {
          "name": "_contract",
          "type": "address"
        },
        {
          "name": "_interfaceId",
          "type": "bytes4"
        }
      ],
      "name": "eip165UpdateCache",
      "outputs": [],
      "payable": false,
      "stateMutability": "nonpayable",
      "type": "function"
    },
    {
      "constant": true,
      "inputs": [
        {
          "name": "_contract",
          "type": "address"
        },
        {
          "name": "_interfaceId",
          "type": "bytes4"
        }
      ],
      "name": "eip165InterfaceSupported_NoCache",
      "outputs": [
        {
          "name": "",
          "type": "bool"
        }
      ],
      "payable": false,
      "stateMutability": "view",
      "type": "function"
    }
  ],
  "bytecode": "0x608060405234801561001057600080fd5b506107f7806100206000396000f30060806040526004361061008d5763ffffffff7c010000000000000000000000000000000000000000000000000000000060003504166329965a1d81146100925780633d584063146100bf5780635df8122f146100fc57806365ba36c1146101235780636d764ca11461018e578063aabbb8ca146101d0578063e0af47b7146101f4578063ecb1555b14610222575b600080fd5b34801561009e57600080fd5b506100bd600160a060020a036004358116906024359060443516610250565b005b3480156100cb57600080fd5b506100e0600160a060020a03600435166103e8565b60408051600160a060020a039092168252519081900360200190f35b34801561010857600080fd5b506100bd600160a060020a0360043581169060243516610434565b34801561012f57600080fd5b506040805160206004803580820135601f810184900484028501840190955284845261017c9436949293602493928401919081908401838280828437509497506104e29650505050505050565b60408051918252519081900360200190f35b34801561019a57600080fd5b506101bc600160a060020a0360043516600160e060020a031960243516610546565b604080519115158252519081900360200190f35b3480156101dc57600080fd5b506100e0600160a060020a03600435166024356105bc565b34801561020057600080fd5b506101bc600160a060020a0360043516600160e060020a03196024351661061b565b34801561022e57600080fd5b506100bd600160a060020a0360043516600160e060020a0319602435166106d2565b823361025b826103e8565b600160a060020a03161461026e57600080fd5b6102778361075c565b1561028157600080fd5b600160a060020a038216158015906102a25750600160a060020a0382163314155b1561037757604080517f4549503832305f4143434550545f4d4147494300000000000000000000000000815281519081900360130181207ff0083250000000000000000000000000000000000000000000000000000000008252600160a060020a038781166004840152602483018790529251909285169163f00832509160448083019260209291908290030181600087803b15801561034157600080fd5b505af1158015610355573d6000803e3d6000fd5b505050506040513d602081101561036b57600080fd5b50511461037757600080fd5b600160a060020a03848116600081815260208181526040808320888452909152808220805473ffffffffffffffffffffffffffffffffffffffff19169487169485179055518692917f93baa6efbd2244243bfee6ce4cfdd1d04fc4c0e9a786abd3a41313bd352db15391a450505050565b600160a060020a03808216600090815260016020526040812054909116151561041257508061042f565b50600160a060020a03808216600090815260016020526040902054165b919050565b813361043f826103e8565b600160a060020a03161461045257600080fd5b82600160a060020a031682600160a060020a0316146104715781610474565b60005b600160a060020a03848116600081815260016020526040808220805473ffffffffffffffffffffffffffffffffffffffff19169585169590951790945592519185169290917f605c2dbf762e5f7d60a546d42e7205dcb1b011ebc62a61736a57c9089d3a43509190a3505050565b6000816040518082805190602001908083835b602083106105145780518252601f1990920191602091820191016104f5565b5181516020939093036101000a6000190180199091169216919091179052604051920182900390912095945050505050565b600160a060020a0382166000908152600260209081526040808320600160e060020a03198516845290915281205460ff1615156105875761058783836106d2565b50600160a060020a03918216600090815260208181526040808320600160e060020a0319949094168352929052205416151590565b6000806105c88361075c565b156105ed5750816105d98482610546565b6105e45760006105e6565b835b9150610614565b600160a060020a038085166000908152602081815260408083208784529091529020541691505b5092915050565b60008080610649857f01ffc9a70000000000000000000000000000000000000000000000000000000061077e565b9092509050811580610659575080155b1561066757600092506106ca565b61067985600160e060020a031961077e565b909250905081158061068a57508015155b1561069857600092506106ca565b6106a2858561077e565b90925090506001821480156106b75750806001145b156106c557600192506106ca565b600092505b505092915050565b6106dc828261061b565b6106e75760006106e9565b815b600160a060020a03928316600081815260208181526040808320600160e060020a031996909616808452958252808320805473ffffffffffffffffffffffffffffffffffffffff19169590971694909417909555908152600284528181209281529190925220805460ff19166001179055565b7bffffffffffffffffffffffffffffffffffffffffffffffffffffffff161590565b6040517f01ffc9a7000000000000000000000000000000000000000000000000000000008082526004820183905260009182919060208160088189617530fa9051909690955093505050505600a165627a7a723058209de6e8e9c9a0a0c147614295575b088805167cbb870db5dca4c23ec0c0172fce0029",
  "source": "pragma solidity ^0.4.18;\n\nimport \"./IEIP820Implementer.sol\";\n\ncontract EIP820Registry {\n    bytes4 constant INVALIDID = 0xffffffff;\n    bytes4 constant EIP165ID = 0x01ffc9a7;\n    bytes32 constant EIP820_ACCEPT_MAGIC = keccak256(\"EIP820_ACCEPT_MAGIC\");\n\n    mapping (address => mapping(bytes32 => address)) interfaces;\n    mapping (address => address) managers;\n    mapping (address => mapping(bytes4 => bool)) eip165Cache;\n\n    modifier canManage(address addr) {\n        require(getManager(addr) == msg.sender);\n        _;\n    }\n\n\n    event InterfaceImplementerSet(address indexed addr, bytes32 indexed interfaceHash, address indexed implementer);\n    event ManagerChanged(address indexed addr, address indexed newManager);\n\n    /// @notice Query the hash of an interface given a name\n    /// @param interfaceName Name of the interfce\n    function interfaceHash(string interfaceName) public pure returns(bytes32) {\n        return keccak256(interfaceName);\n    }\n\n    /// @notice GetManager\n    function getManager(address addr) public view returns(address) {\n        // By default the manager of an address is the same address\n        if (managers[addr] == 0) {\n            return addr;\n        } else {\n            return managers[addr];\n        }\n    }\n\n    /// @notice Sets an external `manager` that will be able to call `setInterfaceImplementer()`\n    ///  on behalf of the address.\n    /// @param addr Address that you are defining the manager for.\n    /// @param newManager The address of the manager for the `addr` that will replace\n    ///  the old one.  Set to 0x0 if you want to remove the manager.\n    function setManager(address addr, address newManager) public canManage(addr) {\n        managers[addr] = newManager == addr ? 0 : newManager;\n        ManagerChanged(addr, newManager);\n    }\n\n    /// @notice Query if an address implements an interface and thru which contract\n    /// @param addr Address that is being queried for the implementation of an interface\n    /// @param iHash SHA3 of the name of the interface as a string\n    ///  Example `web3.utils.sha3('EIP777Token`')`\n    /// @return The address of the contract that implements a specific interface\n    ///  or 0x0 if `addr` does not implement this interface\n    function getInterfaceImplementer(address addr, bytes32 iHash) constant public returns (address) {\n        if (isEIP165Interface(iHash)) {\n            bytes4 i165Hash = bytes4(iHash);\n            return eip165InterfaceSupported(addr, i165Hash) ? addr : 0;\n        }\n        return interfaces[addr][iHash];\n    }\n\n    /// @notice Sets the contract that will handle a specific interface; only\n    ///  the address itself or a `manager` defined for that address can set it\n    /// @param addr Address that you want to define the interface for\n    /// @param iHash SHA3 of the name of the interface as a string\n    ///  For example `web3.utils.sha3('Ieip777')` for the Ieip777\n    function setInterfaceImplementer(address addr, bytes32 iHash, address implementer) public canManage(addr) {\n        require(!isEIP165Interface(iHash));\n        if ((implementer != 0) && (implementer!=msg.sender)) {\n            require(IEIP820Implementer(implementer).canImplementInterfaceForAddress(addr, iHash) == EIP820_ACCEPT_MAGIC);\n        }\n        interfaces[addr][iHash] = implementer;\n        InterfaceImplementerSet(addr, iHash, implementer);\n    }\n\n\n/// EIP165 Specific\n\n    function isEIP165Interface(bytes32 iHash) internal pure returns (bool) {\n        return iHash & 0x00000000FFFFFFFFFFFFFFFFFFFFFFFFFFFFFFFFFFFFFFFFFFFFFFFFFFFFFFFF == 0;\n    }\n\n    function eip165InterfaceSupported(address _contract, bytes4 _interfaceId) constant public returns (bool) {\n        if (!eip165Cache[_contract][_interfaceId]) {\n            eip165UpdateCache(_contract, _interfaceId);\n        }\n        return interfaces[_contract][_interfaceId] != 0;\n    }\n\n    function eip165UpdateCache(address _contract, bytes4 _interfaceId) public {\n        interfaces[_contract][_interfaceId] =\n            eip165InterfaceSupported_NoCache(_contract, _interfaceId) ? _contract : 0;\n        eip165Cache[_contract][_interfaceId] = true;\n    }\n\n    function eip165InterfaceSupported_NoCache(address _contract, bytes4 _interfaceId) public constant returns (bool) {\n        uint256 success;\n        uint256 result;\n\n        (success, result) = noThrowCall(_contract, EIP165ID);\n        if ((success==0)||(result==0)) {\n            return false;\n        }\n\n        (success, result) = noThrowCall(_contract, INVALIDID);\n        if ((success==0)||(result!=0)) {\n            return false;\n        }\n\n        (success, result) = noThrowCall(_contract, _interfaceId);\n        if ((success==1)&&(result==1)) {\n            return true;\n        }\n        return false;\n    }\n\n    function noThrowCall(address _contract, bytes4 _interfaceId) constant internal returns (uint256 success, uint256 result) {\n        bytes4 eip165ID = EIP165ID;\n\n        assembly {\n                let x := mload(0x40)               // Find empty storage location using \"free memory pointer\"\n                mstore(x, eip165ID)                // Place signature at begining of empty storage\n                mstore(add(x, 0x04), _interfaceId) // Place first argument directly next to signature\n\n                success := staticcall(\n                                    30000,         // 30k gas\n                                    _contract,     // To addr\n                                    x,             // Inputs are stored at location x\n                                    0x08,          // Inputs are 8 bytes long\n                                    x,             // Store output over input (saves space)\n                                    0x20)          // Outputs are 32 bytes long\n\n                result := mload(x)                 // Load the result\n        }\n    }\n}",
  "sourcePath": "/home/ubuntu/dev/Kryptopal/kryptopal-contracts/contracts/EIP820/EIP820Registry.sol",
  "compiler": {
    "name": "solc",
    "version": "0.4.24+commit.e67f0147.Emscripten.clang"
  },
  "schemaVersion": "2.0.1",
  "updatedAt": "2018-07-19T05:20:39.722Z"
}