{
  "contractName": "FIFSRegistrar",
  "abi": [
    {
      "inputs": [
        {
          "name": "ensAddr",
          "type": "address"
        },
        {
          "name": "node",
          "type": "bytes32"
        }
      ],
      "payable": false,
      "stateMutability": "nonpayable",
      "type": "constructor"
    },
    {
      "constant": false,
      "inputs": [
        {
          "name": "subnode",
          "type": "bytes32"
        },
        {
          "name": "owner",
          "type": "address"
        }
      ],
      "name": "register",
      "outputs": [],
      "payable": false,
      "stateMutability": "nonpayable",
      "type": "function"
    }
  ],
  "bytecode": "0x608060405234801561001057600080fd5b5060405160408061029583398101604052805160209091015160008054600160a060020a031916600160a060020a0390931692909217825560015561023a90819061005b90396000f3006080604052600436106100405763ffffffff7c0100000000000000000000000000000000000000000000000000000000600035041663d22057a98114610045575b600080fd5b34801561005157600080fd5b5061007660043573ffffffffffffffffffffffffffffffffffffffff60243516610078565b005b60008054600154604080519182526020808301879052815192839003820183207f02571be30000000000000000000000000000000000000000000000000000000084526004840152905186949373ffffffffffffffffffffffffffffffffffffffff16926302571be392602480830193919282900301818787803b1580156100ff57600080fd5b505af1158015610113573d6000803e3d6000fd5b505050506040513d602081101561012957600080fd5b5051905073ffffffffffffffffffffffffffffffffffffffff81161580610165575073ffffffffffffffffffffffffffffffffffffffff811633145b151561017057600080fd5b60008054600154604080517f06ab592300000000000000000000000000000000000000000000000000000000815260048101929092526024820188905273ffffffffffffffffffffffffffffffffffffffff878116604484015290519216926306ab59239260648084019382900301818387803b1580156101f057600080fd5b505af1158015610204573d6000803e3d6000fd5b50505050505050505600a165627a7a72305820bd5e52fb975ab9b9270423cd4c79f5390ca2d18c37becb56747c79d64b8db97c0029",
  "source": "pragma solidity ^0.4.24;\n\nimport \"./ENS.sol\";\n\n/**\n * A registrar that allocates subdomains to the first person to claim them.\n */\ncontract FIFSRegistrar {\n  ENS ens;\n  bytes32 rootNode;\n\n  modifier only_owner(bytes32 subnode) {\n    address currentOwner = ens.owner(keccak256(rootNode, subnode));\n    require(currentOwner == 0 || currentOwner == msg.sender);\n    _;\n  }\n\n  /**\n    * Constructor.\n    * @param ensAddr The address of the ENS registry.\n    * @param node The node that this registrar administers.\n    */\n  constructor(ENS ensAddr, bytes32 node) public {\n    ens = ensAddr;\n    rootNode = node;\n  }\n\n  /**\n    * Register a name, or change the owner of an existing registration.\n    * @param subnode The hash of the label to register.\n    * @param owner The address of the new owner.\n    */\n  function register(bytes32 subnode, address owner) public only_owner(subnode) {\n    ens.setSubnodeOwner(rootNode, subnode, owner);\n  }\n}",
  "sourcePath": "/home/ubuntu/dev/Kryptopal/kryptopal-contracts/contracts/ens/FIFSRegistrar.sol",
  "compiler": {
    "name": "solc",
    "version": "0.4.24+commit.e67f0147.Emscripten.clang"
  },
  "schemaVersion": "2.0.1",
  "updatedAt": "2018-07-19T05:15:59.851Z"
}