{
  "contractName": "KryptopalCrowdsaleV0_1_0",
  "abi": [
    {
      "constant": true,
      "inputs": [],
      "name": "phase3Rate",
      "outputs": [
        {
          "name": "",
          "type": "uint256"
        }
      ],
      "payable": false,
      "stateMutability": "view",
      "type": "function"
    },
    {
      "constant": true,
      "inputs": [],
      "name": "endTime",
      "outputs": [
        {
          "name": "",
          "type": "uint256"
        }
      ],
      "payable": false,
      "stateMutability": "view",
      "type": "function"
    },
    {
      "constant": true,
      "inputs": [],
      "name": "cap",
      "outputs": [
        {
          "name": "",
          "type": "uint256"
        }
      ],
      "payable": false,
      "stateMutability": "view",
      "type": "function"
    },
    {
      "constant": true,
      "inputs": [],
      "name": "weiRaised",
      "outputs": [
        {
          "name": "",
          "type": "uint256"
        }
      ],
      "payable": false,
      "stateMutability": "view",
      "type": "function"
    },
    {
      "constant": true,
      "inputs": [],
      "name": "phase2Rate",
      "outputs": [
        {
          "name": "",
          "type": "uint256"
        }
      ],
      "payable": false,
      "stateMutability": "view",
      "type": "function"
    },
    {
      "constant": true,
      "inputs": [],
      "name": "wallet",
      "outputs": [
        {
          "name": "",
          "type": "address"
        }
      ],
      "payable": false,
      "stateMutability": "view",
      "type": "function"
    },
    {
      "constant": true,
      "inputs": [],
      "name": "tokensMinted",
      "outputs": [
        {
          "name": "",
          "type": "uint256"
        }
      ],
      "payable": false,
      "stateMutability": "view",
      "type": "function"
    },
    {
      "constant": true,
      "inputs": [],
      "name": "startTime",
      "outputs": [
        {
          "name": "",
          "type": "uint256"
        }
      ],
      "payable": false,
      "stateMutability": "view",
      "type": "function"
    },
    {
      "constant": true,
      "inputs": [],
      "name": "eip820RegistryAddr",
      "outputs": [
        {
          "name": "",
          "type": "address"
        }
      ],
      "payable": false,
      "stateMutability": "view",
      "type": "function"
    },
    {
      "constant": true,
      "inputs": [],
      "name": "phase2Cap",
      "outputs": [
        {
          "name": "",
          "type": "uint256"
        }
      ],
      "payable": false,
      "stateMutability": "view",
      "type": "function"
    },
    {
      "constant": true,
      "inputs": [],
      "name": "phase3Cap",
      "outputs": [
        {
          "name": "",
          "type": "uint256"
        }
      ],
      "payable": false,
      "stateMutability": "view",
      "type": "function"
    },
    {
      "constant": true,
      "inputs": [],
      "name": "phase4Rate",
      "outputs": [
        {
          "name": "",
          "type": "uint256"
        }
      ],
      "payable": false,
      "stateMutability": "view",
      "type": "function"
    },
    {
      "constant": true,
      "inputs": [],
      "name": "token",
      "outputs": [
        {
          "name": "",
          "type": "address"
        }
      ],
      "payable": false,
      "stateMutability": "view",
      "type": "function"
    },
    {
      "payable": true,
      "stateMutability": "payable",
      "type": "fallback"
    },
    {
      "anonymous": false,
      "inputs": [
        {
          "indexed": true,
          "name": "purchaser",
          "type": "address"
        },
        {
          "indexed": true,
          "name": "beneficiary",
          "type": "address"
        },
        {
          "indexed": false,
          "name": "value",
          "type": "uint256"
        },
        {
          "indexed": false,
          "name": "amount",
          "type": "uint256"
        }
      ],
      "name": "TokenPurchase",
      "type": "event"
    },
    {
      "constant": false,
      "inputs": [
        {
          "name": "_startTime",
          "type": "uint256"
        },
        {
          "name": "_endTime",
          "type": "uint256"
        },
        {
          "name": "_phase2Rate",
          "type": "uint256"
        },
        {
          "name": "_phase3Rate",
          "type": "uint256"
        },
        {
          "name": "_phase4Rate",
          "type": "uint256"
        },
        {
          "name": "_cap",
          "type": "uint256"
        },
        {
          "name": "_wallet",
          "type": "address"
        },
        {
          "name": "_eip820RegistryAddr",
          "type": "address"
        },
        {
          "name": "_tokensMinted",
          "type": "uint256"
        },
        {
          "name": "_tokenAddress",
          "type": "address"
        }
      ],
      "name": "initialize",
      "outputs": [],
      "payable": false,
      "stateMutability": "nonpayable",
      "type": "function"
    },
    {
      "constant": false,
      "inputs": [],
      "name": "initialized",
      "outputs": [
        {
          "name": "",
          "type": "bool"
        }
      ],
      "payable": false,
      "stateMutability": "nonpayable",
      "type": "function"
    },
    {
      "constant": true,
      "inputs": [],
      "name": "hasEnded",
      "outputs": [
        {
          "name": "",
          "type": "bool"
        }
      ],
      "payable": false,
      "stateMutability": "view",
      "type": "function"
    },
    {
      "constant": false,
      "inputs": [
        {
          "name": "beneficiary",
          "type": "address"
        }
      ],
      "name": "buyTokens",
      "outputs": [],
      "payable": true,
      "stateMutability": "payable",
      "type": "function"
    },
    {
      "constant": true,
      "inputs": [
        {
          "name": "weiAmount",
          "type": "uint256"
        }
      ],
      "name": "getTokenAmount",
      "outputs": [
        {
          "name": "",
          "type": "uint256"
        }
      ],
      "payable": false,
      "stateMutability": "view",
      "type": "function"
    },
    {
      "constant": true,
      "inputs": [
        {
          "name": "user",
          "type": "address"
        }
      ],
      "name": "getBalanceOfUser",
      "outputs": [
        {
          "name": "",
          "type": "uint256"
        }
      ],
      "payable": false,
      "stateMutability": "view",
      "type": "function"
    },
    {
      "constant": true,
      "inputs": [],
      "name": "getPublicAddress",
      "outputs": [
        {
          "name": "",
          "type": "address"
        }
      ],
      "payable": false,
      "stateMutability": "view",
      "type": "function"
    }
  ],
  "bytecode": "0x60806040526aa56fa5b99019a5c80000006008556b0121836204bc2ce21e00000060095534801561002f57600080fd5b50610a038061003f6000396000f3006080604052600436106101115763ffffffff7c0100000000000000000000000000000000000000000000000000000000600035041663158ef93e811461011c5780632236fa1d146101455780633197cbb61461016c578063355274ea146101815780634042b66f1461019657806341338cc5146101ab57806345909a6f146101c05780634a97db7a146101e1578063521eb273146102125780636de9f32b1461022757806378e979251461023c57806382a8ddd414610251578063abb6ea0814610266578063c2507ac1146102ab578063d7638b73146102c3578063d8cba7a2146102d8578063e26a16a0146102ed578063ec8ac4d814610302578063ecb70fb714610316578063fc0c546a1461032b575b61011a33610340565b005b34801561012857600080fd5b5061013161059a565b604080519115158252519081900360200190f35b34801561015157600080fd5b5061015a6105bb565b60408051918252519081900360200190f35b34801561017857600080fd5b5061015a6105c1565b34801561018d57600080fd5b5061015a6105c7565b3480156101a257600080fd5b5061015a6105cd565b3480156101b757600080fd5b5061015a6105d3565b3480156101cc57600080fd5b5061015a600160a060020a03600435166105d9565b3480156101ed57600080fd5b506101f6610678565b60408051600160a060020a039092168252519081900360200190f35b34801561021e57600080fd5b506101f661067c565b34801561023357600080fd5b5061015a61068b565b34801561024857600080fd5b5061015a610691565b34801561025d57600080fd5b506101f6610697565b34801561027257600080fd5b5061011a60043560243560443560643560843560a435600160a060020a0360c43581169060e435811690610104359061012435166106a6565b3480156102b757600080fd5b5061015a600435610822565b3480156102cf57600080fd5b5061015a61087f565b3480156102e457600080fd5b5061015a610885565b3480156102f957600080fd5b5061015a61088b565b61011a600160a060020a0360043516610340565b34801561032257600080fd5b50610131610891565b34801561033757600080fd5b506101f6610899565b60008080600160a060020a038416151561035957600080fd5b6103616108a8565b151561036c57600080fd5b34925061037883610822565b9150600090506008546007541080156103a457506008546007546103a2908463ffffffff61090316565b115b15610408576103d06008546103c48460075461090390919063ffffffff16565b9063ffffffff61091d16565b90506103e2828263ffffffff61091d16565b91506103f38160045460035461092f565b9050610405828263ffffffff61090316565b91505b60095460075410801561042e575060095460075461042c908463ffffffff61090316565b115b156104865761044e6009546103c48460075461090390919063ffffffff16565b9050610460828263ffffffff61091d16565b91506104718160055460045461092f565b9050610483828263ffffffff61090316565b91505b600654610499908463ffffffff61090316565b6006556007546104af908363ffffffff61090316565b600755600c54604080517f94d008ef000000000000000000000000000000000000000000000000000000008152600160a060020a038781166004830152602482018690526060604483015260006064830181905292519316926394d008ef9260a48084019391929182900301818387803b15801561052c57600080fd5b505af1158015610540573d6000803e3d6000fd5b505060408051868152602081018690528151600160a060020a03891694503393507f623b3804fa71d67900d064613da8f94b9617215ee90799290593e1745087ad18929181900390910190a3610594610959565b50505050565b600c5474010000000000000000000000000000000000000000900460ff1690565b60045481565b60015481565b60025481565b60065481565b60035481565b600c54604080517f70a08231000000000000000000000000000000000000000000000000000000008152600160a060020a038481166004830152915160009392909216916370a082319160248082019260209290919082900301818787803b15801561064457600080fd5b505af1158015610658573d6000803e3d6000fd5b505050506040513d602081101561066e57600080fd5b505190505b919050565b3090565b600a54600160a060020a031681565b60075481565b60005481565b600b54600160a060020a031681565b898910156106b357600080fd5b86861080156106c157508787105b80156106cd5750600086115b15156106d857600080fd5b600160a060020a03841615156106ed57600080fd5b600c8054600160a060020a0380841673ffffffffffffffffffffffffffffffffffffffff19928316179283905560008d815560018d905560038c905560048b815560058b9055600a80548a85169086168117909155600b80548a861696169590951790945560028a90556007879055604080517f94d008ef00000000000000000000000000000000000000000000000000000000815291820194909452602481018790526060604482015260648101829052925193909116926394d008ef9260a480820193929182900301818387803b1580156107c957600080fd5b505af11580156107dd573d6000803e3d6000fd5b5050600c805474ff0000000000000000000000000000000000000000191674010000000000000000000000000000000000000000179055505050505050505050505050565b6000600854600754101561084b5760035461084490839063ffffffff61099516565b9050610673565b600954600754101561086b5760045461084490839063ffffffff61099516565b60055461084490839063ffffffff61099516565b60085481565b60095481565b60055481565b600154421190565b600c54600160a060020a031681565b6000805442101580156108bd57506001544211155b80156108d157506702c68af0bb1400003410155b80156108f257506006546108ec90349063ffffffff61090316565b60025410155b15156108fd57600080fd5b50600190565b60008282018381101561091257fe5b8091505b5092915050565b60008282111561092957fe5b50900390565b600061095183610945868563ffffffff6109c016565b9063ffffffff61099516565b949350505050565b600a54604051600160a060020a03909116903480156108fc02916000818181858888f19350505050158015610992573d6000803e3d6000fd5b50565b6000808315156109a85760009150610916565b508282028284828115156109b857fe5b041461091257fe5b60008082848115156109ce57fe5b049493505050505600a165627a7a723058200e1ac0668207e1b2c0bff11be271610a3e5fa857ce3bdb385368808f50cf7d490029",
  "source": "pragma solidity ^0.4.18;\n\nimport \"./token/KryptoX777V0_1_0.sol\";\nimport \"../node_modules/zeppelin-solidity/contracts/math/SafeMath.sol\";\nimport \"./EIP820/EIP820Registry.sol\";\n\ncontract KryptopalCrowdsaleV0_1_0 {\n    using SafeMath for uint256;\n    // start and end timestamps where investments are allowed (both inclusive)\n    uint256 public startTime;\n    uint256 public endTime;\n    uint256 public cap; // \"500,000,000\" token cap\n    // how many token units a buyer gets per wei in each phase\n    uint256 public phase2Rate;\n    uint256 public phase3Rate;\n    uint256 public phase4Rate;\n    // amount of raised money in wei -- todo: note: weiRaised currently excludes money raised during Phase1\n    uint256 public weiRaised;\n    // amount of tokens Minted\n    uint256 public tokensMinted;\n    // address where funds are collected\n    uint256 public phase2Cap = 200000000 ether;\n    uint256 public phase3Cap = 350000000 ether;\n    address public wallet;\n    // address required to impliment KPX777 todo: Should this variable be private for security concerns?\n    address public eip820RegistryAddr;\n    // The token being sold\n    KryptoX777V0_1_0 public token;\n    bool internal _initialized;\n    /**\n    * event for token purchase logging\n    * @param purchaser who paid for the tokens\n    * @param beneficiary who got the tokens \n    * @param value weis paid for purchase\n    * @param amount amount of tokens purchased\n    */\n    event TokenPurchase(address indexed purchaser, address indexed beneficiary, uint256 value, uint256 amount);\n\n    function initialize(\n        uint256 _startTime,  uint256 _endTime, uint256 _phase2Rate, \n        uint256 _phase3Rate, uint256 _phase4Rate, uint256 _cap, address _wallet, \n        address _eip820RegistryAddr,uint256 _tokensMinted,address _tokenAddress) public { \n        //require(_startTime >= now);\n        require(_endTime >= _startTime);\n        require((_phase4Rate < _phase3Rate) && (_phase3Rate < _phase2Rate) && (_phase4Rate > 0)); // todo: maybe make this fixed variables\n        require(_wallet != address(0));\n        token = KryptoX777V0_1_0(_tokenAddress);\n          //token.initialize(\"KPX777\", \"KPX\", 1,_tokensMinted,_eip820RegistryAddr,msg.sender);    \n        startTime = _startTime;\n        endTime = _endTime;\n        phase2Rate = _phase2Rate;\n        phase3Rate = _phase3Rate;\n        phase4Rate = _phase4Rate;\n        wallet = _wallet;\n        eip820RegistryAddr = _eip820RegistryAddr;\n        cap = _cap;\n        tokensMinted = _tokensMinted;\n        token.mint(_wallet, tokensMinted, \"\"); // Manually distribute tokens to pre-TGE backers\n        _initialized = true;\n      \n    }\n    function initialized() public returns(bool) {\n        return _initialized;\n    }\n\n    // @return true if crowdsale event has ended\n    function hasEnded() public view returns (bool) {\n        return now > endTime;\n    }\n\n    // @return true if the transaction can buy tokens\n    function validPurchase() private view returns (bool) {\n      // todo: change to require some minimum amount wei. Currently at .2 Ether\n        require(now >= startTime && now <= endTime && msg.value >= 0.2 ether && cap >= (msg.value.add(weiRaised)));\n        return true;\n    }\n\n    // fallback function can be used to buy tokens\n    function () external payable {\n        buyTokens(msg.sender);\n    }\n\n    // low level token purchase function\n    function buyTokens(address beneficiary) public payable {\n        require(beneficiary != address(0));\n        require(validPurchase());\n\n        uint256 weiAmount = msg.value;\n        // calculate token amount to be created\n        uint256 tokens = getTokenAmount(weiAmount);\n        uint256 tokensDiff = 0;\n        //Check that they are buying only with that tier list\n        if ((tokensMinted < phase2Cap) && (tokensMinted.add(tokens) > phase2Cap)) {\n            tokensDiff = (tokensMinted.add(tokens)).sub(phase2Cap); // find difference in how many tokens are purchased at the next rate\n            tokens = tokens.sub(tokensDiff); // update current token  \n            tokensDiff = convertTokenAmount(tokensDiff, phase3Rate, phase2Rate); // convert difference to new rate amount\n            tokens = tokens.add(tokensDiff); // update current token\n        }\n        if ((tokensMinted < phase3Cap) && (tokensMinted.add(tokens) > phase3Cap)) {\n            tokensDiff = (tokensMinted.add(tokens)).sub(phase3Cap); // find difference in how many tokens are purchased at the next rate\n            tokens = tokens.sub(tokensDiff); // update current token\n            tokensDiff = convertTokenAmount(tokensDiff, phase4Rate, phase3Rate); // convert difference to new rate amount\n            tokens = tokens.add(tokensDiff); // update current token\n        }\n        // update state\n        weiRaised = weiRaised.add(weiAmount);\n        tokensMinted = tokensMinted.add(tokens);\n\n        token.mint(beneficiary, tokens, \"\");\n        // Todo: Create a function / way to pass in operator data (if we want that) in place of quotes\n        emit TokenPurchase(msg.sender, beneficiary, weiAmount, tokens);\n\n        forwardFunds();\n    }\n    // send ether to the fund collection wallet\n    // override to create custom fund forwarding mechanisms\n    function forwardFunds() internal {\n        wallet.transfer(msg.value);\n    }\n\n    function convertTokenAmount(uint256 tokenAmount, uint256 currentRate, uint256 oldRate) internal view returns(uint256) {\n        return (tokenAmount.div(oldRate)).mul(currentRate);\n    }\n\n    function getTokenAmount(uint256 weiAmount) public view returns(uint256) { \n        if (tokensMinted < phase2Cap) { \n            return weiAmount.mul(phase2Rate);\n      }\n        if (tokensMinted < phase3Cap) {\n            return weiAmount.mul(phase3Rate);\n        } else {\n            return weiAmount.mul(phase4Rate);\n      }\n    }\n\n  //test\n    function getBalanceOfUser(address user) public view returns(uint256) {\n        return token.balanceOf(user);\n    }\n    function getPublicAddress() public view returns(address) {\n        return this;\n    }\n}",
  "sourcePath": "/home/ubuntu/dev/Kryptopal/kryptopal-contracts/contracts/KryptopalCrowdsaleV0_1_0.sol",
  "compiler": {
    "name": "solc",
    "version": "0.4.24+commit.e67f0147.Emscripten.clang"
  },
  "schemaVersion": "2.0.1",
  "updatedAt": "2018-07-19T05:20:24.021Z"
}