{
  "contractName": "KryptoX777V0_1_0",
  "abi": [
    {
      "constant": true,
      "inputs": [],
      "name": "name",
      "outputs": [
        {
          "name": "",
          "type": "string"
        }
      ],
      "payable": false,
      "stateMutability": "view",
      "type": "function"
    },
    {
      "constant": false,
      "inputs": [],
      "name": "enableERC20",
      "outputs": [],
      "payable": false,
      "stateMutability": "nonpayable",
      "type": "function"
    },
    {
      "constant": false,
      "inputs": [
        {
          "name": "_spender",
          "type": "address"
        },
        {
          "name": "_value",
          "type": "uint256"
        }
      ],
      "name": "approve",
      "outputs": [
        {
          "name": "success",
          "type": "bool"
        }
      ],
      "payable": false,
      "stateMutability": "nonpayable",
      "type": "function"
    },
    {
      "constant": true,
      "inputs": [],
      "name": "initialized",
      "outputs": [
        {
          "name": "",
          "type": "bool"
        }
      ],
      "payable": false,
      "stateMutability": "view",
      "type": "function"
    },
    {
      "constant": true,
      "inputs": [],
      "name": "totalSupply",
      "outputs": [
        {
          "name": "",
          "type": "uint256"
        }
      ],
      "payable": false,
      "stateMutability": "view",
      "type": "function"
    },
    {
      "constant": false,
      "inputs": [
        {
          "name": "_from",
          "type": "address"
        },
        {
          "name": "_to",
          "type": "address"
        },
        {
          "name": "_value",
          "type": "uint256"
        }
      ],
      "name": "transferFrom",
      "outputs": [
        {
          "name": "success",
          "type": "bool"
        }
      ],
      "payable": false,
      "stateMutability": "nonpayable",
      "type": "function"
    },
    {
      "constant": true,
      "inputs": [],
      "name": "decimals",
      "outputs": [
        {
          "name": "",
          "type": "uint8"
        }
      ],
      "payable": false,
      "stateMutability": "view",
      "type": "function"
    },
    {
      "constant": false,
      "inputs": [
        {
          "name": "_operator",
          "type": "address"
        },
        {
          "name": "_value",
          "type": "uint256"
        }
      ],
      "name": "authorizeOperator",
      "outputs": [],
      "payable": false,
      "stateMutability": "nonpayable",
      "type": "function"
    },
    {
      "constant": true,
      "inputs": [],
      "name": "granularity",
      "outputs": [
        {
          "name": "",
          "type": "uint256"
        }
      ],
      "payable": false,
      "stateMutability": "view",
      "type": "function"
    },
    {
      "constant": false,
      "inputs": [
        {
          "name": "_from",
          "type": "address"
        },
        {
          "name": "_to",
          "type": "address"
        },
        {
          "name": "_value",
          "type": "uint256"
        },
        {
          "name": "_userData",
          "type": "bytes"
        },
        {
          "name": "_operatorData",
          "type": "bytes"
        }
      ],
      "name": "operatorSend",
      "outputs": [],
      "payable": false,
      "stateMutability": "nonpayable",
      "type": "function"
    },
    {
      "constant": true,
      "inputs": [
        {
          "name": "_tokenHolder",
          "type": "address"
        }
      ],
      "name": "balanceOf",
      "outputs": [
        {
          "name": "",
          "type": "uint256"
        }
      ],
      "payable": false,
      "stateMutability": "view",
      "type": "function"
    },
    {
      "constant": false,
      "inputs": [
        {
          "name": "_name",
          "type": "string"
        },
        {
          "name": "_symbol",
          "type": "string"
        },
        {
          "name": "_granularity",
          "type": "uint256"
        },
        {
          "name": "_totalSupply",
          "type": "uint256"
        },
        {
          "name": "_eip820RegistryAddr",
          "type": "address"
        },
        {
          "name": "_owner",
          "type": "address"
        }
      ],
      "name": "initialize",
      "outputs": [],
      "payable": false,
      "stateMutability": "nonpayable",
      "type": "function"
    },
    {
      "constant": true,
      "inputs": [],
      "name": "owner",
      "outputs": [
        {
          "name": "",
          "type": "address"
        }
      ],
      "payable": false,
      "stateMutability": "view",
      "type": "function"
    },
    {
      "constant": false,
      "inputs": [
        {
          "name": "_tokenHolder",
          "type": "address"
        },
        {
          "name": "_value",
          "type": "uint256"
        },
        {
          "name": "_operatorData",
          "type": "bytes"
        }
      ],
      "name": "mint",
      "outputs": [],
      "payable": false,
      "stateMutability": "nonpayable",
      "type": "function"
    },
    {
      "constant": false,
      "inputs": [
        {
          "name": "_operator",
          "type": "address"
        }
      ],
      "name": "authorizeOperator",
      "outputs": [],
      "payable": false,
      "stateMutability": "nonpayable",
      "type": "function"
    },
    {
      "constant": true,
      "inputs": [],
      "name": "symbol",
      "outputs": [
        {
          "name": "",
          "type": "string"
        }
      ],
      "payable": false,
      "stateMutability": "view",
      "type": "function"
    },
    {
      "constant": false,
      "inputs": [
        {
          "name": "_to",
          "type": "address"
        },
        {
          "name": "_value",
          "type": "uint256"
        },
        {
          "name": "_userData",
          "type": "bytes"
        }
      ],
      "name": "send",
      "outputs": [],
      "payable": false,
      "stateMutability": "nonpayable",
      "type": "function"
    },
    {
      "constant": false,
      "inputs": [
        {
          "name": "_tokenHolder",
          "type": "address"
        },
        {
          "name": "_value",
          "type": "uint256"
        }
      ],
      "name": "burn",
      "outputs": [],
      "payable": false,
      "stateMutability": "nonpayable",
      "type": "function"
    },
    {
      "constant": false,
      "inputs": [
        {
          "name": "_to",
          "type": "address"
        },
        {
          "name": "_value",
          "type": "uint256"
        }
      ],
      "name": "transfer",
      "outputs": [
        {
          "name": "success",
          "type": "bool"
        }
      ],
      "payable": false,
      "stateMutability": "nonpayable",
      "type": "function"
    },
    {
      "constant": false,
      "inputs": [
        {
          "name": "_to",
          "type": "address"
        },
        {
          "name": "_value",
          "type": "uint256"
        }
      ],
      "name": "send",
      "outputs": [],
      "payable": false,
      "stateMutability": "nonpayable",
      "type": "function"
    },
    {
      "constant": true,
      "inputs": [
        {
          "name": "_operator",
          "type": "address"
        },
        {
          "name": "_tokenHolder",
          "type": "address"
        }
      ],
      "name": "isOperatorFor",
      "outputs": [
        {
          "name": "",
          "type": "bool"
        }
      ],
      "payable": false,
      "stateMutability": "view",
      "type": "function"
    },
    {
      "constant": true,
      "inputs": [
        {
          "name": "_owner",
          "type": "address"
        },
        {
          "name": "_spender",
          "type": "address"
        }
      ],
      "name": "allowance",
      "outputs": [
        {
          "name": "remaining",
          "type": "uint256"
        }
      ],
      "payable": false,
      "stateMutability": "view",
      "type": "function"
    },
    {
      "constant": false,
      "inputs": [
        {
          "name": "_operator",
          "type": "address"
        },
        {
          "name": "_from",
          "type": "address"
        },
        {
          "name": "_to",
          "type": "address"
        },
        {
          "name": "_value",
          "type": "uint256"
        },
        {
          "name": "_userData",
          "type": "bytes"
        },
        {
          "name": "_operatorData",
          "type": "bytes"
        }
      ],
      "name": "operatorSend",
      "outputs": [],
      "payable": false,
      "stateMutability": "nonpayable",
      "type": "function"
    },
    {
      "constant": false,
      "inputs": [
        {
          "name": "newOwner",
          "type": "address"
        }
      ],
      "name": "transferOwnership",
      "outputs": [],
      "payable": false,
      "stateMutability": "nonpayable",
      "type": "function"
    },
    {
      "constant": false,
      "inputs": [],
      "name": "disableERC20",
      "outputs": [],
      "payable": false,
      "stateMutability": "nonpayable",
      "type": "function"
    },
    {
      "constant": false,
      "inputs": [
        {
          "name": "_operator",
          "type": "address"
        }
      ],
      "name": "revokeOperator",
      "outputs": [],
      "payable": false,
      "stateMutability": "nonpayable",
      "type": "function"
    },
    {
      "inputs": [],
      "payable": false,
      "stateMutability": "nonpayable",
      "type": "constructor"
    },
    {
      "anonymous": false,
      "inputs": [
        {
          "indexed": true,
          "name": "from",
          "type": "address"
        },
        {
          "indexed": true,
          "name": "to",
          "type": "address"
        },
        {
          "indexed": false,
          "name": "amount",
          "type": "uint256"
        },
        {
          "indexed": false,
          "name": "userData",
          "type": "bytes"
        },
        {
          "indexed": true,
          "name": "operator",
          "type": "address"
        },
        {
          "indexed": false,
          "name": "operatorData",
          "type": "bytes"
        }
      ],
      "name": "Sent",
      "type": "event"
    },
    {
      "anonymous": false,
      "inputs": [
        {
          "indexed": true,
          "name": "to",
          "type": "address"
        },
        {
          "indexed": false,
          "name": "amount",
          "type": "uint256"
        },
        {
          "indexed": true,
          "name": "operator",
          "type": "address"
        },
        {
          "indexed": false,
          "name": "operatorData",
          "type": "bytes"
        }
      ],
      "name": "Minted",
      "type": "event"
    },
    {
      "anonymous": false,
      "inputs": [
        {
          "indexed": true,
          "name": "from",
          "type": "address"
        },
        {
          "indexed": false,
          "name": "amount",
          "type": "uint256"
        }
      ],
      "name": "Burnt",
      "type": "event"
    },
    {
      "anonymous": false,
      "inputs": [
        {
          "indexed": true,
          "name": "operator",
          "type": "address"
        },
        {
          "indexed": true,
          "name": "tokenHolder",
          "type": "address"
        }
      ],
      "name": "AuthorizedOperator",
      "type": "event"
    },
    {
      "anonymous": false,
      "inputs": [
        {
          "indexed": true,
          "name": "operator",
          "type": "address"
        },
        {
          "indexed": true,
          "name": "tokenHolder",
          "type": "address"
        }
      ],
      "name": "RevokedOperator",
      "type": "event"
    },
    {
      "anonymous": false,
      "inputs": [
        {
          "indexed": true,
          "name": "from",
          "type": "address"
        },
        {
          "indexed": true,
          "name": "to",
          "type": "address"
        },
        {
          "indexed": false,
          "name": "value",
          "type": "uint256"
        }
      ],
      "name": "Transfer",
      "type": "event"
    },
    {
      "anonymous": false,
      "inputs": [
        {
          "indexed": true,
          "name": "owner",
          "type": "address"
        },
        {
          "indexed": true,
          "name": "spender",
          "type": "address"
        },
        {
          "indexed": false,
          "name": "value",
          "type": "uint256"
        }
      ],
      "name": "Approval",
      "type": "event"
    },
    {
      "anonymous": false,
      "inputs": [
        {
          "indexed": false,
          "name": "previousOwner",
          "type": "address"
        },
        {
          "indexed": false,
          "name": "newOwner",
          "type": "address"
        }
      ],
      "name": "OwnershipTransferred",
      "type": "event"
    },
    {
      "anonymous": false,
      "inputs": [
        {
          "indexed": false,
          "name": "newOwner",
          "type": "address"
        }
      ],
      "name": "OwnerSet",
      "type": "event"
    },
    {
      "constant": false,
      "inputs": [
        {
          "name": "_operator",
          "type": "address"
        },
        {
          "name": "_to",
          "type": "address"
        },
        {
          "name": "_amount",
          "type": "uint256"
        },
        {
          "name": "_userData",
          "type": "bytes"
        }
      ],
      "name": "proxySend",
      "outputs": [],
      "payable": false,
      "stateMutability": "nonpayable",
      "type": "function"
    }
  ],
  "bytecode": "0x608060405234801561001057600080fd5b5061002333640100000000610028810204565b61007c565b60008054600160a060020a038316600160a060020a0319909116811790915560408051918252517f50146d0e3c60aa1d17a70635b05494f864e86144a2201275021014fbf08bafe29181900360200190a150565b611fe08061008b6000396000f3006080604052600436106101455763ffffffff60e060020a60003504166306fdde03811461014a578063070c87f9146101d4578063095ea7b3146101eb578063158ef93e1461022357806318160ddd1461023857806323b872dd1461025f578063313ce5671461028957806347980aa3146102b4578063556f0dc7146102d857806362ad1b83146102ed57806370a082311461039a578063767ab122146103bb5780638da5cb5b1461047157806394d008ef146104a2578063959b8c3f1461050b57806395d89b411461052c5780639bd9bbc6146105415780639dc29fac146105aa578063a9059cbb146105ce578063d0679d34146105f2578063d95b637114610616578063dd62ed3e1461063d578063e51c090e14610664578063ee91444c146106d3578063f2fde38b1461078c578063f922f216146107ad578063fad8b32a146107c2575b600080fd5b34801561015657600080fd5b5061015f6107e3565b6040805160208082528351818301528351919283929083019185019080838360005b83811015610199578181015183820152602001610181565b50505050905090810190601f1680156101c65780820380516001836020036101000a031916815260200191505b509250505060405180910390f35b3480156101e057600080fd5b506101e9610877565b005b3480156101f757600080fd5b5061020f600160a060020a03600435166024356108e1565b604080519115158252519081900360200190f35b34801561022f57600080fd5b5061020f610961565b34801561024457600080fd5b5061024d61096a565b60408051918252519081900360200190f35b34801561026b57600080fd5b5061020f600160a060020a0360043581169060243516604435610970565b34801561029557600080fd5b5061029e610a46565b6040805160ff9092168252519081900360200190f35b3480156102c057600080fd5b506101e9600160a060020a0360043516602435610a65565b3480156102e457600080fd5b5061024d610b50565b3480156102f957600080fd5b50604080516020601f6064356004818101359283018490048402850184019095528184526101e994600160a060020a03813581169560248035909216956044359536956084940191819084018382808284375050604080516020601f89358b018035918201839004830284018301909452808352979a999881019791965091820194509250829150840183828082843750949750610b569650505050505050565b3480156103a657600080fd5b5061024d600160a060020a0360043516610b6b565b3480156103c757600080fd5b506040805160206004803580820135601f81018490048402850184019095528484526101e994369492936024939284019190819084018382808284375050604080516020601f89358b018035918201839004830284018301909452808352979a99988101979196509182019450925082915084018382808284375094975050843595505050602083013592600160a060020a03604082013581169350606090910135169050610b86565b34801561047d57600080fd5b50610486610c8a565b60408051600160a060020a039092168252519081900360200190f35b3480156104ae57600080fd5b50604080516020600460443581810135601f81018490048402850184019095528484526101e9948235600160a060020a0316946024803595369594606494920191908190840183828082843750949750610c999650505050505050565b34801561051757600080fd5b506101e9600160a060020a0360043516610e37565b34801561053857600080fd5b5061015f610ea6565b34801561054d57600080fd5b50604080516020600460443581810135601f81018490048402850184019095528484526101e9948235600160a060020a0316946024803595369594606494920191908190840183828082843750949750610f079650505050505050565b3480156105b657600080fd5b506101e9600160a060020a0360043516602435610f27565b3480156105da57600080fd5b5061020f600160a060020a036004351660243561104e565b3480156105fe57600080fd5b506101e9600160a060020a03600435166024356110a0565b34801561062257600080fd5b5061020f600160a060020a03600435811690602435166110d0565b34801561064957600080fd5b5061024d600160a060020a036004358116906024351661111e565b34801561067057600080fd5b50604080516020601f6064356004818101359283018490048402850184019095528184526101e994600160a060020a0381358116956024803590921695604435953695608494019181908401838280828437509497506111639650505050505050565b3480156106df57600080fd5b50604080516020601f6084356004818101359283018490048402850184019095528184526101e994600160a060020a03813581169560248035831696604435909316956064359536959460a49493919091019190819084018382808284375050604080516020601f89358b018035918201839004830284018301909452808352979a9998810197919650918201945092508291508401838280828437509497506111899650505050505050565b34801561079857600080fd5b506101e9600160a060020a03600435166111b6565b3480156107b957600080fd5b506101e961123e565b3480156107ce57600080fd5b506101e9600160a060020a03600435166112a3565b60028054604080516020601f600019610100600187161502019094168590049384018190048102820181019092528281526060939092909183018282801561086c5780601f106108415761010080835404028352916020019161086c565b820191906000526020600020905b81548152906001019060200180831161084f57829003601f168201915b505050505090505b90565b61087f610c8a565b600160a060020a0316331461089357600080fd5b6006805461ff001916610100178155604080518082019091529081527f496572633230000000000000000000000000000000000000000000000000000060208201526108df9030611322565b565b600654600090610100900460ff1615156108fa57600080fd5b336000818152600960209081526040808320600160a060020a03881680855290835292819020869055805186815290519293927f8c5be1e5ebec7d5bd14f71427d1e84f3dd0314c0f7b2291e5b200ac8c7c3b925929181900390910190a350600192915050565b60065460ff1690565b60055490565b600654600090610100900460ff16151561098957600080fd5b600160a060020a03841660009081526009602090815260408083203384529091529020548211156109b957600080fd5b600160a060020a03841660009081526009602090815260408083203384529091529020546109ed908363ffffffff61141116565b600160a060020a03851660009081526009602090815260408083203380855290835281842094909455805180830182528381528151928301909152828252610a3c938893889388939291611423565b5060019392505050565b600654600090610100900460ff161515610a5f57600080fd5b50601290565b600160a060020a038216331415610a7b57600080fd5b336000818152600960209081526040808320600160a060020a0387168452825280832085905560088252808320848452825291829020805460ff191660019081179091558251808401845260038082527f3078300000000000000000000000000000000000000000000000000000000000828501819052855180870190965290855292840192909252610b1693869390928492879290611684565b6040513390600160a060020a038416907ff4caeb2d6ca8932a215a353d0703c326ec2d81fc68170f320eb2ab49e9df61f990600090a35050565b60045490565b610b64338686868686611189565b5050505050565b600160a060020a031660009081526007602052604090205490565b60065460ff1615610b9657600080fd5b8551610ba9906002906020890190611f1c565b508451610bbd906003906020880190611f1c565b5060058390556006805461ff0019166101001790556001841015610be057600080fd5b6004849055610bee8161187f565b610bf7826118e0565b610c366040805190810160405280600781526020017f494549503737370000000000000000000000000000000000000000000000000081525030611322565b610c756040805190810160405280600681526020017f496572633230000000000000000000000000000000000000000000000000000081525030611322565b50506006805460ff1916600117905550505050565b600054600160a060020a031690565b610ca28261190f565b600554610cb5908363ffffffff61194c16565b600555600160a060020a038316600090815260076020526040902054610ce1908363ffffffff61194c16565b6007600085600160a060020a0316600160a060020a0316815260200190815260200160002081905550610d2b33600085856020604051908101604052806000815250866001611966565b33600160a060020a031683600160a060020a03167ffedc9d3d7d2dc09d33f2454ca41b1ef178b3bbf37b69fa47d602a8738d5ebdba84846040518083815260200180602001828103825283818151815260200191508051906020019080838360005b83811015610da5578181015183820152602001610d8d565b50505050905090810190601f168015610dd25780820380516001836020036101000a031916815260200191505b50935050505060405180910390a3600654610100900460ff1615610e3257604080518381529051600160a060020a038516916000917fddf252ad1be2c89b69c2b068fc378daa952ba7f163c4a11628f55a4df523b3ef9181900360200190a35b505050565b600160a060020a038116331415610e4d57600080fd5b600160a060020a0381166000818152600860209081526040808320338085529252808320805460ff19166001179055519092917ff4caeb2d6ca8932a215a353d0703c326ec2d81fc68170f320eb2ab49e9df61f991a350565b60038054604080516020601f600260001961010060018816150201909516949094049384018190048102820181019092528281526060939092909183018282801561086c5780601f106108415761010080835404028352916020019161086c565b610e32338484843360206040519081016040528060008152506001611423565b610f2f610c8a565b600160a060020a03163314610f4357600080fd5b610f4c8161190f565b80610f5683610b6b565b1015610f6157600080fd5b600160a060020a038216600090815260076020526040902054610f8a908263ffffffff61141116565b600160a060020a038316600090815260076020526040902055600554610fb6908263ffffffff61141116565b600555604080518281529051600160a060020a038416917f919f7e2092ffcc9d09f599be18d8152860b0c054df788a33bc549cdd9d0f15b1919081900360200190a2600654610100900460ff161561104a57604080518281529051600091600160a060020a038516917fddf252ad1be2c89b69c2b068fc378daa952ba7f163c4a11628f55a4df523b3ef9181900360200190a35b5050565b600654600090610100900460ff16151561106757600080fd5b61109733848460206040519081016040528060008152503360206040519081016040528060008152506000611423565b50600192915050565b61104a33838360206040519081016040528060008152503360206040519081016040528060008152506001611423565b600081600160a060020a031683600160a060020a031614806111175750600160a060020a0380841660009081526008602090815260408083209386168352929052205460ff165b9392505050565b600654600090610100900460ff16151561113757600080fd5b50600160a060020a03918216600090815260096020908152604080832093909416825291909152205490565b61116c84610e37565b61117a848484846001611a6c565b611183846112a3565b50505050565b61119386866110d0565b151561119e57600080fd5b6111ae8585858533866000611423565b505050505050565b6111be610c8a565b600160a060020a031633146111d257600080fd5b600160a060020a03811615156111e757600080fd5b7f8be0079c531659141344cd1fd0a4f28419497f9722a3daafe3b4186f6b6457e0611210610c8a565b60408051600160a060020a03928316815291841660208301528051918290030190a161123b8161187f565b50565b611246610c8a565b600160a060020a0316331461125a57600080fd5b6006805461ff0019168155604080518082019091529081527f496572633230000000000000000000000000000000000000000000000000000060208201526108df906000611322565b600160a060020a0381163314156112b957600080fd5b336000818152600960209081526040808320600160a060020a03861680855290835281842084905560088352818420858552909252808320805460ff191690555190917f50546e66e5f44d728365dc3908c63bc5cfeeab470722c1677e3073a6ac294aa191a350565b6000826040518082805190602001908083835b602083106113545780518252601f199092019160209182019101611335565b5181516020939093036101000a6000190180199091169216919091179052604080519190930181900381206001547f29965a1d00000000000000000000000000000000000000000000000000000000835230600484015260248301829052600160a060020a03898116604485015294519197509390931694506329965a1d9350606480820193600093509182900301818387803b1580156113f457600080fd5b505af1158015611408573d6000803e3d6000fd5b50505050505050565b60008282111561141d57fe5b50900390565b61142c8561190f565b61143a838888888887611bd7565b600160a060020a038616151561144f57600080fd5b600160a060020a03871660009081526007602052604090205485111561147457600080fd5b600160a060020a03871660009081526007602052604090205461149d908663ffffffff61141116565b600160a060020a0380891660009081526007602052604080822093909355908816815220546114d2908663ffffffff61194c16565b600160a060020a0387166000908152600760205260409020556114fa83888888888787611966565b82600160a060020a031686600160a060020a031688600160a060020a03167fc6bcce9531825c4f1772efa373d6fa8ccb63064ff1fd841aa151c8e8dd9bb39b888887604051808481526020018060200180602001838103835285818151815260200191508051906020019080838360005b8381101561158357818101518382015260200161156b565b50505050905090810190601f1680156115b05780820380516001836020036101000a031916815260200191505b50838103825284518152845160209182019186019080838360005b838110156115e35781810151838201526020016115cb565b50505050905090810190601f1680156116105780820380516001836020036101000a031916815260200191505b509550505050505060405180910390a4600654610100900460ff16156114085785600160a060020a031687600160a060020a03167fddf252ad1be2c89b69c2b068fc378daa952ba7f163c4a11628f55a4df523b3ef876040518082815260200191505060405180910390a350505050505050565b60006116c5866040805190810160405280601581526020017f49454950373737546f6b656e734f70657261746f720000000000000000000000815250611db2565b9050600160a060020a0381161561185b5780600160a060020a03166332035ca68989898989896040518763ffffffff1660e060020a0281526004018087600160a060020a0316600160a060020a0316815260200186600160a060020a0316600160a060020a0316815260200185600160a060020a0316600160a060020a031681526020018481526020018060200180602001838103835285818151815260200191508051906020019080838360005b8381101561178c578181015183820152602001611774565b50505050905090810190601f1680156117b95780820380516001836020036101000a031916815260200191505b50838103825284518152845160209182019186019080838360005b838110156117ec5781810151838201526020016117d4565b50505050905090810190601f1680156118195780820380516001836020036101000a031916815260200191505b5098505050505050505050600060405180830381600087803b15801561183e57600080fd5b505af1158015611852573d6000803e3d6000fd5b50505050611875565b81156118755761186a86611eb0565b151561187557600080fd5b5050505050505050565b60008054600160a060020a03831673ffffffffffffffffffffffffffffffffffffffff19909116811790915560408051918252517f50146d0e3c60aa1d17a70635b05494f864e86144a2201275021014fbf08bafe29181900360200190a150565b6001805473ffffffffffffffffffffffffffffffffffffffff1916600160a060020a0392909216919091179055565b6000811180156119415750600454819061193f90611933838263ffffffff611eda16565b9063ffffffff611ef116565b145b151561123b57600080fd5b60008282018381101561195b57fe5b8091505b5092915050565b60006119a7866040805190810160405280601681526020017f49454950373737546f6b656e73526563697069656e7400000000000000000000815250611db2565b9050600160a060020a0381161561185b5780600160a060020a03166223de298989898989896040518763ffffffff1660e060020a0281526004018087600160a060020a0316600160a060020a0316815260200186600160a060020a0316600160a060020a0316815260200185600160a060020a0316600160a060020a031681526020018481526020018060200180602001838103835285818151815260200191508051906020019080838360008381101561178c578181015183820152602001611774565b6000611aad866040805190810160405280600d81526020017f4950726f78795061796d656e7400000000000000000000000000000000000000815250611db2565b9050600160a060020a03811615611bbd576040517fe51c090e0000000000000000000000000000000000000000000000000000000081523360048201818152600160a060020a038881166024850152604484018890526080606485019081528751608486015287519186169463e51c090e94938b938b938b93909160a490910190602085019080838360005b83811015611b51578181015183820152602001611b39565b50505050905090810190601f168015611b7e5780820380516001836020036101000a031916815260200191505b5095505050505050600060405180830381600087803b158015611ba057600080fd5b505af1158015611bb4573d6000803e3d6000fd5b505050506111ae565b81156111ae57611bcc85611eb0565b15156111ae57600080fd5b6000611c18866040805190810160405280601381526020017f49454950373737546f6b656e7353656e64657200000000000000000000000000815250611db2565b9050600160a060020a038116156114085780600160a060020a03166375ab97828888888888886040518763ffffffff1660e060020a0281526004018087600160a060020a0316600160a060020a0316815260200186600160a060020a0316600160a060020a0316815260200185600160a060020a0316600160a060020a031681526020018481526020018060200180602001838103835285818151815260200191508051906020019080838360005b83811015611cdf578181015183820152602001611cc7565b50505050905090810190601f168015611d0c5780820380516001836020036101000a031916815260200191505b50838103825284518152845160209182019186019080838360005b83811015611d3f578181015183820152602001611d27565b50505050905090810190601f168015611d6c5780820380516001836020036101000a031916815260200191505b5098505050505050505050600060405180830381600087803b158015611d9157600080fd5b505af1158015611da5573d6000803e3d6000fd5b5050505050505050505050565b600080826040518082805190602001908083835b60208310611de55780518252601f199092019160209182019101611dc6565b51815160209384036101000a6000190180199092169116179052604080519290940182900382206001547faabbb8ca000000000000000000000000000000000000000000000000000000008452600160a060020a038c8116600486015260248501839052955191985094909416955063aabbb8ca945060448083019491935090918290030181600087803b158015611e7c57600080fd5b505af1158015611e90573d6000803e3d6000fd5b505050506040513d6020811015611ea657600080fd5b5051949350505050565b600080600160a060020a0383161515611ecc5760009150611ed4565b5050803b8015905b50919050565b6000808284811515611ee857fe5b04949350505050565b600080831515611f04576000915061195f565b50828202828482811515611f1457fe5b041461195b57fe5b828054600181600116156101000203166002900490600052602060002090601f016020900481019282601f10611f5d57805160ff1916838001178555611f8a565b82800160010185558215611f8a579182015b82811115611f8a578251825591602001919060010190611f6f565b50611f96929150611f9a565b5090565b61087491905b80821115611f965760008155600101611fa05600a165627a7a72305820afe7169ec2a650a6713e7b71ba7e9bf8f7b6b6e5f036ac940b8aceaf1bbc92f00029",
  "source": "pragma solidity ^0.4.23;\nimport \"../EIP777/DEPREACATEDBasic777.sol\";\nimport \"../payment/IProxyPayment.sol\";\n\n// to be deprecated\ncontract KryptoX777V0_1_0 is DEPREACATEDBasic777 {\n\n  constructor(){\n\n  }\n\n  // constructor(\n  //   string _name,\n  //   string _symbol,\n  //   uint256 _granularity,\n  //   uint256 _totalSupply,\n  //   address _eip820RegistryAddr\n  // ) public DEPREACATEDBasic777(\n  //   _name,\n  //   _symbol, \n  //   _granularity, \n  //   _totalSupply, \n  //   _eip820RegistryAddr\n  // ) {\n  //   //Delegate constructor\n  // }\n\n  function proxySend(\n    address _operator, \n    address _to, \n    uint _amount, \n    bytes _userData\n  ) public {\n    authorizeOperator(_operator);\n    //todo find best practice for using preventlocking instead of hardcoding true below\n    callProxy(\n      _operator, \n      _to, \n      _amount, \n      _userData, \n      true\n    );\n    revokeOperator(_operator);\n  }\n\n  function callProxy(\n    address _operator,\n    address _to,\n    uint256 _amount,\n    bytes _userData,\n    bool _preventLocking\n  ) private {\n    //require(_approvedFor(_operator, _tokenId));\n    address recipientImplementation = interfaceAddr(_operator, \"IProxyPayment\");\n    if (recipientImplementation != 0) {\n      IProxyPayment(recipientImplementation).proxySend(\n        msg.sender, \n        _to, \n        _amount, \n        _userData\n      );\n    } else if (_preventLocking) {\n      require(isRegularAddress(_to));\n    }\n  }\n}",
  "sourcePath": "/home/ubuntu/dev/Kryptopal/kryptopal-contracts/contracts/token/KryptoX777V0_1_0.sol",
  "compiler": {
    "name": "solc",
    "version": "0.4.24+commit.e67f0147.Emscripten.clang"
  },
  "schemaVersion": "2.0.1",
  "updatedAt": "2018-07-19T05:20:24.003Z"
}