{
  "contractName": "MultiAdmin",
  "abi": [
    {
      "constant": true,
      "inputs": [
        {
          "name": "",
          "type": "uint256"
        }
      ],
      "name": "owners",
      "outputs": [
        {
          "name": "",
          "type": "address"
        }
      ],
      "payable": false,
      "stateMutability": "view",
      "type": "function"
    },
    {
      "constant": true,
      "inputs": [
        {
          "name": "",
          "type": "address"
        }
      ],
      "name": "isOwner",
      "outputs": [
        {
          "name": "",
          "type": "bool"
        }
      ],
      "payable": false,
      "stateMutability": "view",
      "type": "function"
    },
    {
      "constant": true,
      "inputs": [
        {
          "name": "",
          "type": "uint256"
        },
        {
          "name": "",
          "type": "address"
        }
      ],
      "name": "confirmations",
      "outputs": [
        {
          "name": "",
          "type": "bool"
        }
      ],
      "payable": false,
      "stateMutability": "view",
      "type": "function"
    },
    {
      "constant": true,
      "inputs": [
        {
          "name": "",
          "type": "uint256"
        }
      ],
      "name": "transactions",
      "outputs": [
        {
          "name": "destination",
          "type": "address"
        },
        {
          "name": "value",
          "type": "uint256"
        },
        {
          "name": "data",
          "type": "bytes"
        },
        {
          "name": "executed",
          "type": "bool"
        }
      ],
      "payable": false,
      "stateMutability": "view",
      "type": "function"
    },
    {
      "constant": true,
      "inputs": [],
      "name": "tokenReceiver",
      "outputs": [
        {
          "name": "",
          "type": "bool"
        }
      ],
      "payable": false,
      "stateMutability": "view",
      "type": "function"
    },
    {
      "constant": true,
      "inputs": [],
      "name": "transactionCount",
      "outputs": [
        {
          "name": "",
          "type": "uint256"
        }
      ],
      "payable": false,
      "stateMutability": "view",
      "type": "function"
    },
    {
      "constant": true,
      "inputs": [],
      "name": "MAX_OWNER_COUNT",
      "outputs": [
        {
          "name": "",
          "type": "uint256"
        }
      ],
      "payable": false,
      "stateMutability": "view",
      "type": "function"
    },
    {
      "constant": true,
      "inputs": [],
      "name": "required",
      "outputs": [
        {
          "name": "",
          "type": "uint256"
        }
      ],
      "payable": false,
      "stateMutability": "view",
      "type": "function"
    },
    {
      "inputs": [
        {
          "name": "_owners",
          "type": "address[]"
        },
        {
          "name": "_required",
          "type": "uint256"
        },
        {
          "name": "_eip820RegistryAddr",
          "type": "address"
        }
      ],
      "payable": false,
      "stateMutability": "nonpayable",
      "type": "constructor"
    },
    {
      "payable": true,
      "stateMutability": "payable",
      "type": "fallback"
    },
    {
      "anonymous": false,
      "inputs": [
        {
          "indexed": true,
          "name": "sender",
          "type": "address"
        },
        {
          "indexed": true,
          "name": "transactionId",
          "type": "uint256"
        }
      ],
      "name": "Confirmation",
      "type": "event"
    },
    {
      "anonymous": false,
      "inputs": [
        {
          "indexed": true,
          "name": "sender",
          "type": "address"
        },
        {
          "indexed": true,
          "name": "transactionId",
          "type": "uint256"
        }
      ],
      "name": "Revocation",
      "type": "event"
    },
    {
      "anonymous": false,
      "inputs": [
        {
          "indexed": true,
          "name": "transactionId",
          "type": "uint256"
        }
      ],
      "name": "Submission",
      "type": "event"
    },
    {
      "anonymous": false,
      "inputs": [
        {
          "indexed": true,
          "name": "transactionId",
          "type": "uint256"
        }
      ],
      "name": "Execution",
      "type": "event"
    },
    {
      "anonymous": false,
      "inputs": [
        {
          "indexed": true,
          "name": "transactionId",
          "type": "uint256"
        }
      ],
      "name": "ExecutionFailure",
      "type": "event"
    },
    {
      "anonymous": false,
      "inputs": [
        {
          "indexed": true,
          "name": "sender",
          "type": "address"
        },
        {
          "indexed": false,
          "name": "value",
          "type": "uint256"
        }
      ],
      "name": "Deposit",
      "type": "event"
    },
    {
      "anonymous": false,
      "inputs": [
        {
          "indexed": true,
          "name": "owner",
          "type": "address"
        }
      ],
      "name": "OwnerAddition",
      "type": "event"
    },
    {
      "anonymous": false,
      "inputs": [
        {
          "indexed": true,
          "name": "owner",
          "type": "address"
        }
      ],
      "name": "OwnerRemoval",
      "type": "event"
    },
    {
      "anonymous": false,
      "inputs": [
        {
          "indexed": false,
          "name": "required",
          "type": "uint256"
        }
      ],
      "name": "RequirementChange",
      "type": "event"
    },
    {
      "anonymous": false,
      "inputs": [
        {
          "indexed": false,
          "name": "operator",
          "type": "address"
        },
        {
          "indexed": false,
          "name": "from",
          "type": "address"
        },
        {
          "indexed": false,
          "name": "to",
          "type": "address"
        },
        {
          "indexed": false,
          "name": "amount",
          "type": "uint256"
        },
        {
          "indexed": false,
          "name": "userData",
          "type": "bytes"
        },
        {
          "indexed": false,
          "name": "operatorData",
          "type": "bytes"
        }
      ],
      "name": "ReceivedTokens",
      "type": "event"
    },
    {
      "constant": true,
      "inputs": [
        {
          "name": "",
          "type": "address"
        },
        {
          "name": "",
          "type": "bytes32"
        }
      ],
      "name": "canImplementInterfaceForAddress",
      "outputs": [
        {
          "name": "",
          "type": "bytes32"
        }
      ],
      "payable": false,
      "stateMutability": "view",
      "type": "function"
    },
    {
      "constant": false,
      "inputs": [
        {
          "name": "operator",
          "type": "address"
        },
        {
          "name": "from",
          "type": "address"
        },
        {
          "name": "to",
          "type": "address"
        },
        {
          "name": "amount",
          "type": "uint256"
        },
        {
          "name": "userData",
          "type": "bytes"
        },
        {
          "name": "operatorData",
          "type": "bytes"
        }
      ],
      "name": "tokensReceived",
      "outputs": [],
      "payable": false,
      "stateMutability": "nonpayable",
      "type": "function"
    },
    {
      "constant": false,
      "inputs": [
        {
          "name": "_toggle",
          "type": "bool"
        }
      ],
      "name": "toggleTokenReceiver",
      "outputs": [],
      "payable": false,
      "stateMutability": "nonpayable",
      "type": "function"
    },
    {
      "constant": false,
      "inputs": [
        {
          "name": "owner",
          "type": "address"
        }
      ],
      "name": "addOwner",
      "outputs": [],
      "payable": false,
      "stateMutability": "nonpayable",
      "type": "function"
    },
    {
      "constant": false,
      "inputs": [
        {
          "name": "owner",
          "type": "address"
        }
      ],
      "name": "removeOwner",
      "outputs": [],
      "payable": false,
      "stateMutability": "nonpayable",
      "type": "function"
    },
    {
      "constant": false,
      "inputs": [
        {
          "name": "owner",
          "type": "address"
        },
        {
          "name": "newOwner",
          "type": "address"
        }
      ],
      "name": "replaceOwner",
      "outputs": [],
      "payable": false,
      "stateMutability": "nonpayable",
      "type": "function"
    },
    {
      "constant": false,
      "inputs": [
        {
          "name": "_required",
          "type": "uint256"
        }
      ],
      "name": "changeRequirement",
      "outputs": [],
      "payable": false,
      "stateMutability": "nonpayable",
      "type": "function"
    },
    {
      "constant": false,
      "inputs": [
        {
          "name": "destination",
          "type": "address"
        },
        {
          "name": "value",
          "type": "uint256"
        },
        {
          "name": "data",
          "type": "bytes"
        }
      ],
      "name": "submitTransaction",
      "outputs": [
        {
          "name": "transactionId",
          "type": "uint256"
        }
      ],
      "payable": false,
      "stateMutability": "nonpayable",
      "type": "function"
    },
    {
      "constant": false,
      "inputs": [
        {
          "name": "transactionId",
          "type": "uint256"
        }
      ],
      "name": "confirmTransaction",
      "outputs": [],
      "payable": false,
      "stateMutability": "nonpayable",
      "type": "function"
    },
    {
      "constant": false,
      "inputs": [
        {
          "name": "transactionId",
          "type": "uint256"
        }
      ],
      "name": "revokeConfirmation",
      "outputs": [],
      "payable": false,
      "stateMutability": "nonpayable",
      "type": "function"
    },
    {
      "constant": false,
      "inputs": [
        {
          "name": "transactionId",
          "type": "uint256"
        }
      ],
      "name": "executeTransaction",
      "outputs": [],
      "payable": false,
      "stateMutability": "nonpayable",
      "type": "function"
    },
    {
      "constant": true,
      "inputs": [
        {
          "name": "transactionId",
          "type": "uint256"
        }
      ],
      "name": "isConfirmed",
      "outputs": [
        {
          "name": "",
          "type": "bool"
        }
      ],
      "payable": false,
      "stateMutability": "view",
      "type": "function"
    },
    {
      "constant": true,
      "inputs": [
        {
          "name": "transactionId",
          "type": "uint256"
        }
      ],
      "name": "getConfirmationCount",
      "outputs": [
        {
          "name": "count",
          "type": "uint256"
        }
      ],
      "payable": false,
      "stateMutability": "view",
      "type": "function"
    },
    {
      "constant": true,
      "inputs": [
        {
          "name": "pending",
          "type": "bool"
        },
        {
          "name": "executed",
          "type": "bool"
        }
      ],
      "name": "getTransactionCount",
      "outputs": [
        {
          "name": "count",
          "type": "uint256"
        }
      ],
      "payable": false,
      "stateMutability": "view",
      "type": "function"
    },
    {
      "constant": true,
      "inputs": [],
      "name": "getOwners",
      "outputs": [
        {
          "name": "",
          "type": "address[]"
        }
      ],
      "payable": false,
      "stateMutability": "view",
      "type": "function"
    },
    {
      "constant": true,
      "inputs": [
        {
          "name": "transactionId",
          "type": "uint256"
        }
      ],
      "name": "getConfirmations",
      "outputs": [
        {
          "name": "_confirmations",
          "type": "address[]"
        }
      ],
      "payable": false,
      "stateMutability": "view",
      "type": "function"
    },
    {
      "constant": true,
      "inputs": [
        {
          "name": "from",
          "type": "uint256"
        },
        {
          "name": "to",
          "type": "uint256"
        },
        {
          "name": "pending",
          "type": "bool"
        },
        {
          "name": "executed",
          "type": "bool"
        }
      ],
      "name": "getTransactionIds",
      "outputs": [
        {
          "name": "_transactionIds",
          "type": "uint256[]"
        }
      ],
      "payable": false,
      "stateMutability": "view",
      "type": "function"
    }
  ],
  "bytecode": "0x60806040523480156200001157600080fd5b5060405162001c9538038062001c958339810160409081528151602083015191830151920180519092906000908360328211801590620000515750818111155b80156200005d57508015155b80156200006957508115155b15156200007557600080fd5b600092505b85518310156200014d576003600087858151811015156200009757fe5b6020908102909101810151600160a060020a031682528101919091526040016000205460ff16158015620000ed57508583815181101515620000d557fe5b90602001906020020151600160a060020a0316600014155b1515620000f957600080fd5b60016003600088868151811015156200010e57fe5b602090810291909101810151600160a060020a03168252810191909152604001600020805460ff1916911515919091179055600192909201916200007a565b8551620001629060049060208901906200030c565b5060058590556200017c846401000000006200019d810204565b620001916001640100000000620001bf810204565b505050505050620003a0565b60008054600160a060020a031916600160a060020a0392909216919091179055565b6007805460ff191682151517905560408051808201909152601681527f49454950373737546f6b656e73526563697069656e7400000000000000000000602082015262000216903064010000000062000219810204565b50565b6000826040518082805190602001908083835b602083106200024d5780518252601f1990920191602091820191016200022c565b5181516020939093036101000a600019018019909116921691909117905260408051919093018190038120600080547f29965a1d00000000000000000000000000000000000000000000000000000000845230600485015260248401839052600160a060020a038a8116604486015295519298509490941695506329965a1d94506064808301949350909182900301818387803b158015620002ee57600080fd5b505af115801562000303573d6000803e3d6000fd5b50505050505050565b82805482825590600052602060002090810192821562000364579160200282015b82811115620003645782518254600160a060020a031916600160a060020a039091161782556020909201916001909101906200032d565b506200037292915062000376565b5090565b6200039d91905b8082111562000372578054600160a060020a03191681556001016200037d565b90565b6118e580620003b06000396000f3006080604052600436106101475763ffffffff7c010000000000000000000000000000000000000000000000000000000060003504166223de298114610189578063025e7c2714610242578063173825d91461027657806320ea8d86146102975780632f54bf6e146102af5780633411c81c146102e457806354741525146103085780637065cb4814610339578063784547a71461035a5780638b51d13f146103725780639ace38c21461038a578063a0e67e2b14610445578063a3e295bc146104aa578063a8abe69a146104bf578063b5dc40c3146104e4578063b77bf600146104fc578063ba51a6df14610511578063c01a8c8414610529578063c642747414610541578063d74f8edd146105aa578063dc8452cd146105bf578063de0b79ea146105d4578063e20056e6146105ee578063ee22610b14610615578063f00832501461062d575b60003411156101875760408051348152905133917fe1fffcc4923d04b559f4d29a8bfc6cda04eb5b0d3c460751c2402c5c5cc9109c919081900360200190a25b005b34801561019557600080fd5b50604080516020601f60843560048181013592830184900484028501840190955281845261018794600160a060020a03813581169560248035831696604435909316956064359536959460a49493919091019190819084018382808284375050604080516020601f89358b018035918201839004830284018301909452808352979a9998810197919650918201945092508291508401838280828437509497506106519650505050505050565b34801561024e57600080fd5b5061025a6004356107c0565b60408051600160a060020a039092168252519081900360200190f35b34801561028257600080fd5b50610187600160a060020a03600435166107e8565b3480156102a357600080fd5b5061018760043561095f565b3480156102bb57600080fd5b506102d0600160a060020a0360043516610a19565b604080519115158252519081900360200190f35b3480156102f057600080fd5b506102d0600435600160a060020a0360243516610a2e565b34801561031457600080fd5b5061032760043515156024351515610a4e565b60408051918252519081900360200190f35b34801561034557600080fd5b50610187600160a060020a0360043516610aba565b34801561036657600080fd5b506102d0600435610bdf565b34801561037e57600080fd5b50610327600435610c63565b34801561039657600080fd5b506103a2600435610cd2565b6040518085600160a060020a0316600160a060020a031681526020018481526020018060200183151515158152602001828103825284818151815260200191508051906020019080838360005b838110156104075781810151838201526020016103ef565b50505050905090810190601f1680156104345780820380516001836020036101000a031916815260200191505b509550505050505060405180910390f35b34801561045157600080fd5b5061045a610d8e565b60408051602080825283518183015283519192839290830191858101910280838360005b8381101561049657818101518382015260200161047e565b505050509050019250505060405180910390f35b3480156104b657600080fd5b506102d0610df1565b3480156104cb57600080fd5b5061045a60043560243560443515156064351515610dfa565b3480156104f057600080fd5b5061045a600435610f33565b34801561050857600080fd5b506103276110ac565b34801561051d57600080fd5b506101876004356110b2565b34801561053557600080fd5b50610187600435611131565b34801561054d57600080fd5b50604080516020600460443581810135601f8101849004840285018401909552848452610327948235600160a060020a03169460248035953695946064949201919081908401838280828437509497506111fa9650505050505050565b3480156105b657600080fd5b50610327611219565b3480156105cb57600080fd5b5061032761121e565b3480156105e057600080fd5b506101876004351515611224565b3480156105fa57600080fd5b50610187600160a060020a0360043581169060243516611273565b34801561062157600080fd5b506101876004356113fd565b34801561063957600080fd5b50610327600160a060020a03600435166024356115ba565b60075460ff16151561066257600080fd5b7febd4fa6a0a7c7ce84af5e1ad6e1fa013f744f3db66311c33c185d8a80ab442078686868686866040518087600160a060020a0316600160a060020a0316815260200186600160a060020a0316600160a060020a0316815260200185600160a060020a0316600160a060020a031681526020018481526020018060200180602001838103835285818151815260200191508051906020019080838360005b83811015610718578181015183820152602001610700565b50505050905090810190601f1680156107455780820380516001836020036101000a031916815260200191505b50838103825284518152845160209182019186019080838360005b83811015610778578181015183820152602001610760565b50505050905090810190601f1680156107a55780820380516001836020036101000a031916815260200191505b509850505050505050505060405180910390a1505050505050565b60048054829081106107ce57fe5b600091825260209091200154600160a060020a0316905081565b60003330146107f657600080fd5b600160a060020a038216600090815260036020526040902054829060ff16151561081f57600080fd5b600160a060020a0383166000908152600360205260408120805460ff1916905591505b600454600019018210156108fa5782600160a060020a031660048381548110151561086957fe5b600091825260209091200154600160a060020a031614156108ef5760048054600019810190811061089657fe5b60009182526020909120015460048054600160a060020a0390921691849081106108bc57fe5b9060005260206000200160006101000a815481600160a060020a030219169083600160a060020a031602179055506108fa565b600190910190610842565b60048054600019019061090d90826117f8565b50600454600554111561092657600454610926906110b2565b604051600160a060020a038416907f8001553a916ef2f495d26a907cc54d96ed840d7bda71e73194bf5a9df7a76b9090600090a2505050565b3360008181526003602052604090205460ff16151561097d57600080fd5b60008281526002602090815260408083203380855292529091205483919060ff1615156109a957600080fd5b600084815260016020526040902060030154849060ff16156109ca57600080fd5b6000858152600260209081526040808320338085529252808320805460ff191690555187927ff6a317157440607f36269043eb55f1287a5a19ba2216afeab88cd46cbcfb88e991a35050505050565b60036020526000908152604090205460ff1681565b600260209081526000928352604080842090915290825290205460ff1681565b6000805b600654811015610ab357838015610a7b575060008181526001602052604090206003015460ff16155b80610a9f5750828015610a9f575060008181526001602052604090206003015460ff165b15610aab576001820191505b600101610a52565b5092915050565b333014610ac657600080fd5b600160a060020a038116600090815260036020526040902054819060ff1615610aee57600080fd5b81600160a060020a0381161515610b0457600080fd5b60048054905060010160055460328211158015610b215750818111155b8015610b2c57508015155b8015610b3757508115155b1515610b4257600080fd5b600160a060020a038516600081815260036020526040808220805460ff1916600190811790915560048054918201815583527f8a35acfbc15ff81a39ae7d344fd709f28e8600b4aa8c65c6b64bfe7fe36bd19b01805473ffffffffffffffffffffffffffffffffffffffff191684179055517ff39e6e1eb0edcf53c221607b54b00cd28f3196fed0a24994dc308b8f611b682d9190a25050505050565b600080805b600454811015610c5c5760008481526002602052604081206004805491929184908110610c0d57fe5b6000918252602080832090910154600160a060020a0316835282019290925260400190205460ff1615610c41576001820191505b600554821415610c545760019250610c5c565b600101610be4565b5050919050565b6000805b600454811015610ccc5760008381526002602052604081206004805491929184908110610c9057fe5b6000918252602080832090910154600160a060020a0316835282019290925260400190205460ff1615610cc4576001820191505b600101610c67565b50919050565b6001602081815260009283526040928390208054818401546002808401805488516101009882161598909802600019011691909104601f8101869004860287018601909752868652600160a060020a039092169590949293830182828015610d7b5780601f10610d5057610100808354040283529160200191610d7b565b820191906000526020600020905b815481529060010190602001808311610d5e57829003601f168201915b5050506003909301549192505060ff1684565b60606004805480602002602001604051908101604052809291908181526020018280548015610de657602002820191906000526020600020905b8154600160a060020a03168152600190910190602001808311610dc8575b505050505090505b90565b60075460ff1681565b606080600080600654604051908082528060200260200182016040528015610e2c578160200160208202803883390190505b50925060009150600090505b600654811015610eb357858015610e61575060008181526001602052604090206003015460ff16155b80610e855750848015610e85575060008181526001602052604090206003015460ff165b15610eab57808383815181101515610e9957fe5b60209081029091010152600191909101905b600101610e38565b878703604051908082528060200260200182016040528015610edf578160200160208202803883390190505b5093508790505b86811015610f28578281815181101515610efc57fe5b9060200190602002015184898303815181101515610f1657fe5b60209081029091010152600101610ee6565b505050949350505050565b606080600080600480549050604051908082528060200260200182016040528015610f68578160200160208202803883390190505b50925060009150600090505b6004548110156110255760008581526002602052604081206004805491929184908110610f9d57fe5b6000918252602080832090910154600160a060020a0316835282019290925260400190205460ff161561101d576004805482908110610fd857fe5b6000918252602090912001548351600160a060020a0390911690849084908110610ffe57fe5b600160a060020a03909216602092830290910190910152600191909101905b600101610f74565b8160405190808252806020026020018201604052801561104f578160200160208202803883390190505b509350600090505b818110156110a457828181518110151561106d57fe5b90602001906020020151848281518110151561108557fe5b600160a060020a03909216602092830290910190910152600101611057565b505050919050565b60065481565b3330146110be57600080fd5b60045481603282118015906110d35750818111155b80156110de57508015155b80156110e957508115155b15156110f457600080fd5b60058390556040805184815290517fa3f1ee9126a074d9326c682f561767f710e927faa811f7a99829d49dc421797a9181900360200190a1505050565b3360008181526003602052604090205460ff16151561114f57600080fd5b6000828152600160205260409020548290600160a060020a0316151561117457600080fd5b60008381526002602090815260408083203380855292529091205484919060ff161561119f57600080fd5b6000858152600260209081526040808320338085529252808320805460ff191660011790555187927f4a504a94899432a9846e1aa406dceb1bcfd538bb839071d49d1e5e23f5be30ef91a36111f3856113fd565b5050505050565b60006112078484846115f2565b905061121281611131565b9392505050565b603281565b60055481565b6007805460ff191682151517905560408051808201909152601681527f49454950373737546f6b656e73526563697069656e7400000000000000000000602082015261127090306116e6565b50565b600033301461128157600080fd5b600160a060020a038316600090815260036020526040902054839060ff1615156112aa57600080fd5b600160a060020a038316600090815260036020526040902054839060ff16156112d257600080fd5b600092505b6004548310156113635784600160a060020a03166004848154811015156112fa57fe5b600091825260209091200154600160a060020a03161415611358578360048481548110151561132557fe5b9060005260206000200160006101000a815481600160a060020a030219169083600160a060020a03160217905550611363565b6001909201916112d7565b600160a060020a03808616600081815260036020526040808220805460ff1990811690915593881682528082208054909416600117909355915190917f8001553a916ef2f495d26a907cc54d96ed840d7bda71e73194bf5a9df7a76b9091a2604051600160a060020a038516907ff39e6e1eb0edcf53c221607b54b00cd28f3196fed0a24994dc308b8f611b682d90600090a25050505050565b3360008181526003602052604081205490919060ff16151561141e57600080fd5b60008381526002602090815260408083203380855292529091205484919060ff16151561144a57600080fd5b600085815260016020526040902060030154859060ff161561146b57600080fd5b61147486610bdf565b156115b25760008681526001602081815260409283902060038101805460ff1916841790558054818401546002808401805488516101009882161598909802600019011691909104601f8101869004860287018601909752868652929a5061154595600160a060020a0390921694909391929091839083018282801561153b5780601f106115105761010080835404028352916020019161153b565b820191906000526020600020905b81548152906001019060200180831161151e57829003601f168201915b50505050506117d5565b1561157a5760405186907f33e13ecb54c3076d8e8bb8c2881800a4d972b792045ffae98fdf46df365fed7590600090a26115b2565b60405186907f526441bb6c1aba3c9a4a6ca1d6545da9c2333c8c48343ef398eb858d72b7923690600090a260038501805460ff191690555b505050505050565b604080517f4549503832305f4143434550545f4d41474943000000000000000000000000008152905190819003601301902092915050565b600083600160a060020a038116151561160a57600080fd5b60065460408051608081018252600160a060020a038881168252602080830189815283850189815260006060860181905287815260018085529690208551815473ffffffffffffffffffffffffffffffffffffffff19169516949094178455905194830194909455925180519496509193909261168e926002850192910190611821565b50606091909101516003909101805460ff191691151591909117905560068054600101905560405182907fc0ba8fe4b176c1714197d43b9cc6bcf797a4a7461c5fe8d0ef6e184ae7601e5190600090a2509392505050565b6000826040518082805190602001908083835b602083106117185780518252601f1990920191602091820191016116f9565b5181516020939093036101000a600019018019909116921691909117905260408051919093018190038120600080547f29965a1d00000000000000000000000000000000000000000000000000000000845230600485015260248401839052600160a060020a038a8116604486015295519298509490941695506329965a1d94506064808301949350909182900301818387803b1580156117b857600080fd5b505af11580156117cc573d6000803e3d6000fd5b50505050505050565b6000806040516020840160008287838a8c6187965a03f198975050505050505050565b81548183558181111561181c5760008381526020902061181c91810190830161189f565b505050565b828054600181600116156101000203166002900490600052602060002090601f016020900481019282601f1061186257805160ff191683800117855561188f565b8280016001018555821561188f579182015b8281111561188f578251825591602001919060010190611874565b5061189b92915061189f565b5090565b610dee91905b8082111561189b57600081556001016118a55600a165627a7a72305820c4fb2218afdeeb4610046f9227704664a4308f8caa797c4114cf200d97218fed0029",
  "source": "pragma solidity ^0.4.23;\nimport \"./../EIP777/IEIP777TokensRecipient.sol\";\nimport \"../EIP820/EIP820Implementer.sol\";\nimport \"../EIP820/IEIP820Implementer.sol\";\n\n\n/// @title MultiAdmin: Multisignature wallet - Allows multiple parties to agree on transactions before execution.\n/// It should be the only address which can upgrade contracts, routes in the contract registry, etc. It is to be controlled\n/// by the Nori Developers.\n/// This contract is derived from the Gnosis multisig wallet.\n// todo jaycen CAUTION, using eip820 unaudited contracts in multisig inheritance inorder to\n// avoid revert statement otheriwse invoked in the callRecipient function of the tokens mint/send funcs\ncontract MultiAdmin is EIP820Implementer, IEIP820Implementer {\n\n  /*\n    *  Events\n    */\n  event Confirmation(address indexed sender, uint indexed transactionId);\n  event Revocation(address indexed sender, uint indexed transactionId);\n  event Submission(uint indexed transactionId);\n  event Execution(uint indexed transactionId);\n  event ExecutionFailure(uint indexed transactionId);\n  event Deposit(address indexed sender, uint value);\n  event OwnerAddition(address indexed owner);\n  event OwnerRemoval(address indexed owner);\n  event RequirementChange(uint required);\n  event ReceivedTokens(address operator, address from, address to, uint256 amount, bytes userData, bytes operatorData);\n\n  /*\n    *  Constants\n    */\n  uint constant public MAX_OWNER_COUNT = 50;\n\n  /*\n    *  Storage\n    */\n  mapping (uint => Transaction) public transactions;\n  mapping (uint => mapping (address => bool)) public confirmations;\n  mapping (address => bool) public isOwner;\n  address[] public owners;\n  uint public required;\n  uint public transactionCount;\n  bool public tokenReceiver;\n\n  struct Transaction {\n    address destination;\n    uint value;\n    bytes data;\n    bool executed;\n  }\n\n  /*\n  *  Modifiers\n  */\n  modifier onlyWallet() {\n    require(msg.sender == address(this));\n    _;\n  }\n\n  modifier ownerDoesNotExist(address owner) {\n    require(!isOwner[owner]);\n    _;\n  }\n\n  modifier ownerExists(address owner) {\n    require(isOwner[owner]);\n    _;\n  }\n\n  modifier transactionExists(uint transactionId) {\n    require(transactions[transactionId].destination != 0);\n    _;\n  }\n\n  modifier confirmed(uint transactionId, address owner) {\n    require(confirmations[transactionId][owner]);\n    _;\n  }\n\n  modifier notConfirmed(uint transactionId, address owner) {\n    require(!confirmations[transactionId][owner]);\n    _;\n  }\n\n  modifier notExecuted(uint transactionId) {\n    require(!transactions[transactionId].executed);\n    _;\n  }\n\n  modifier notNull(address _address) {\n    require(_address != 0);\n    _;\n  }\n\n  modifier validRequirement(uint ownerCount, uint _required) {\n    require(ownerCount <= MAX_OWNER_COUNT && _required <= ownerCount && _required != 0 && ownerCount != 0);\n    _;\n  }\n\n  /// @dev Fallback function allows to deposit ether.\n  function() public payable {\n    if (msg.value > 0) {\n      emit Deposit(msg.sender, msg.value);\n    }  \n  }\n\n  /*\n    * Public functions\n  */\n  /// @dev Contract constructor sets initial owners and required number of confirmations.\n  /// @param _owners List of initial owners.\n  /// @param _required Number of required confirmations.\n  constructor(address[] _owners, uint _required, address _eip820RegistryAddr) public validRequirement(_owners.length, _required) {\n\n    for (uint i = 0; i < _owners.length; i++) {\n      require(!isOwner[_owners[i]] && _owners[i] != 0);\n      isOwner[_owners[i]] = true;\n    }\n    owners = _owners;\n    required = _required;\n    setIntrospectionRegistry(_eip820RegistryAddr);\n\n    toggleTokenReceiver(true);\n  }\n\n  function canImplementInterfaceForAddress(address, bytes32) public view returns(bytes32) {\n    return EIP820_ACCEPT_MAGIC;\n  }\n\n  function tokensReceived (\n    address operator, \n    address from, \n    address to, \n    uint256 amount, \n    bytes userData, \n    bytes operatorData\n  ) public {\n    if (!tokenReceiver) {\n      revert();\n    }\n    emit ReceivedTokens(\n      operator, \n      from, \n      to, \n      amount, \n      userData, \n      operatorData\n    );\n  }\n\n  function toggleTokenReceiver(bool _toggle) public {\n    tokenReceiver = _toggle;\n    setInterfaceImplementation(\"IEIP777TokensRecipient\", this);\n  }\n\n  /// @dev Allows to add a new owner. Transaction has to be sent by wallet.\n  /// @param owner Address of new owner.\n  function addOwner(address owner)\n      public\n      onlyWallet\n      ownerDoesNotExist(owner)\n      notNull(owner)\n      validRequirement(owners.length + 1, required)\n  {\n    isOwner[owner] = true;\n    owners.push(owner);\n    emit OwnerAddition(owner);\n  }\n\n  /// @dev Allows to remove an owner. Transaction has to be sent by wallet.\n  /// @param owner Address of owner.\n  function removeOwner(address owner)\n      public\n      onlyWallet\n      ownerExists(owner)\n  {\n    isOwner[owner] = false;\n    for (uint i = 0; i < owners.length - 1; i++) {\n      if (owners[i] == owner) {\n        owners[i] = owners[owners.length - 1];\n        break;\n      }\n    }\n\n    owners.length -= 1;\n    if (required > owners.length) {\n      changeRequirement(owners.length);\n    }\n        \n    emit OwnerRemoval(owner);\n  }\n\n  /// @dev Allows to replace an owner with a new owner. Transaction has to be sent by wallet.\n  /// @param owner Address of owner to be replaced.\n  /// @param newOwner Address of new owner.\n  function replaceOwner(address owner, address newOwner)\n    public\n    onlyWallet\n    ownerExists(owner)\n    ownerDoesNotExist(newOwner)\n  {\n    for (uint i = 0; i < owners.length; i++) {\n      if (owners[i] == owner) {\n        owners[i] = newOwner;\n        break;\n      }\n    }\n\n    isOwner[owner] = false;\n    isOwner[newOwner] = true;\n    emit OwnerRemoval(owner);\n    emit OwnerAddition(newOwner);\n  }\n\n  /// @dev Allows to change the number of required confirmations. Transaction has to be sent by wallet.\n  /// @param _required Number of required confirmations.\n  function changeRequirement(uint _required)\n    public\n    onlyWallet\n    validRequirement(owners.length, _required)\n  {\n    required = _required;\n    emit RequirementChange(_required);\n  }\n\n  /// @dev Allows an owner to submit and confirm a transaction.\n  /// @param destination Transaction target address.\n  /// @param value Transaction ether value.\n  /// @param data Transaction data payload.\n  /// @return Returns transaction ID.\n  function submitTransaction(address destination, uint value, bytes data) public returns (uint transactionId) {\n    transactionId = addTransaction(destination, value, data);\n    confirmTransaction(transactionId);\n  }\n\n  /// @dev Allows an owner to confirm a transaction.\n  /// @param transactionId Transaction ID.\n  function confirmTransaction(uint transactionId)\n    public\n    ownerExists(msg.sender)\n    transactionExists(transactionId)\n    notConfirmed(transactionId, msg.sender)\n  {\n    confirmations[transactionId][msg.sender] = true;\n    emit Confirmation(msg.sender, transactionId);\n    executeTransaction(transactionId);\n  }\n\n  /// @dev Allows an owner to revoke a confirmation for a transaction.\n  /// @param transactionId Transaction ID.\n  function revokeConfirmation(uint transactionId)\n    public\n    ownerExists(msg.sender)\n    confirmed(transactionId, msg.sender)\n    notExecuted(transactionId)\n  {\n    confirmations[transactionId][msg.sender] = false;\n    emit Revocation(msg.sender, transactionId);\n  }\n\n  /// @dev Allows anyone to execute a confirmed transaction.\n  /// @param transactionId Transaction ID.\n  function executeTransaction(uint transactionId)\n    public\n    ownerExists(msg.sender)\n    confirmed(transactionId, msg.sender)\n    notExecuted(transactionId)\n  {\n    if (isConfirmed(transactionId)) {\n      Transaction storage txn = transactions[transactionId];\n      \n      txn.executed = true;\n      if (\n        external_call(\n          txn.destination, \n          txn.value, \n          txn.data.length, \n          txn.data\n        )\n      ) {\n        emit Execution(transactionId);\n      } else {\n        //revert();\n        emit ExecutionFailure(transactionId);\n        txn.executed = false;\n      }\n    }\n  }\n\n  // call has been separated into its own function in order to take advantage\n  // of the Solidity's code generator to produce a loop that copies tx.data into memory.\n  function external_call(\n    address destination, \n    uint value, \n    uint dataLength, \n    bytes data\n  ) private returns (bool) {\n    bool result;\n    assembly { //solium-disable-line security/no-inline-assembly\n      let x := mload(0x40)   // \"Allocate\" memory for output (0x40 is where \"free memory\" pointer is stored by convention)\n      let d := add(data, 32) // First 32 bytes are the padded length of data, so exclude that\n      result := call(\n        sub(gas, 34710),   // 34710 is the value that solidity is currently emitting\n                            // It includes callGas (700) + callVeryLow (3, to pay for SUB) + callValueTransferGas (9000) +\n                            // callNewAccountGas (25000, in case the destination address does not exist and needs creating)\n        destination,\n        value,\n        d,\n        dataLength,        // Size of the input (in bytes) - this is what fixes the padding problem\n        x,\n        0                  // Output is ignored, therefore the output size is zero\n      )\n    }\n    return result;\n  }\n\n  /// @dev Returns the confirmation status of a transaction.\n  /// @param transactionId Transaction ID.\n  /// @return Confirmation status.\n  function isConfirmed(uint transactionId) public view returns (bool) {\n    uint count = 0;\n    for (uint i = 0; i < owners.length; i++) {\n      if (confirmations[transactionId][owners[i]]) {\n        count += 1;\n      }\n      if (count == required) {\n        return true;\n      }    \n    }\n  }\n\n  /*\n    * Internal functions\n    */\n  /// @dev Adds a new transaction to the transaction mapping, if transaction does not exist yet.\n  /// @param destination Transaction target address.\n  /// @param value Transaction ether value.\n  /// @param data Transaction data payload.\n  /// @return Returns transaction ID.\n  function addTransaction(address destination, uint value, bytes data) internal notNull(destination) returns (uint transactionId) {\n    transactionId = transactionCount;\n    transactions[transactionId] = Transaction({\n      destination: destination,\n      value: value,\n      data: data,\n      executed: false\n    });\n    transactionCount += 1;\n    emit Submission(transactionId);\n  }\n\n  /*\n    * Web3 call functions\n    */\n  /// @dev Returns number of confirmations of a transaction.\n  /// @param transactionId Transaction ID.\n  /// @return Number of confirmations.\n  function getConfirmationCount(uint transactionId) public view returns (uint count) {\n    for (uint i = 0; i < owners.length; i++) {\n      if (confirmations[transactionId][owners[i]]) { \n        count += 1;\n      }\n    }     \n  }\n\n  /// @dev Returns total number of transactions after filers are applied.\n  /// @param pending Include pending transactions.\n  /// @param executed Include executed transactions.\n  /// @return Total number of transactions after filters are applied.\n  function getTransactionCount(bool pending, bool executed) public view returns (uint count) {\n    for (uint i = 0; i < transactionCount; i++) {\n      if (pending && !transactions[i].executed || executed && transactions[i].executed) {\n        count += 1;\n      }\n    }     \n  }\n\n  /// @dev Returns list of owners.\n  /// @return List of owner addresses.\n  function getOwners() public view returns (address[]) { \n    return owners;\n  }\n\n  /// @dev Returns array with owner addresses, which confirmed transaction.\n  /// @param transactionId Transaction ID.\n  /// @return Returns array of owner addresses.\n  function getConfirmations(uint transactionId) public view returns (address[] _confirmations) {\n    address[] memory confirmationsTemp = new address[](owners.length);\n    uint count = 0;\n    uint i;\n    for (i = 0; i < owners.length; i++) {\n      if (confirmations[transactionId][owners[i]]) {\n        confirmationsTemp[count] = owners[i];\n        count += 1;\n      }\n    }\n        \n    _confirmations = new address[](count);\n    for (i = 0; i < count; i++) {\n      _confirmations[i] = confirmationsTemp[i];\n    } \n  }\n\n  /// @dev Returns list of transaction IDs in defined range.\n  /// @param from Index start position of transaction array.\n  /// @param to Index end position of transaction array.\n  /// @param pending Include pending transactions.\n  /// @param executed Include executed transactions.\n  /// @return Returns array of transaction IDs.\n  function getTransactionIds(\n    uint from, \n    uint to, \n    bool pending, \n    bool executed\n  ) public view returns (uint[] _transactionIds){\n\n    uint[] memory transactionIdsTemp = new uint[](transactionCount);\n    uint count = 0;\n    uint i;\n    for (i = 0; i < transactionCount; i++) {\n      if (pending && !transactions[i].executed || executed && transactions[i].executed) {\n        transactionIdsTemp[count] = i;\n        count += 1;\n      }\n    }\n        \n    _transactionIds = new uint[](to - from);\n    for (i = from; i < to; i++) {\n      _transactionIds[i - from] = transactionIdsTemp[i];\n    }\n  }\n}\n",
  "sourcePath": "/home/ubuntu/dev/Kryptopal/kryptopal-contracts/contracts/wallet/MultiAdmin.sol",
  "compiler": {
    "name": "solc",
    "version": "0.4.24+commit.e67f0147.Emscripten.clang"
  },
  "schemaVersion": "2.0.1",
  "updatedAt": "2018-07-19T05:20:23.989Z"
}