{
  "contractName": "Owned",
  "abi": [
    {
      "constant": true,
      "inputs": [],
      "name": "owner",
      "outputs": [
        {
          "name": "",
          "type": "address"
        }
      ],
      "payable": false,
      "stateMutability": "view",
      "type": "function"
    },
    {
      "constant": true,
      "inputs": [],
      "name": "newOwnerCandidate",
      "outputs": [
        {
          "name": "",
          "type": "address"
        }
      ],
      "payable": false,
      "stateMutability": "view",
      "type": "function"
    },
    {
      "inputs": [],
      "payable": false,
      "stateMutability": "nonpayable",
      "type": "constructor"
    },
    {
      "anonymous": false,
      "inputs": [
        {
          "indexed": true,
          "name": "by",
          "type": "address"
        },
        {
          "indexed": true,
          "name": "to",
          "type": "address"
        }
      ],
      "name": "OwnershipRequested",
      "type": "event"
    },
    {
      "anonymous": false,
      "inputs": [
        {
          "indexed": true,
          "name": "from",
          "type": "address"
        },
        {
          "indexed": true,
          "name": "to",
          "type": "address"
        }
      ],
      "name": "OwnershipTransferred",
      "type": "event"
    },
    {
      "anonymous": false,
      "inputs": [],
      "name": "OwnershipRemoved",
      "type": "event"
    },
    {
      "constant": false,
      "inputs": [
        {
          "name": "_newOwnerCandidate",
          "type": "address"
        }
      ],
      "name": "proposeOwnership",
      "outputs": [],
      "payable": false,
      "stateMutability": "nonpayable",
      "type": "function"
    },
    {
      "constant": false,
      "inputs": [],
      "name": "acceptOwnership",
      "outputs": [],
      "payable": false,
      "stateMutability": "nonpayable",
      "type": "function"
    },
    {
      "constant": false,
      "inputs": [
        {
          "name": "_newOwner",
          "type": "address"
        }
      ],
      "name": "changeOwnership",
      "outputs": [],
      "payable": false,
      "stateMutability": "nonpayable",
      "type": "function"
    },
    {
      "constant": false,
      "inputs": [
        {
          "name": "_dac",
          "type": "address"
        }
      ],
      "name": "removeOwnership",
      "outputs": [],
      "payable": false,
      "stateMutability": "nonpayable",
      "type": "function"
    }
  ],
  "bytecode": "0x608060405234801561001057600080fd5b5060008054600160a060020a0319163317905561039b806100326000396000f3006080604052600436106100775763ffffffff7c01000000000000000000000000000000000000000000000000000000006000350416632af4c31e811461007c578063666a34271461009f578063710bf322146100c057806379ba5097146100e15780638da5cb5b146100f6578063d091b55014610127575b600080fd5b34801561008857600080fd5b5061009d600160a060020a036004351661013c565b005b3480156100ab57600080fd5b5061009d600160a060020a03600435166101d6565b3480156100cc57600080fd5b5061009d600160a060020a0360043516610256565b3480156100ed57600080fd5b5061009d6102cc565b34801561010257600080fd5b5061010b610351565b60408051600160a060020a039092168252519081900360200190f35b34801561013357600080fd5b5061010b610360565b60008054600160a060020a0316331461015457600080fd5b600160a060020a038216151561016957600080fd5b5060008054600160a060020a0383811673ffffffffffffffffffffffffffffffffffffffff1980841691909117808555600180549092169091556040519282169391169183917f8be0079c531659141344cd1fd0a4f28419497f9722a3daafe3b4186f6b6457e091a35050565b600054600160a060020a031633146101ed57600080fd5b610dac600160a060020a0382161461020457600080fd5b6000805473ffffffffffffffffffffffffffffffffffffffff1990811682556001805490911690556040517f94e8b32e01b9eedfddd778ffbd051a7718cdc14781702884561162dca6f74dbb9190a150565b600054600160a060020a0316331461026d57600080fd5b6001805473ffffffffffffffffffffffffffffffffffffffff1916600160a060020a03838116919091179182905560405191169033907f13a4b3bc0d5234dd3d87c9f1557d8faefa37986da62c36ba49309e2fb2c9aec490600090a350565b600154600090600160a060020a031633146102e657600080fd5b506000805460018054600160a060020a0380821673ffffffffffffffffffffffffffffffffffffffff198086169190911780875592169092556040519282169391169183917f8be0079c531659141344cd1fd0a4f28419497f9722a3daafe3b4186f6b6457e091a350565b600054600160a060020a031681565b600154600160a060020a0316815600a165627a7a72305820c313c287924ae2990bd6ba6bc2ea5f431f74e18a29747c3ac64203718b172c200029",
  "source": "pragma solidity ^0.4.18;\n\n/// @notice The Owned contract has an owner address, and provides basic \n///  authorization control functions, this simplifies & the implementation of\n///  user permissions; this contract has three work flows for a change in\n///  ownership, the first requires the new owner to validate that they have the\n///  ability to accept ownership, the second allows the ownership to be\n///  directly transfered without requiring acceptance, and the third allows for\n///  the ownership to be removed to allow for decentralization \ncontract Owned {\n\n    address public owner;\n    address public newOwnerCandidate;\n\n    event OwnershipRequested(address indexed by, address indexed to);\n    event OwnershipTransferred(address indexed from, address indexed to);\n    event OwnershipRemoved();\n\n    /// @dev The constructor sets the `msg.sender` as the`owner` of the contract\n    function Owned() public {\n        owner = msg.sender;\n    }\n\n    /// @dev `owner` is the only address that can call a function with this\n    /// modifier\n    modifier onlyOwner() {\n        require (msg.sender == owner);\n        _;\n    }\n    \n    /// @dev In this 1st option for ownership transfer `proposeOwnership()` must\n    ///  be called first by the current `owner` then `acceptOwnership()` must be\n    ///  called by the `newOwnerCandidate`\n    /// @notice `onlyOwner` Proposes to transfer control of the contract to a\n    ///  new owner\n    /// @param _newOwnerCandidate The address being proposed as the new owner\n    function proposeOwnership(address _newOwnerCandidate) public onlyOwner {\n        newOwnerCandidate = _newOwnerCandidate;\n        emit OwnershipRequested(msg.sender, newOwnerCandidate);\n    }\n\n    /// @notice Can only be called by the `newOwnerCandidate`, accepts the\n    ///  transfer of ownership\n    function acceptOwnership() public {\n        require(msg.sender == newOwnerCandidate);\n\n        address oldOwner = owner;\n        owner = newOwnerCandidate;\n        newOwnerCandidate = 0x0;\n\n        emit OwnershipTransferred(oldOwner, owner);\n    }\n\n    /// @dev In this 2nd option for ownership transfer `changeOwnership()` can\n    ///  be called and it will immediately assign ownership to the `newOwner`\n    /// @notice `owner` can step down and assign some other address to this role\n    /// @param _newOwner The address of the new owner\n    function changeOwnership(address _newOwner) public onlyOwner {\n        require(_newOwner != 0x0);\n\n        address oldOwner = owner;\n        owner = _newOwner;\n        newOwnerCandidate = 0x0;\n\n        emit OwnershipTransferred(oldOwner, owner);\n    }\n\n    /// @dev In this 3rd option for ownership transfer `removeOwnership()` can\n    ///  be called and it will immediately assign ownership to the 0x0 address;\n    ///  it requires a 0xdece be input as a parameter to prevent accidental use\n    /// @notice Decentralizes the contract, this operation cannot be undone \n    /// @param _dac `0xdac` has to be entered for this function to work\n    function removeOwnership(address _dac) public onlyOwner {\n        require(_dac == 0xdac);\n        owner = 0x0;\n        newOwnerCandidate = 0x0;\n        emit OwnershipRemoved();     \n    }\n} ",
  "sourcePath": "/home/ubuntu/dev/Kryptopal/kryptopal-contracts/contracts/ownership/Owned.sol",
  "compiler": {
    "name": "solc",
    "version": "0.4.24+commit.e67f0147.Emscripten.clang"
  },
  "schemaVersion": "2.0.1",
  "updatedAt": "2018-07-19T04:57:34.880Z"
}