{
  "contractName": "ProxyPaymentV0_1_0",
  "abi": [
    {
      "constant": true,
      "inputs": [],
      "name": "tokenContract",
      "outputs": [
        {
          "name": "",
          "type": "address"
        }
      ],
      "payable": false,
      "stateMutability": "view",
      "type": "function"
    },
    {
      "constant": true,
      "inputs": [],
      "name": "owner",
      "outputs": [
        {
          "name": "",
          "type": "address"
        }
      ],
      "payable": false,
      "stateMutability": "view",
      "type": "function"
    },
    {
      "constant": false,
      "inputs": [
        {
          "name": "newOwner",
          "type": "address"
        }
      ],
      "name": "transferOwnership",
      "outputs": [],
      "payable": false,
      "stateMutability": "nonpayable",
      "type": "function"
    },
    {
      "anonymous": false,
      "inputs": [
        {
          "indexed": false,
          "name": "previousOwner",
          "type": "address"
        },
        {
          "indexed": false,
          "name": "newOwner",
          "type": "address"
        }
      ],
      "name": "OwnershipTransferred",
      "type": "event"
    },
    {
      "anonymous": false,
      "inputs": [
        {
          "indexed": false,
          "name": "newOwner",
          "type": "address"
        }
      ],
      "name": "OwnerSet",
      "type": "event"
    },
    {
      "constant": false,
      "inputs": [
        {
          "name": "_kryptoxAddress",
          "type": "address"
        },
        {
          "name": "_kryptoFee",
          "type": "uint256"
        },
        {
          "name": "_providerFee",
          "type": "uint256"
        },
        {
          "name": "_eip820RegistryAddr",
          "type": "address"
        },
        {
          "name": "_owner",
          "type": "address"
        }
      ],
      "name": "initialize",
      "outputs": [],
      "payable": false,
      "stateMutability": "nonpayable",
      "type": "function"
    },
    {
      "constant": true,
      "inputs": [],
      "name": "initialized",
      "outputs": [
        {
          "name": "",
          "type": "bool"
        }
      ],
      "payable": false,
      "stateMutability": "view",
      "type": "function"
    },
    {
      "constant": false,
      "inputs": [],
      "name": "enableEIP777TokensOperator",
      "outputs": [],
      "payable": false,
      "stateMutability": "nonpayable",
      "type": "function"
    },
    {
      "constant": true,
      "inputs": [
        {
          "name": "addr",
          "type": "address"
        },
        {
          "name": "interfaceHash",
          "type": "bytes32"
        }
      ],
      "name": "canImplementInterfaceForAddress",
      "outputs": [
        {
          "name": "",
          "type": "bytes32"
        }
      ],
      "payable": false,
      "stateMutability": "view",
      "type": "function"
    },
    {
      "constant": false,
      "inputs": [
        {
          "name": "operator",
          "type": "address"
        },
        {
          "name": "from",
          "type": "address"
        },
        {
          "name": "to",
          "type": "address"
        },
        {
          "name": "amount",
          "type": "uint256"
        },
        {
          "name": "userData",
          "type": "bytes"
        },
        {
          "name": "operatorData",
          "type": "bytes"
        }
      ],
      "name": "madeOperatorForTokens",
      "outputs": [],
      "payable": false,
      "stateMutability": "nonpayable",
      "type": "function"
    },
    {
      "constant": false,
      "inputs": [
        {
          "name": "from",
          "type": "address"
        },
        {
          "name": "to",
          "type": "address"
        },
        {
          "name": "amount",
          "type": "uint256"
        },
        {
          "name": "userData",
          "type": "bytes"
        }
      ],
      "name": "proxySend",
      "outputs": [],
      "payable": false,
      "stateMutability": "nonpayable",
      "type": "function"
    },
    {
      "constant": true,
      "inputs": [],
      "name": "getTotalUnfinishedTransferBalance",
      "outputs": [
        {
          "name": "",
          "type": "uint256"
        },
        {
          "name": "",
          "type": "uint256"
        }
      ],
      "payable": false,
      "stateMutability": "view",
      "type": "function"
    },
    {
      "constant": true,
      "inputs": [
        {
          "name": "userAddress",
          "type": "address"
        }
      ],
      "name": "getTotalUnfinishedTransferBalanceOfUser",
      "outputs": [
        {
          "name": "",
          "type": "uint256"
        },
        {
          "name": "",
          "type": "uint256"
        }
      ],
      "payable": false,
      "stateMutability": "view",
      "type": "function"
    },
    {
      "constant": false,
      "inputs": [
        {
          "name": "from",
          "type": "address"
        },
        {
          "name": "_recipient",
          "type": "address"
        },
        {
          "name": "_tokenType",
          "type": "string"
        },
        {
          "name": "_transferAmount",
          "type": "uint256"
        },
        {
          "name": "userData",
          "type": "bytes"
        }
      ],
      "name": "forwardPayment",
      "outputs": [
        {
          "name": "",
          "type": "bool"
        }
      ],
      "payable": true,
      "stateMutability": "payable",
      "type": "function"
    },
    {
      "constant": false,
      "inputs": [
        {
          "name": "_newProvider",
          "type": "address"
        }
      ],
      "name": "addProvider",
      "outputs": [],
      "payable": false,
      "stateMutability": "nonpayable",
      "type": "function"
    },
    {
      "constant": true,
      "inputs": [
        {
          "name": "_newProvider",
          "type": "address"
        }
      ],
      "name": "isValidProvider",
      "outputs": [
        {
          "name": "indeed",
          "type": "bool"
        }
      ],
      "payable": false,
      "stateMutability": "view",
      "type": "function"
    },
    {
      "constant": false,
      "inputs": [
        {
          "name": "_oldProvider",
          "type": "address"
        }
      ],
      "name": "removeProvider",
      "outputs": [],
      "payable": false,
      "stateMutability": "nonpayable",
      "type": "function"
    },
    {
      "constant": true,
      "inputs": [],
      "name": "getProviderList",
      "outputs": [
        {
          "name": "",
          "type": "address[100]"
        }
      ],
      "payable": false,
      "stateMutability": "view",
      "type": "function"
    },
    {
      "constant": true,
      "inputs": [],
      "name": "getProviderListLength",
      "outputs": [
        {
          "name": "",
          "type": "uint256"
        }
      ],
      "payable": false,
      "stateMutability": "view",
      "type": "function"
    },
    {
      "constant": false,
      "inputs": [
        {
          "name": "_kryptoFee",
          "type": "uint256"
        }
      ],
      "name": "setKryptoFee",
      "outputs": [],
      "payable": false,
      "stateMutability": "nonpayable",
      "type": "function"
    },
    {
      "constant": false,
      "inputs": [
        {
          "name": "_providerFee",
          "type": "uint256"
        }
      ],
      "name": "setProviderFee",
      "outputs": [],
      "payable": false,
      "stateMutability": "nonpayable",
      "type": "function"
    },
    {
      "constant": true,
      "inputs": [],
      "name": "getKryptoFee",
      "outputs": [
        {
          "name": "",
          "type": "uint256"
        }
      ],
      "payable": false,
      "stateMutability": "view",
      "type": "function"
    },
    {
      "constant": true,
      "inputs": [],
      "name": "getProviderFee",
      "outputs": [
        {
          "name": "",
          "type": "uint256"
        }
      ],
      "payable": false,
      "stateMutability": "view",
      "type": "function"
    }
  ],
  "bytecode": "0x60806040526103e86007556127106008556009805461ff001960ff199091166001171661010017905561003a3364010000000061003f810204565b610093565b60008054600160a060020a038316600160a060020a0319909116811790915560408051918252517f50146d0e3c60aa1d17a70635b05494f864e86144a2201275021014fbf08bafe29181900360200190a150565b61166a806100a26000396000f3006080604052600436106101035763ffffffff60e060020a60003504166303b54d528114610108578063158ef93e1461013f57806324ab0da6146101685780632f1a7dac146101a257806332035ca6146101c95780634670a5941461028257806346e2577a1461029757806355a373d6146102b85780636644b34c146102e95780638a355a57146102fe5780638da5cb5b1461031f578063a7593fb714610334578063a9d172031461034c578063b163f0e11461039a578063b2bbefdb14610440578063bd273daa14610461578063e51c090e14610476578063e60ab515146104e5578063f0083250146104fa578063f2fde38b1461051e578063fa4985f81461053f575b600080fd5b34801561011457600080fd5b5061013d600160a060020a03600435811690602435906044359060643581169060843516610557565b005b34801561014b57600080fd5b506101546105f9565b604080519115158252519081900360200190f35b34801561017457600080fd5b50610189600160a060020a0360043516610609565b6040805192835260208301919091528051918290030190f35b3480156101ae57600080fd5b506101b761064d565b60408051918252519081900360200190f35b3480156101d557600080fd5b50604080516020601f60843560048181013592830184900484028501840190955281845261013d94600160a060020a03813581169560248035831696604435909316956064359536959460a49493919091019190819084018382808284375050604080516020601f89358b018035918201839004830284018301909452808352979a9998810197919650918201945092508291508401838280828437509497506106729650505050505050565b34801561028e57600080fd5b5061013d61067a565b3480156102a357600080fd5b5061013d600160a060020a03600435166106c4565b3480156102c457600080fd5b506102cd610791565b60408051600160a060020a039092168252519081900360200190f35b3480156102f557600080fd5b506101b76107a7565b34801561030a57600080fd5b5061013d600160a060020a03600435166107ad565b34801561032b57600080fd5b506102cd6108be565b34801561034057600080fd5b5061013d6004356108cd565b34801561035857600080fd5b506103616108ee565b6040518082610c8080838360005b8381101561038757818101518382015260200161036f565b5050505090500191505060405180910390f35b604080516020600460443581810135601f8101849004840285018401909552848452610154948235600160a060020a039081169560248035909216953695946064949293019190819084018382808284375050604080516020601f818a01358b0180359182018390048302840183018552818452989b8a359b909a9099940197509195509182019350915081908401838280828437509497506109869650505050505050565b34801561044c57600080fd5b50610154600160a060020a0360043516610fe6565b34801561046d57600080fd5b506101b7611008565b34801561048257600080fd5b50604080516020601f60643560048181013592830184900484028501840190955281845261013d94600160a060020a03813581169560248035909216956044359536956084940191819084018382808284375094975061100e9650505050505050565b3480156104f157600080fd5b50610189611057565b34801561050657600080fd5b506101b7600160a060020a0360043516602435611072565b34801561052a57600080fd5b5061013d600160a060020a03600435166110aa565b34801561054b57600080fd5b5061013d600435611132565b60095462010000900460ff161561056d57600080fd5b61057681611153565b61057f856111b4565b61058884611132565b610591836108cd565b61059a826111ed565b6105d96040805190810160405280600d81526020017f4950726f78795061796d656e74000000000000000000000000000000000000008152503061121c565b6105e161067a565b50506009805462ff0000191662010000179055505050565b60095462010000900460ff165b90565b6000806106146108be565b600160a060020a0316331461062857600080fd5b5050600160a060020a03166000908152600a6020526040902080546001909101549091565b60006106576108be565b600160a060020a0316331461066b57600080fd5b5060035490565b505050505050565b6009805460ff1916905560408051808201909152601581527f49454950373737546f6b656e734f70657261746f72000000000000000000000060208201526106c2903061121c565b565b6106cc6108be565b600160a060020a031633146106e057600080fd5b600160a060020a038116158015906106fe57506106fc81610fe6565b155b151561070957600080fd5b600160a060020a03166000818152600260208190526040909120805473ffffffffffffffffffffffffffffffffffffffff19908116841782556003805460018181019092557fc2575a0e9e593c00f959f8c92f12db2869c3395a3b0502d05e2516446f71f85b810180549093169095179091558082019390935501805460ff19169091179055565b60095463010000009004600160a060020a031681565b60065490565b6000806107b86108be565b600160a060020a031633146107cc57600080fd5b600160a060020a038316158015906107e857506107e883610fe6565b15156107f357600080fd5b600160a060020a0383166000908152600260208190526040909120908101805460ff19169055600101546003805491935090600019810190811061083357fe5b60009182526020909120015460038054600160a060020a03909216925082918490811061085c57fe5b6000918252602080832091909101805473ffffffffffffffffffffffffffffffffffffffff1916600160a060020a03948516179055918316815260029091526040902060010182905560038054906108b89060001983016115d7565b50505050565b600054600160a060020a031690565b6108d56108be565b600160a060020a031633146108e957600080fd5b600655565b6108f6611600565b6108fe611600565b60006109086108be565b600160a060020a0316331461091c57600080fd5b5060005b600354811080156109315750606481105b1561098057600380548290811061094457fe5b600091825260209091200154600160a060020a031682826064811061096557fe5b600160a060020a039092166020929092020152600101610920565b50919050565b60008080808080871161099857600080fd5b336000908152600a602090815260409182902080543401905581517f6574686572000000000000000000000000000000000000000000000000000000815291519182900360050182208a5190928b92909182918401908083835b60208310610a115780518252601f1990920191602091820191016109f2565b6001836020036101000a0380198251168184511680821785525050505050509050019150506040518091039020600019161415610bd957336000908152600a6020526040902054871115610a6457600080fd5b6007546005548802811515610a7557fe5b0493506007546006548802811515610a8957fe5b049250610a96838961130b565b905082811015610aae57808385890303019150610ab7565b60009450610fd9565b604051600160a060020a038a169083156108fc029084906000818181858888f19350505050158015610aed573d6000803e3d6000fd5b50336000908152600a602090815260408083208054869003905580517f8da5cb5b00000000000000000000000000000000000000000000000000000000815290513093638da5cb5b93600480850194919392918390030190829087803b158015610b5657600080fd5b505af1158015610b6a573d6000803e3d6000fd5b505050506040513d6020811015610b8057600080fd5b5051604051600160a060020a039091169085156108fc029086906000818181858888f19350505050158015610bb9573d6000803e3d6000fd5b50336000908152600a602052604090208054859003905560019450610fd9565b604080517f4b727970746f58373737000000000000000000000000000000000000000000008152905190819003600a018120895190918a91819060208401908083835b60208310610c3b5780518252601f199092019160209182019101610c1c565b6001836020036101000a0380198251168184511680821785525050505050509050019150506040518091039020600019161415610fd9576007546005548802811515610c8357fe5b0493506007546006548802811515610c9757fe5b049250808385890303019150600960039054906101000a9004600160a060020a0316600160a060020a03166362ad1b838b8b858a6040518563ffffffff1660e060020a0281526004018085600160a060020a0316600160a060020a0316815260200184600160a060020a0316600160a060020a031681526020018381526020018060200180602001838103835284818151815260200191508051906020019080838360005b83811015610d54578181015183820152602001610d3c565b50505050905090810190601f168015610d815780820380516001836020036101000a031916815260200191505b50838103825260038152602001807f30783000000000000000000000000000000000000000000000000000000000008152506020019650505050505050600060405180830381600087803b158015610dd857600080fd5b505af1158015610dec573d6000803e3d6000fd5b5050336000908152600a602090815260408083206001018054889003905560095481517f8da5cb5b00000000000000000000000000000000000000000000000000000000815291516301000000909104600160a060020a031695506362ad1b8394508f933093638da5cb5b936004808201949293918390030190829087803b158015610e7757600080fd5b505af1158015610e8b573d6000803e3d6000fd5b505050506040513d6020811015610ea157600080fd5b505160405160e060020a63ffffffff8516028152600160a060020a03808416600483019081529083166024830152604482018a905260a0606483019081528c5160a48401528c518b938e939291608482019160c40190602086019080838360005b83811015610f1a578181015183820152602001610f02565b50505050905090810190601f168015610f475780820380516001836020036101000a031916815260200191505b50838103825260038152602001807f30783000000000000000000000000000000000000000000000000000000000008152506020019650505050505050600060405180830381600087803b158015610f9e57600080fd5b505af1158015610fb2573d6000803e3d6000fd5b5050336000908152600a602052604090206001908101805488900390559650610fd9915050565b5050505095945050505050565b600160a060020a03166000908152600260208190526040909120015460ff1690565b60055490565b61105084846040805190810160405280600a81526020017f4b727970746f58373737000000000000000000000000000000000000000000008152508585610986565b5050505050565b336000908152600a6020526040902080546001909101549091565b604080517f4549503832305f4143434550545f4d41474943000000000000000000000000008152905190819003601301902092915050565b6110b26108be565b600160a060020a031633146110c657600080fd5b600160a060020a03811615156110db57600080fd5b7f8be0079c531659141344cd1fd0a4f28419497f9722a3daafe3b4186f6b6457e06111046108be565b60408051600160a060020a03928316815291841660208301528051918290030190a161112f81611153565b50565b61113a6108be565b600160a060020a0316331461114e57600080fd5b600555565b60008054600160a060020a03831673ffffffffffffffffffffffffffffffffffffffff19909116811790915560408051918252517f50146d0e3c60aa1d17a70635b05494f864e86144a2201275021014fbf08bafe29181900360200190a150565b60098054600160a060020a0390921663010000000276ffffffffffffffffffffffffffffffffffffffff00000019909216919091179055565b6001805473ffffffffffffffffffffffffffffffffffffffff1916600160a060020a0392909216919091179055565b6000826040518082805190602001908083835b6020831061124e5780518252601f19909201916020918201910161122f565b5181516020939093036101000a6000190180199091169216919091179052604080519190930181900381206001547f29965a1d00000000000000000000000000000000000000000000000000000000835230600484015260248301829052600160a060020a03898116604485015294519197509390931694506329965a1d9350606480820193600093509182900301818387803b1580156112ee57600080fd5b505af1158015611302573d6000803e3d6000fd5b50505050505050565b6003546000908390828080838581151561132157fe5b604080517f6574686572000000000000000000000000000000000000000000000000000000815290519081900360050181208a519390920495509091899190819060208401908083835b6020831061138a5780518252601f19909201916020918201910161136b565b6001836020036101000a038019825116818451168082178552505050505050905001915050604051809103902060001916141561144b57600091505b6003548210156114465760038054839081106113de57fe5b6000918252602082200154604051600160a060020a039091169185156108fc02918691818181858888f1935050505015801561141e573d6000803e3d6000fd5b50336000908152600a60205260409020805484900390559382900393600191909101906113c6565b6115cb565b604080517f6b727970746f78373737000000000000000000000000000000000000000000008152905190819003600a018120885190918991819060208401908083835b602083106114ad5780518252601f19909201916020918201910161148e565b6001836020036101000a03801982511681845116808217855250505050505090500191505060405180910390206000191614156115cb575050600454600090600160a060020a03165b6003548210156115cb5780600160a060020a031663a9059cbb60038481548110151561151e57fe5b60009182526020808320909101546040805160e060020a63ffffffff8716028152600160a060020a039092166004830152602482018990525160448083019491928390030190829087803b15801561157557600080fd5b505af1158015611589573d6000803e3d6000fd5b505050506040513d602081101561159f57600080fd5b5050336000908152600a60205260409020600190810180548590039055948390039491909101906114f6565b50929695505050505050565b8154818355818111156115fb576000838152602090206115fb918101908301611620565b505050565b610c80604051908101604052806064906020820280388339509192915050565b61060691905b8082111561163a5760008155600101611626565b50905600a165627a7a72305820590206a3b3e2890e246831c8c1933efdd61dd0cb25caf1dfea6103e13f2fc7bd0029",
  "source": "pragma solidity ^0.4.23;\n\n//import \"../../node_modules/zeppelin-solidity/contracts/ownership/Ownable.sol\";\nimport \"../../node_modules/zeppelin-solidity/contracts/math/SafeMath.sol\";\nimport \"../token/KryptoX777V0_1_0.sol\";\nimport \"./IProxyPayment.sol\";\nimport \"../EIP777/IEIP777TokensOperator.sol\";\nimport \"../EIP820/IEIP820Implementer.sol\";\nimport \"../EIP820/EIP820Implementer.sol\";\nimport \"../EIP777/IEIP777.sol\";\nimport \"../ownership/UnstructuredOwnable.sol\";\n\n\ncontract ProxyPaymentV0_1_0 is UnstructuredOwnable ,IEIP820Implementer, EIP820Implementer, IEIP777TokensOperator, IProxyPayment {\n\n    using SafeMath for uint256;\n    \n    struct provider{\n        address pAddress;\n        uint indexLoc;\n        bool isValid;\n    }\n    mapping(address => provider) providerValidator;\n    address[] private providers;                //addresses of providers to transfer funds\n    address private kryptoXaddress;\n    uint256 private kryptoFee;                  // integer fee percent (divided by the \"base\" vaue to allow uint storage) for krypto\n    uint256 private providerFee;                // total integer fee percent (divided by the \"base\" value to allow for uint storage) for providers\n    uint256 private base = 1000; // number that kryptoFee and providerFee are divided by to convert to decimal without having to use ufixed values.\n    uint256 private etherToKpxRate = 10000;     // TODO: Change this to a variable, Keeping this constant for the time\n    bool internal preventTokensSender = true;\n    bool internal preventTokenReceived = true;\n    bool internal _initialized;\n    IEIP777 public tokenContract;\n    \n    struct accountValue{\n        uint256 etherValue;\n        uint256 kpxValue;\n    }\n    \n    \n    mapping (address => accountValue) waitingTransfers;\n    \n    function initialize(\n        address _kryptoxAddress, \n        uint256 _kryptoFee, \n        uint256 _providerFee, \n        address _eip820RegistryAddr,\n        address _owner\n      )  public {\n        require(!_initialized);\n        setOwner(_owner);\n        setTokenContract(_kryptoxAddress);\n        setKryptoFee(_kryptoFee);\n        setProviderFee(_providerFee);\n        setIntrospectionRegistry(_eip820RegistryAddr);\n        setInterfaceImplementation(\"IProxyPayment\", this);\n        enableEIP777TokensOperator();\n        _initialized = true;\n    }\n\n    function initialized() public view returns(bool) {\n        return _initialized;\n    }\n\n  //todo only owner?\n    function setTokenContract (address _tokenContract) internal {\n        tokenContract = IEIP777(_tokenContract);\n    }\n    \n    function enableEIP777TokensOperator() public {\n        preventTokensSender = false;\n        setInterfaceImplementation(\"IEIP777TokensOperator\", this);\n    }\n    \n    function canImplementInterfaceForAddress(address addr, bytes32 interfaceHash) public view returns(bytes32) {\n        return EIP820_ACCEPT_MAGIC;\n    }\n  \n  /// @dev erc820 introspection : handler invoked when this contract\n  ///  is made an operator for an erc777 token\n    function madeOperatorForTokens(\n        address operator,  \n        address from,\n        address to,\n        uint256 amount,\n        bytes userData,\n        bytes operatorData\n      ) public {\n        //todo fix this (needed)\n        // if (preventTokenOperator) { \n        //     revert();\n        // }\n        //tokenContract.send(to, amount, userData);\n    }\n  \n    function proxySend(\n        address from,\n        address to,\n        uint256 amount,\n        bytes userData\n      ) public {\n        // if (preventTokenOperator) { \n        //     revert();\n        // }\n        //todo remove hardocded data param\n        forwardPayment(from, to, \"KryptoX777\", amount, userData);\n    }\n    \n    \n    function getTotalUnfinishedTransferBalance() public view returns(uint,uint) {\n        return (waitingTransfers[msg.sender].etherValue, waitingTransfers[msg.sender].kpxValue);\n    }\n    \n    \n    function getTotalUnfinishedTransferBalanceOfUser(address userAddress) public view onlyOwner returns(uint,uint) {\n        return (waitingTransfers[userAddress].etherValue, waitingTransfers[userAddress].kpxValue);\n    }\n    \n    function forwardPayment(\n        address from, \n        address _recipient, \n        string _tokenType, \n        uint256 _transferAmount, \n        bytes userData\n      ) public payable returns(bool) { // need to add and impliment a field for users to specify how much they want to transfer\n          \n        if(_transferAmount <= 0)\n            revert();\n        \n        uint256 kryptoFeeAmount;\n        uint256 providerFeeAmount;\n        uint256 recieverReducedAmount;\n        uint256 providerFeeLeft;\n        waitingTransfers[msg.sender].etherValue = waitingTransfers[msg.sender].etherValue + msg.value;\n        if (keccak256(_tokenType) == keccak256(\"ether\")) {\n            require(waitingTransfers[msg.sender].etherValue >= _transferAmount); //TODO: this part will eventually have to be replaced incase a forward payment is called a second time after sending the appropriate amount of tokens\n\n\n            kryptoFeeAmount = _transferAmount * kryptoFee / base;\n            providerFeeAmount = _transferAmount * providerFee / base;\n        \n            providerFeeLeft = sendProviderFee(providerFeeAmount, _tokenType);\n            if (providerFeeLeft < providerFeeAmount) {\n                recieverReducedAmount = _transferAmount - kryptoFeeAmount - providerFeeAmount + providerFeeLeft; //TODO: Discuss if this is a valid usecase\n          } else {\n                return false;        //TODO: create an event about transaction failure\n          }\n            _recipient.transfer(recieverReducedAmount);\n            waitingTransfers[msg.sender].etherValue = waitingTransfers[msg.sender].etherValue - recieverReducedAmount;\n        \n            this.owner().transfer(kryptoFeeAmount);\n            waitingTransfers[msg.sender].etherValue = waitingTransfers[msg.sender].etherValue - kryptoFeeAmount;\n        \n      \n          //TODO: create an event of transaction complete\n            return true;\n        }\n        else if (keccak256(_tokenType) == keccak256(\"KryptoX777\")) {\n            //require(waitingTransfers[msg.sender].kpxValue >= _transferAmount);\n            kryptoFeeAmount = _transferAmount * kryptoFee / base;\n            providerFeeAmount = _transferAmount * providerFee / base;\n            // uint256 totalFee = kryptoFeeAmount + providerFeeAmount;\n            // uint256 feeInKpx = calculateKpxFee(totalFee);\n            //KryptoX777 kryptox777 = KryptoX777(kryptoXaddress);\n            // if(kryptox777.balanceOf(msg.sender) < _transferAmount + totalFee){     // Discuss: The idea is that fee is reduced above the actual payment, similar to ether transactions\n            //     throw;\n            // }\n            //providerFeeLeft = sendProviderFee(providerFeeAmount, _tokenType);\n        \n            // if (providerFeeLeft < providerFeeAmount) {\n            //     recieverReducedAmount = _transferAmount - kryptoFeeAmount - providerFeeAmount + providerFeeLeft; //TODO: Discuss if this is a valid usecase\n            // } else {\n            //     //return false;        //TODO: create an event about transaction failure\n            // }\n            //todo this is a temporary workaround make it work for multiple users\n            recieverReducedAmount = _transferAmount - kryptoFeeAmount - providerFeeAmount + providerFeeLeft;\n            tokenContract.operatorSend(\n              from, \n              _recipient, \n              recieverReducedAmount, \n              userData,\n              \"0x0\"\n            );\n            waitingTransfers[msg.sender].kpxValue = waitingTransfers[msg.sender].kpxValue - recieverReducedAmount;\n            tokenContract.operatorSend(\n              from, \n              this.owner(), \n              kryptoFeeAmount, \n              userData,\n              \"0x0\"\n            );\n            waitingTransfers[msg.sender].kpxValue = waitingTransfers[msg.sender].kpxValue - kryptoFeeAmount;\n            //TODO: create an event of transaction complete\n            return true;\n            // uint256 kryptoAllowed = kryptox777.allowance(msg.sender, kryptoXaddress);\n            // if (kryptoAllowed >= feeInKpx) {\n            //     bool recievedKpx = kryptox777.transferFrom(msg.sender, this, feeInKpx);\n            //     if (recievedKpx == true) {\n            //         bool sendStatus = sendProviderFee(calculateKpxFee(providerFeeAmount), \"kryptoX\");\n            //         kryptox777.transferFrom(this, kryptoXaddress, calculateKpxFee(kryptoFeeAmount));\n            //         _recipient.transfer(msg.value);\n            //         return true;\n            //     } else {\n            //         return false;\n            //     }\n            //} /*else {\n            //   throw;\n            //}*/\n            // TODO: ^^^ Need to add a fail case: msg.value needs to be mapped to an address so that way if tokens are sent in a new transaction,\n            //we can still send the original money that was given to the contract\n        }\n      \n      \n    }\n\n    function calculateKpxFee(uint _totalFeeAmount) private view returns (uint256) {\n        return (_totalFeeAmount * etherToKpxRate);\n    }\n    \n    \n    function sendProviderFee(uint256 _providerFeeAmount, string _type) private returns(uint256) {\n        uint256 remainingProviderFee = _providerFeeAmount;\n        uint256 numberOfProviders = providers.length;\n        uint256 perProviderFee;\n        uint j;\n        perProviderFee = _providerFeeAmount / numberOfProviders;\n\n        if (keccak256(_type) == keccak256(\"ether\")) {\n            for (j = 0; j < providers.length; j++) {\n                providers[j].transfer(perProviderFee); // transfer the providers the fee if the address is not zero.\n                remainingProviderFee = remainingProviderFee - perProviderFee;\n                waitingTransfers[msg.sender].etherValue = waitingTransfers[msg.sender].etherValue - perProviderFee;\n            }\n        } \n\n        else if (keccak256(_type) == keccak256(\"kryptox777\")) {\n            KryptoX777V0_1_0 kryptox777 = KryptoX777V0_1_0(kryptoXaddress);\n        \n            for (j = 0; j < providers.length; j++) {\n                kryptox777.transfer(providers[j], perProviderFee);\n                remainingProviderFee = remainingProviderFee - perProviderFee;\n                waitingTransfers[msg.sender].kpxValue = waitingTransfers[msg.sender].kpxValue - perProviderFee;\n            }\n        }\n      \n        return remainingProviderFee;\n    }\n    \n    function addProvider(address _newProvider) public onlyOwner {\n        require(_newProvider!=address(0) && !isValidProvider(_newProvider));\n        providerValidator[_newProvider].pAddress = _newProvider;\n        providerValidator[_newProvider].indexLoc = providers.push(_newProvider) - 1;\n        providerValidator[_newProvider].isValid = true;\n    }\n\n    function isValidProvider(address _newProvider) view public returns(bool indeed){\n        return providerValidator[_newProvider].isValid;  \n    }\n\n    function removeProvider(address _oldProvider) public onlyOwner {\n        require(_oldProvider!=address(0) && isValidProvider(_oldProvider));\n        providerValidator[_oldProvider].isValid = false;\n        uint currIndexLoc = providerValidator[_oldProvider].indexLoc;\n        address newProvAddress = providers[providers.length-1];\n        providers[currIndexLoc] = newProvAddress;\n        providerValidator[newProvAddress].indexLoc = currIndexLoc;\n        providers.length --;    \n    }\n\n    function getProviderList() public view onlyOwner returns (address[100]){\n        address[100] memory tempArr;\n        for(uint i = 0; i < providers.length && i < 100; ++i){\n            tempArr[i] = providers[i];\n        }\n        return tempArr;\n    }\n    \n    function getProviderListLength() public view onlyOwner returns (uint){\n        return providers.length;\n    }\n    \n    \n    \n    function setKryptoFee(uint256 _kryptoFee) public onlyOwner { // function that sets the fees\n        kryptoFee = _kryptoFee;\n    }\n    \n    function setProviderFee(uint256 _providerFee) public onlyOwner { // function that sets the fees\n        providerFee = _providerFee;\n    }\n    \n    function getKryptoFee() public view returns (uint256){\n        return kryptoFee;\n    }\n    \n    function getProviderFee() public view returns (uint256){\n        return providerFee;\n    }\n  \n}",
  "sourcePath": "/home/ubuntu/dev/Kryptopal/kryptopal-contracts/contracts/payment/ProxyPaymentV0_1_0.sol",
  "compiler": {
    "name": "solc",
    "version": "0.4.24+commit.e67f0147.Emscripten.clang"
  },
  "schemaVersion": "2.0.1",
  "updatedAt": "2018-07-19T05:20:39.776Z"
}