{
  "contractName": "RootRegistryV0_1_0",
  "abi": [
    {
      "constant": false,
      "inputs": [],
      "name": "initialized",
      "outputs": [
        {
          "name": "",
          "type": "bool"
        }
      ],
      "payable": false,
      "stateMutability": "nonpayable",
      "type": "function"
    },
    {
      "constant": false,
      "inputs": [
        {
          "name": "addr",
          "type": "address"
        },
        {
          "name": "iHash",
          "type": "bytes32"
        },
        {
          "name": "implementer",
          "type": "address"
        }
      ],
      "name": "setInterfaceImplementer",
      "outputs": [],
      "payable": false,
      "stateMutability": "nonpayable",
      "type": "function"
    },
    {
      "constant": true,
      "inputs": [
        {
          "name": "addr",
          "type": "address"
        }
      ],
      "name": "getManager",
      "outputs": [
        {
          "name": "",
          "type": "address"
        }
      ],
      "payable": false,
      "stateMutability": "view",
      "type": "function"
    },
    {
      "constant": false,
      "inputs": [
        {
          "name": "addr",
          "type": "address"
        },
        {
          "name": "newManager",
          "type": "address"
        }
      ],
      "name": "setManager",
      "outputs": [],
      "payable": false,
      "stateMutability": "nonpayable",
      "type": "function"
    },
    {
      "constant": true,
      "inputs": [
        {
          "name": "_contractName",
          "type": "string"
        }
      ],
      "name": "getLatestProxyAddr",
      "outputs": [
        {
          "name": "",
          "type": "address"
        }
      ],
      "payable": false,
      "stateMutability": "view",
      "type": "function"
    },
    {
      "constant": true,
      "inputs": [
        {
          "name": "interfaceName",
          "type": "string"
        }
      ],
      "name": "interfaceHash",
      "outputs": [
        {
          "name": "",
          "type": "bytes32"
        }
      ],
      "payable": false,
      "stateMutability": "pure",
      "type": "function"
    },
    {
      "constant": false,
      "inputs": [
        {
          "name": "contractName",
          "type": "string"
        },
        {
          "name": "proxyAddress",
          "type": "address"
        },
        {
          "name": "versionName",
          "type": "string"
        },
        {
          "name": "newImplementation",
          "type": "address"
        }
      ],
      "name": "setVersion",
      "outputs": [],
      "payable": false,
      "stateMutability": "nonpayable",
      "type": "function"
    },
    {
      "constant": true,
      "inputs": [
        {
          "name": "_contract",
          "type": "address"
        },
        {
          "name": "_interfaceId",
          "type": "bytes4"
        }
      ],
      "name": "eip165InterfaceSupported",
      "outputs": [
        {
          "name": "",
          "type": "bool"
        }
      ],
      "payable": false,
      "stateMutability": "view",
      "type": "function"
    },
    {
      "constant": true,
      "inputs": [
        {
          "name": "_contractName",
          "type": "string"
        },
        {
          "name": "_index",
          "type": "int256"
        }
      ],
      "name": "getVersionForContractName",
      "outputs": [
        {
          "name": "",
          "type": "string"
        },
        {
          "name": "",
          "type": "address"
        },
        {
          "name": "",
          "type": "address"
        }
      ],
      "payable": false,
      "stateMutability": "view",
      "type": "function"
    },
    {
      "constant": true,
      "inputs": [],
      "name": "owner",
      "outputs": [
        {
          "name": "",
          "type": "address"
        }
      ],
      "payable": false,
      "stateMutability": "view",
      "type": "function"
    },
    {
      "constant": true,
      "inputs": [],
      "name": "proxyAddr",
      "outputs": [
        {
          "name": "",
          "type": "address"
        }
      ],
      "payable": false,
      "stateMutability": "view",
      "type": "function"
    },
    {
      "constant": true,
      "inputs": [
        {
          "name": "addr",
          "type": "address"
        },
        {
          "name": "iHash",
          "type": "bytes32"
        }
      ],
      "name": "getInterfaceImplementer",
      "outputs": [
        {
          "name": "",
          "type": "address"
        }
      ],
      "payable": false,
      "stateMutability": "view",
      "type": "function"
    },
    {
      "constant": true,
      "inputs": [
        {
          "name": "",
          "type": "bytes32"
        },
        {
          "name": "",
          "type": "address"
        },
        {
          "name": "",
          "type": "uint256"
        }
      ],
      "name": "versions",
      "outputs": [
        {
          "name": "versionName",
          "type": "string"
        },
        {
          "name": "implementation",
          "type": "address"
        }
      ],
      "payable": false,
      "stateMutability": "view",
      "type": "function"
    },
    {
      "constant": false,
      "inputs": [
        {
          "name": "owner",
          "type": "address"
        }
      ],
      "name": "initialize",
      "outputs": [],
      "payable": false,
      "stateMutability": "nonpayable",
      "type": "function"
    },
    {
      "constant": true,
      "inputs": [
        {
          "name": "_contract",
          "type": "address"
        },
        {
          "name": "_interfaceId",
          "type": "bytes4"
        }
      ],
      "name": "eip165InterfaceSupported_NoCache",
      "outputs": [
        {
          "name": "",
          "type": "bool"
        }
      ],
      "payable": false,
      "stateMutability": "view",
      "type": "function"
    },
    {
      "constant": false,
      "inputs": [
        {
          "name": "_contract",
          "type": "address"
        },
        {
          "name": "_interfaceId",
          "type": "bytes4"
        }
      ],
      "name": "eip165UpdateCache",
      "outputs": [],
      "payable": false,
      "stateMutability": "nonpayable",
      "type": "function"
    },
    {
      "constant": false,
      "inputs": [
        {
          "name": "newOwner",
          "type": "address"
        }
      ],
      "name": "transferOwnership",
      "outputs": [],
      "payable": false,
      "stateMutability": "nonpayable",
      "type": "function"
    },
    {
      "inputs": [],
      "payable": false,
      "stateMutability": "nonpayable",
      "type": "constructor"
    },
    {
      "anonymous": false,
      "inputs": [
        {
          "indexed": false,
          "name": "owner",
          "type": "address"
        }
      ],
      "name": "Initialized",
      "type": "event"
    },
    {
      "anonymous": false,
      "inputs": [
        {
          "indexed": true,
          "name": "addr",
          "type": "address"
        },
        {
          "indexed": true,
          "name": "interfaceHash",
          "type": "bytes32"
        },
        {
          "indexed": true,
          "name": "implementer",
          "type": "address"
        }
      ],
      "name": "InterfaceImplementerSet",
      "type": "event"
    },
    {
      "anonymous": false,
      "inputs": [
        {
          "indexed": true,
          "name": "addr",
          "type": "address"
        },
        {
          "indexed": true,
          "name": "newManager",
          "type": "address"
        }
      ],
      "name": "ManagerChanged",
      "type": "event"
    },
    {
      "anonymous": false,
      "inputs": [
        {
          "indexed": false,
          "name": "contractName",
          "type": "string"
        },
        {
          "indexed": false,
          "name": "proxyAddress",
          "type": "address"
        },
        {
          "indexed": false,
          "name": "versionName",
          "type": "string"
        },
        {
          "indexed": false,
          "name": "newImplementation",
          "type": "address"
        }
      ],
      "name": "VersionSet",
      "type": "event"
    },
    {
      "anonymous": false,
      "inputs": [
        {
          "indexed": false,
          "name": "previousOwner",
          "type": "address"
        },
        {
          "indexed": false,
          "name": "newOwner",
          "type": "address"
        }
      ],
      "name": "OwnershipTransferred",
      "type": "event"
    },
    {
      "anonymous": false,
      "inputs": [
        {
          "indexed": false,
          "name": "newOwner",
          "type": "address"
        }
      ],
      "name": "OwnerSet",
      "type": "event"
    }
  ],
  "bytecode": "0x608060405234801561001057600080fd5b5061002333640100000000610028810204565b61007c565b60008054600160a060020a038316600160a060020a0319909116811790915560408051918252517f50146d0e3c60aa1d17a70635b05494f864e86144a2201275021014fbf08bafe29181900360200190a150565b6114548061008b6000396000f3006080604052600436106100f05763ffffffff7c0100000000000000000000000000000000000000000000000000000000600035041663158ef93e81146100f557806329965a1d1461011e5780633d5840631461014b5780635df8122f1461018857806360bd2ee4146101af57806365ba36c11461020857806369d569fb146102735780636d764ca1146103245780636df4023d146103525780638da5cb5b14610457578063a03040c31461046c578063aabbb8ca14610481578063bae18068146104a5578063c4d66de81461055d578063e0af47b71461057e578063ecb1555b146105ac578063f2fde38b146105da575b600080fd5b34801561010157600080fd5b5061010a6105fb565b604080519115158252519081900360200190f35b34801561012a57600080fd5b50610149600160a060020a036004358116906024359060443516610605565b005b34801561015757600080fd5b5061016c600160a060020a036004351661079f565b60408051600160a060020a039092168252519081900360200190f35b34801561019457600080fd5b50610149600160a060020a03600435811690602435166107eb565b3480156101bb57600080fd5b506040805160206004803580820135601f810184900484028501840190955284845261016c9436949293602493928401919081908401838280828437509497506108999650505050505050565b34801561021457600080fd5b506040805160206004803580820135601f810184900484028501840190955284845261026194369492936024939284019190819084018382808284375094975061097c9650505050505050565b60408051918252519081900360200190f35b34801561027f57600080fd5b506040805160206004803580820135601f810184900484028501840190955284845261014994369492936024939284019190819084018382808284375050604080516020601f818a01358b0180359182018390048302840183018552818452989b600160a060020a038b35169b909a90999401975091955091820193509150819084018382808284375094975050509235600160a060020a031693506109e092505050565b34801561033057600080fd5b5061010a600160a060020a0360043516600160e060020a0319602435166109f2565b34801561035e57600080fd5b506040805160206004803580820135601f81018490048402850184019095528484526103ad9436949293602493928401919081908401838280828437509497505093359450610a6a9350505050565b604051808060200184600160a060020a0316600160a060020a0316815260200183600160a060020a0316600160a060020a03168152602001828103825285818151815260200191508051906020019080838360005b8381101561041a578181015183820152602001610402565b50505050905090810190601f1680156104475780820380516001836020036101000a031916815260200191505b5094505050505060405180910390f35b34801561046357600080fd5b5061016c610c55565b34801561047857600080fd5b5061016c610c64565b34801561048d57600080fd5b5061016c600160a060020a0360043516602435610c78565b3480156104b157600080fd5b506104cc600435600160a060020a0360243516604435610cd9565b604051808060200183600160a060020a0316600160a060020a03168152602001828103825284818151815260200191508051906020019080838360005b83811015610521578181015183820152602001610509565b50505050905090810190601f16801561054e5780820380516001836020036101000a031916815260200191505b50935050505060405180910390f35b34801561056957600080fd5b50610149600160a060020a0360043516610db1565b34801561058a57600080fd5b5061010a600160a060020a0360043516600160e060020a031960243516610e1b565b3480156105b857600080fd5b50610149600160a060020a0360043516600160e060020a031960243516610ed2565b3480156105e657600080fd5b50610149600160a060020a0360043516610f5e565b60065460ff165b90565b82336106108261079f565b600160a060020a03161461062357600080fd5b61062c83610fe6565b1561063657600080fd5b600160a060020a038216158015906106575750600160a060020a0382163314155b1561072c57604080517f4549503832305f4143434550545f4d4147494300000000000000000000000000815281519081900360130181207ff0083250000000000000000000000000000000000000000000000000000000008252600160a060020a038781166004840152602483018790529251909285169163f00832509160448083019260209291908290030181600087803b1580156106f657600080fd5b505af115801561070a573d6000803e3d6000fd5b505050506040513d602081101561072057600080fd5b50511461072c57600080fd5b600160a060020a038481166000818152600360209081526040808320888452909152808220805473ffffffffffffffffffffffffffffffffffffffff19169487169485179055518692917f93baa6efbd2244243bfee6ce4cfdd1d04fc4c0e9a786abd3a41313bd352db15391a450505050565b600160a060020a0380821660009081526004602052604081205490911615156107c95750806107e6565b50600160a060020a03808216600090815260046020526040902054165b919050565b81336107f68261079f565b600160a060020a03161461080957600080fd5b82600160a060020a031682600160a060020a031614610828578161082b565b60005b600160a060020a03848116600081815260046020526040808220805473ffffffffffffffffffffffffffffffffffffffff19169585169590951790945592519185169290917f605c2dbf762e5f7d60a546d42e7205dcb1b011ebc62a61736a57c9089d3a43509190a3505050565b600080826040516020018082805190602001908083835b602083106108cf5780518252601f1990920191602091820191016108b0565b6001836020036101000a0380198251168184511680821785525050505050509050019150506040516020818303038152906040526040518082805190602001908083835b602083106109325780518252601f199092019160209182019101610913565b51815160209384036101000a60001901801990921691161790526040805192909401829003909120600090815260019091529190912054600160a060020a03169695505050505050565b6000816040518082805190602001908083835b602083106109ae5780518252601f19909201916020918201910161098f565b5181516020939093036101000a6000190180199091169216919091179052604051920182900390912095945050505050565b6109ec84848484611008565b50505050565b600160a060020a0382166000908152600560209081526040808320600160e060020a03198516845290915281205460ff161515610a3357610a338383610ed2565b50600160a060020a039182166000908152600360209081526040808320600160e060020a0319949094168352929052205416151590565b60606000806000806000806000610a808a610899565b9350896040516020018082805190602001908083835b60208310610ab55780518252601f199092019160209182019101610a96565b6001836020036101000a0380198251168184511680821785525050505050509050019150506040516020818303038152906040526040518082805190602001908083835b60208310610b185780518252601f199092019160209182019101610af9565b51815160209384036101000a60001901801990921691161790526040805192909401829003909120600081815260028352848120600160a060020a038c168252909252928120929750919550508b12159150610b7d9050578154600019019450610b81565b8894505b8185815481101515610b8f57fe5b600091825260209182902060029182020160018181015482546040805161010094831615949094026000190190911694909404601f81018690048602830186019094528382529194508493600160a060020a03909216928892859190830182828015610c3c5780601f10610c1157610100808354040283529160200191610c3c565b820191906000526020600020905b815481529060010190602001808311610c1f57829003601f168201915b5050505050925097509750975050505050509250925092565b600054600160a060020a031690565b6006546101009004600160a060020a031681565b600080610c8483610fe6565b15610ca9575081610c9584826109f2565b610ca0576000610ca2565b835b9150610cd2565b600160a060020a0380851660009081526003602090815260408083208784529091529020541691505b5092915050565b600260205282600052604060002060205281600052604060002081815481101515610d0057fe5b60009182526020918290206002918202018054604080516001831615610100026000190190921693909304601f8101859004850282018501909352828152909550935084925090830182828015610d985780601f10610d6d57610100808354040283529160200191610d98565b820191906000526020600020905b815481529060010190602001808311610d7b57829003601f168201915b50505060019093015491925050600160a060020a031682565b60065460ff16151560011415610dc657600080fd5b610dcf816112e2565b6006805460ff1916600117905560408051600160a060020a038316815290517f908408e307fc569b417f6cbec5d5a06f44a0a505ac0479b47d421a4b2fd6a1e69181900360200190a150565b60008080610e49857f01ffc9a700000000000000000000000000000000000000000000000000000000611343565b9092509050811580610e59575080155b15610e675760009250610eca565b610e7985600160e060020a0319611343565b9092509050811580610e8a57508015155b15610e985760009250610eca565b610ea28585611343565b9092509050600182148015610eb75750806001145b15610ec55760019250610eca565b600092505b505092915050565b610edc8282610e1b565b610ee7576000610ee9565b815b600160a060020a039283166000818152600360209081526040808320600160e060020a031996909616808452958252808320805473ffffffffffffffffffffffffffffffffffffffff19169590971694909417909555908152600584528181209281529190925220805460ff19166001179055565b610f66610c55565b600160a060020a03163314610f7a57600080fd5b600160a060020a0381161515610f8f57600080fd5b7f8be0079c531659141344cd1fd0a4f28419497f9722a3daafe3b4186f6b6457e0610fb8610c55565b60408051600160a060020a03928316815291841660208301528051918290030190a1610fe3816112e2565b50565b7bffffffffffffffffffffffffffffffffffffffffffffffffffffffff161590565b600080856040516020018082805190602001908083835b6020831061103e5780518252601f19909201916020918201910161101f565b6001836020036101000a0380198251168184511680821785525050505050509050019150506040516020818303038152906040526040518082805190602001908083835b602083106110a15780518252601f199092019160209182019101611082565b6001836020036101000a03801982511681845116808217855250505050505090500191505060405180910390209150600260008360001916600019168152602001908152602001600020600086600160a060020a0316600160a060020a03168152602001908152602001600020905080604080519081016040528086815260200185600160a060020a0316815250908060018154018082558091505090600182039060005260206000209060020201600090919290919091506000820151816000019080519060200190611176929190611390565b5060209182015160019182018054600160a060020a0392831673ffffffffffffffffffffffffffffffffffffffff19918216179091556000878152928452604080842080548c8516931683179055805180860192909252918816606082015260808082528b51908201528a517f9f2e1329455a8ae0812d5441c5db5ec67ed7008b99193c6f00973bb1a85d2d2495508b948b948b948b949384939184019260a08501928a0191908190849084905b8381101561123c578181015183820152602001611224565b50505050905090810190601f1680156112695780820380516001836020036101000a031916815260200191505b50838103825285518152855160209182019187019080838360005b8381101561129c578181015183820152602001611284565b50505050905090810190601f1680156112c95780820380516001836020036101000a031916815260200191505b50965050505050505060405180910390a1505050505050565b60008054600160a060020a03831673ffffffffffffffffffffffffffffffffffffffff19909116811790915560408051918252517f50146d0e3c60aa1d17a70635b05494f864e86144a2201275021014fbf08bafe29181900360200190a150565b6040517f01ffc9a7000000000000000000000000000000000000000000000000000000008082526004820183905260009182919060208160088189617530fa905190969095509350505050565b828054600181600116156101000203166002900490600052602060002090601f016020900481019282601f106113d157805160ff19168380011785556113fe565b828001600101855582156113fe579182015b828111156113fe5782518255916020019190600101906113e3565b5061140a92915061140e565b5090565b61060291905b8082111561140a57600081556001016114145600a165627a7a72305820e0b3ae2f263c9b21d5b1f57541e05400a3fdfdc6fc95b6de4ae17520ce3de3060029",
  "source": "pragma solidity ^0.4.23;\nimport \"./ContractRegistryBase.sol\";\n\n\n/// @title RootRegistryV0_1_0 \n/// @dev keeps track of the latest version of the registry\n///  this registry keeps track of all upgraded registries and their versions\n///  you can use it to see the full history of registry implementation addresses,\n///  but should not be used for anything else (including to get the current registry addr)\ncontract RootRegistryV0_1_0 is ContractRegistryBase {\n\n  constructor() public ContractRegistryBase() {}\n\n}\n",
  "sourcePath": "/home/ubuntu/dev/Kryptopal/kryptopal-contracts/contracts/registry/RootRegistryV0_1_0.sol",
  "compiler": {
    "name": "solc",
    "version": "0.4.24+commit.e67f0147.Emscripten.clang"
  },
  "schemaVersion": "2.0.1",
  "updatedAt": "2018-07-19T05:20:39.761Z"
}