{
  "contractName": "TestCalls",
  "abi": [
    {
      "constant": true,
      "inputs": [],
      "name": "lastMsgValue",
      "outputs": [
        {
          "name": "",
          "type": "uint256"
        }
      ],
      "payable": false,
      "stateMutability": "view",
      "type": "function"
    },
    {
      "constant": true,
      "inputs": [],
      "name": "uint1",
      "outputs": [
        {
          "name": "",
          "type": "uint256"
        }
      ],
      "payable": false,
      "stateMutability": "view",
      "type": "function"
    },
    {
      "constant": true,
      "inputs": [],
      "name": "lastMsgDataLength",
      "outputs": [
        {
          "name": "",
          "type": "uint256"
        }
      ],
      "payable": false,
      "stateMutability": "view",
      "type": "function"
    },
    {
      "constant": true,
      "inputs": [],
      "name": "byteArray1",
      "outputs": [
        {
          "name": "",
          "type": "bytes"
        }
      ],
      "payable": false,
      "stateMutability": "view",
      "type": "function"
    },
    {
      "constant": true,
      "inputs": [],
      "name": "uint2",
      "outputs": [
        {
          "name": "",
          "type": "uint256"
        }
      ],
      "payable": false,
      "stateMutability": "view",
      "type": "function"
    },
    {
      "inputs": [],
      "payable": false,
      "stateMutability": "nonpayable",
      "type": "constructor"
    },
    {
      "constant": false,
      "inputs": [
        {
          "name": "a",
          "type": "uint256"
        }
      ],
      "name": "receive1uint",
      "outputs": [],
      "payable": true,
      "stateMutability": "payable",
      "type": "function"
    },
    {
      "constant": false,
      "inputs": [
        {
          "name": "a",
          "type": "uint256"
        },
        {
          "name": "b",
          "type": "uint256"
        }
      ],
      "name": "receive2uints",
      "outputs": [],
      "payable": true,
      "stateMutability": "payable",
      "type": "function"
    },
    {
      "constant": false,
      "inputs": [
        {
          "name": "c",
          "type": "bytes"
        }
      ],
      "name": "receive1bytes",
      "outputs": [],
      "payable": true,
      "stateMutability": "payable",
      "type": "function"
    },
    {
      "constant": false,
      "inputs": [],
      "name": "nonPayable",
      "outputs": [],
      "payable": false,
      "stateMutability": "nonpayable",
      "type": "function"
    }
  ],
  "bytecode": "0x608060405234801561001057600080fd5b5036600055346001556103bf806100286000396000f3006080604052600436106100985763ffffffff7c0100000000000000000000000000000000000000000000000000000000600035041663463d1fca811461009d57806352da86d5146100c45780635e6feab4146100db57806371a9001c146100f057806388c7fb2814610105578063a8d82ed21461018f578063a8e996c61461019d578063afd9ee11146101e9578063eb61dc55146101fe575b600080fd5b3480156100a957600080fd5b506100b2610209565b60408051918252519081900360200190f35b3480156100d057600080fd5b506100d961020f565b005b3480156100e757600080fd5b506100b2610219565b3480156100fc57600080fd5b506100b261021f565b34801561011157600080fd5b5061011a610225565b6040805160208082528351818301528351919283929083019185019080838360005b8381101561015457818101518382015260200161013c565b50505050905090810190601f1680156101815780820380516001836020036101000a031916815260200191505b509250505060405180910390f35b6100d96004356024356102b3565b6040805160206004803580820135601f81018490048402850184019095528484526100d99436949293602493928401919081908401838280828437509497506102c69650505050505050565b3480156101f557600080fd5b506100b26102e5565b6100d96004356102eb565b60015481565b3660005534600155565b60025481565b60005481565b6004805460408051602060026001851615610100026000190190941693909304601f810184900484028201840190925281815292918301828280156102ab5780601f10610280576101008083540402835291602001916102ab565b820191906000526020600020905b81548152906001019060200180831161028e57829003601f168201915b505050505081565b3660005534600155600291909155600355565b366000553460015580516102e19060049060208401906102f8565b5050565b60035481565b3660005534600155600255565b828054600181600116156101000203166002900490600052602060002090601f016020900481019282601f1061033957805160ff1916838001178555610366565b82800160010185558215610366579182015b8281111561036657825182559160200191906001019061034b565b50610372929150610376565b5090565b61039091905b80821115610372576000815560010161037c565b905600a165627a7a7230582055e7a08fb68bfb86fc552dd50f875b1152675f3c36d784b2c17d4ccc5ee058270029",
  "source": "pragma solidity ^0.4.15;\n\n\n/// @title Contract for testing low-level calls issued from the multisig wallet\ncontract TestCalls {\n\n\t// msg.data.length of the latest call to \"receive\" methods\n\tuint public lastMsgDataLength;\n\n\t// msg.value of the latest call to \"receive\" methods\n\tuint public lastMsgValue;\n\n\tuint public uint1;\n\tuint public uint2;\n\tbytes public byteArray1;\n\n\tmodifier setMsgFields {\n\t\tlastMsgDataLength = msg.data.length;\n\t\tlastMsgValue = msg.value;\n\t\t_;\n\t}\n\n\tfunction TestCalls() setMsgFields public {\n\t\t// This constructor will be used to test the creation via multisig wallet\n\t}\n\n\tfunction receive1uint(uint a) setMsgFields payable public {\n\t\tuint1 = a;\n\t}\n\n\tfunction receive2uints(uint a, uint b) setMsgFields payable public {\n\t\tuint1 = a;\n\t\tuint2 = b;\n\t}\n\n\tfunction receive1bytes(bytes c) setMsgFields payable public {\n\t\tbyteArray1 = c;\n\t}\n\n\tfunction nonPayable() setMsgFields public {\n\t}\n\n}",
  "sourcePath": "/home/ubuntu/dev/Kryptopal/kryptopal-contracts/contracts/wallet/test/TestCalls.sol",
  "compiler": {
    "name": "solc",
    "version": "0.4.24+commit.e67f0147.Emscripten.clang"
  },
  "schemaVersion": "2.0.1",
  "updatedAt": "2018-07-19T04:57:35.040Z"
}