{
  "contractName": "UnstructuredUpgradeableTokenV1",
  "abi": [
    {
      "constant": true,
      "inputs": [],
      "name": "name",
      "outputs": [
        {
          "name": "",
          "type": "string"
        }
      ],
      "payable": false,
      "stateMutability": "view",
      "type": "function"
    },
    {
      "constant": false,
      "inputs": [],
      "name": "enableERC20",
      "outputs": [],
      "payable": false,
      "stateMutability": "nonpayable",
      "type": "function"
    },
    {
      "constant": false,
      "inputs": [
        {
          "name": "_spender",
          "type": "address"
        },
        {
          "name": "_value",
          "type": "uint256"
        }
      ],
      "name": "approve",
      "outputs": [
        {
          "name": "success",
          "type": "bool"
        }
      ],
      "payable": false,
      "stateMutability": "nonpayable",
      "type": "function"
    },
    {
      "constant": true,
      "inputs": [],
      "name": "initialized",
      "outputs": [
        {
          "name": "",
          "type": "bool"
        }
      ],
      "payable": false,
      "stateMutability": "view",
      "type": "function"
    },
    {
      "constant": true,
      "inputs": [],
      "name": "totalSupply",
      "outputs": [
        {
          "name": "",
          "type": "uint256"
        }
      ],
      "payable": false,
      "stateMutability": "view",
      "type": "function"
    },
    {
      "constant": false,
      "inputs": [
        {
          "name": "_from",
          "type": "address"
        },
        {
          "name": "_to",
          "type": "address"
        },
        {
          "name": "_value",
          "type": "uint256"
        }
      ],
      "name": "transferFrom",
      "outputs": [
        {
          "name": "success",
          "type": "bool"
        }
      ],
      "payable": false,
      "stateMutability": "nonpayable",
      "type": "function"
    },
    {
      "constant": true,
      "inputs": [],
      "name": "decimals",
      "outputs": [
        {
          "name": "",
          "type": "uint8"
        }
      ],
      "payable": false,
      "stateMutability": "view",
      "type": "function"
    },
    {
      "constant": true,
      "inputs": [],
      "name": "newStateVariable",
      "outputs": [
        {
          "name": "",
          "type": "string"
        }
      ],
      "payable": false,
      "stateMutability": "view",
      "type": "function"
    },
    {
      "constant": false,
      "inputs": [
        {
          "name": "_operator",
          "type": "address"
        },
        {
          "name": "_value",
          "type": "uint256"
        }
      ],
      "name": "authorizeOperator",
      "outputs": [],
      "payable": false,
      "stateMutability": "nonpayable",
      "type": "function"
    },
    {
      "constant": true,
      "inputs": [],
      "name": "granularity",
      "outputs": [
        {
          "name": "",
          "type": "uint256"
        }
      ],
      "payable": false,
      "stateMutability": "view",
      "type": "function"
    },
    {
      "constant": false,
      "inputs": [
        {
          "name": "_from",
          "type": "address"
        },
        {
          "name": "_to",
          "type": "address"
        },
        {
          "name": "_value",
          "type": "uint256"
        },
        {
          "name": "_userData",
          "type": "bytes"
        },
        {
          "name": "_operatorData",
          "type": "bytes"
        }
      ],
      "name": "operatorSend",
      "outputs": [],
      "payable": false,
      "stateMutability": "nonpayable",
      "type": "function"
    },
    {
      "constant": true,
      "inputs": [
        {
          "name": "_tokenHolder",
          "type": "address"
        }
      ],
      "name": "balanceOf",
      "outputs": [
        {
          "name": "",
          "type": "uint256"
        }
      ],
      "payable": false,
      "stateMutability": "view",
      "type": "function"
    },
    {
      "constant": false,
      "inputs": [
        {
          "name": "_name",
          "type": "string"
        },
        {
          "name": "_symbol",
          "type": "string"
        },
        {
          "name": "_granularity",
          "type": "uint256"
        },
        {
          "name": "_totalSupply",
          "type": "uint256"
        },
        {
          "name": "_eip820RegistryAddr",
          "type": "address"
        },
        {
          "name": "_owner",
          "type": "address"
        }
      ],
      "name": "initialize",
      "outputs": [],
      "payable": false,
      "stateMutability": "nonpayable",
      "type": "function"
    },
    {
      "constant": true,
      "inputs": [],
      "name": "owner",
      "outputs": [
        {
          "name": "",
          "type": "address"
        }
      ],
      "payable": false,
      "stateMutability": "view",
      "type": "function"
    },
    {
      "constant": false,
      "inputs": [
        {
          "name": "_tokenHolder",
          "type": "address"
        },
        {
          "name": "_value",
          "type": "uint256"
        },
        {
          "name": "_operatorData",
          "type": "bytes"
        }
      ],
      "name": "mint",
      "outputs": [],
      "payable": false,
      "stateMutability": "nonpayable",
      "type": "function"
    },
    {
      "constant": false,
      "inputs": [
        {
          "name": "_operator",
          "type": "address"
        }
      ],
      "name": "authorizeOperator",
      "outputs": [],
      "payable": false,
      "stateMutability": "nonpayable",
      "type": "function"
    },
    {
      "constant": true,
      "inputs": [],
      "name": "symbol",
      "outputs": [
        {
          "name": "",
          "type": "string"
        }
      ],
      "payable": false,
      "stateMutability": "view",
      "type": "function"
    },
    {
      "constant": false,
      "inputs": [
        {
          "name": "_to",
          "type": "address"
        },
        {
          "name": "_value",
          "type": "uint256"
        },
        {
          "name": "_userData",
          "type": "bytes"
        }
      ],
      "name": "send",
      "outputs": [],
      "payable": false,
      "stateMutability": "nonpayable",
      "type": "function"
    },
    {
      "constant": false,
      "inputs": [
        {
          "name": "_tokenHolder",
          "type": "address"
        },
        {
          "name": "_value",
          "type": "uint256"
        }
      ],
      "name": "burn",
      "outputs": [],
      "payable": false,
      "stateMutability": "nonpayable",
      "type": "function"
    },
    {
      "constant": false,
      "inputs": [
        {
          "name": "_to",
          "type": "address"
        },
        {
          "name": "_value",
          "type": "uint256"
        }
      ],
      "name": "transfer",
      "outputs": [
        {
          "name": "success",
          "type": "bool"
        }
      ],
      "payable": false,
      "stateMutability": "nonpayable",
      "type": "function"
    },
    {
      "constant": false,
      "inputs": [
        {
          "name": "_to",
          "type": "address"
        },
        {
          "name": "_value",
          "type": "uint256"
        }
      ],
      "name": "send",
      "outputs": [],
      "payable": false,
      "stateMutability": "nonpayable",
      "type": "function"
    },
    {
      "constant": true,
      "inputs": [
        {
          "name": "_operator",
          "type": "address"
        },
        {
          "name": "_tokenHolder",
          "type": "address"
        }
      ],
      "name": "isOperatorFor",
      "outputs": [
        {
          "name": "",
          "type": "bool"
        }
      ],
      "payable": false,
      "stateMutability": "view",
      "type": "function"
    },
    {
      "constant": true,
      "inputs": [
        {
          "name": "_owner",
          "type": "address"
        },
        {
          "name": "_spender",
          "type": "address"
        }
      ],
      "name": "allowance",
      "outputs": [
        {
          "name": "remaining",
          "type": "uint256"
        }
      ],
      "payable": false,
      "stateMutability": "view",
      "type": "function"
    },
    {
      "constant": false,
      "inputs": [
        {
          "name": "_operator",
          "type": "address"
        },
        {
          "name": "_to",
          "type": "address"
        },
        {
          "name": "_amount",
          "type": "uint256"
        },
        {
          "name": "_userData",
          "type": "bytes"
        }
      ],
      "name": "proxySend",
      "outputs": [],
      "payable": false,
      "stateMutability": "nonpayable",
      "type": "function"
    },
    {
      "constant": false,
      "inputs": [
        {
          "name": "_operator",
          "type": "address"
        },
        {
          "name": "_from",
          "type": "address"
        },
        {
          "name": "_to",
          "type": "address"
        },
        {
          "name": "_value",
          "type": "uint256"
        },
        {
          "name": "_userData",
          "type": "bytes"
        },
        {
          "name": "_operatorData",
          "type": "bytes"
        }
      ],
      "name": "operatorSend",
      "outputs": [],
      "payable": false,
      "stateMutability": "nonpayable",
      "type": "function"
    },
    {
      "constant": false,
      "inputs": [
        {
          "name": "newOwner",
          "type": "address"
        }
      ],
      "name": "transferOwnership",
      "outputs": [],
      "payable": false,
      "stateMutability": "nonpayable",
      "type": "function"
    },
    {
      "constant": false,
      "inputs": [],
      "name": "disableERC20",
      "outputs": [],
      "payable": false,
      "stateMutability": "nonpayable",
      "type": "function"
    },
    {
      "constant": false,
      "inputs": [
        {
          "name": "_operator",
          "type": "address"
        }
      ],
      "name": "revokeOperator",
      "outputs": [],
      "payable": false,
      "stateMutability": "nonpayable",
      "type": "function"
    },
    {
      "anonymous": false,
      "inputs": [
        {
          "indexed": true,
          "name": "from",
          "type": "address"
        },
        {
          "indexed": true,
          "name": "to",
          "type": "address"
        },
        {
          "indexed": false,
          "name": "amount",
          "type": "uint256"
        },
        {
          "indexed": false,
          "name": "userData",
          "type": "bytes"
        },
        {
          "indexed": true,
          "name": "operator",
          "type": "address"
        },
        {
          "indexed": false,
          "name": "operatorData",
          "type": "bytes"
        }
      ],
      "name": "Sent",
      "type": "event"
    },
    {
      "anonymous": false,
      "inputs": [
        {
          "indexed": true,
          "name": "to",
          "type": "address"
        },
        {
          "indexed": false,
          "name": "amount",
          "type": "uint256"
        },
        {
          "indexed": true,
          "name": "operator",
          "type": "address"
        },
        {
          "indexed": false,
          "name": "operatorData",
          "type": "bytes"
        }
      ],
      "name": "Minted",
      "type": "event"
    },
    {
      "anonymous": false,
      "inputs": [
        {
          "indexed": true,
          "name": "from",
          "type": "address"
        },
        {
          "indexed": false,
          "name": "amount",
          "type": "uint256"
        }
      ],
      "name": "Burnt",
      "type": "event"
    },
    {
      "anonymous": false,
      "inputs": [
        {
          "indexed": true,
          "name": "operator",
          "type": "address"
        },
        {
          "indexed": true,
          "name": "tokenHolder",
          "type": "address"
        }
      ],
      "name": "AuthorizedOperator",
      "type": "event"
    },
    {
      "anonymous": false,
      "inputs": [
        {
          "indexed": true,
          "name": "operator",
          "type": "address"
        },
        {
          "indexed": true,
          "name": "tokenHolder",
          "type": "address"
        }
      ],
      "name": "RevokedOperator",
      "type": "event"
    },
    {
      "anonymous": false,
      "inputs": [
        {
          "indexed": true,
          "name": "from",
          "type": "address"
        },
        {
          "indexed": true,
          "name": "to",
          "type": "address"
        },
        {
          "indexed": false,
          "name": "value",
          "type": "uint256"
        }
      ],
      "name": "Transfer",
      "type": "event"
    },
    {
      "anonymous": false,
      "inputs": [
        {
          "indexed": true,
          "name": "owner",
          "type": "address"
        },
        {
          "indexed": true,
          "name": "spender",
          "type": "address"
        },
        {
          "indexed": false,
          "name": "value",
          "type": "uint256"
        }
      ],
      "name": "Approval",
      "type": "event"
    },
    {
      "anonymous": false,
      "inputs": [
        {
          "indexed": false,
          "name": "previousOwner",
          "type": "address"
        },
        {
          "indexed": false,
          "name": "newOwner",
          "type": "address"
        }
      ],
      "name": "OwnershipTransferred",
      "type": "event"
    },
    {
      "anonymous": false,
      "inputs": [
        {
          "indexed": false,
          "name": "newOwner",
          "type": "address"
        }
      ],
      "name": "OwnerSet",
      "type": "event"
    },
    {
      "constant": false,
      "inputs": [],
      "name": "addNewState",
      "outputs": [],
      "payable": false,
      "stateMutability": "nonpayable",
      "type": "function"
    },
    {
      "constant": true,
      "inputs": [],
      "name": "getNewState",
      "outputs": [
        {
          "name": "",
          "type": "string"
        }
      ],
      "payable": false,
      "stateMutability": "view",
      "type": "function"
    },
    {
      "constant": true,
      "inputs": [],
      "name": "funcThatV2ShouldDeprecate",
      "outputs": [
        {
          "name": "",
          "type": "string"
        }
      ],
      "payable": false,
      "stateMutability": "pure",
      "type": "function"
    }
  ],
  "bytecode": "0x60806040526100163364010000000061001b810204565b61006f565b60008054600160a060020a038316600160a060020a0319909116811790915560408051918252517f50146d0e3c60aa1d17a70635b05494f864e86144a2201275021014fbf08bafe29181900360200190a150565b6121ca8061007e6000396000f3006080604052600436106101715763ffffffff60e060020a60003504166306fdde038114610176578063070c87f914610200578063095ea7b314610217578063158ef93e1461024f57806318160ddd146102645780631bf291c61461028b57806323b872dd146102a0578063313ce567146102ca57806336916c77146102f557806347980aa31461030a578063551e68ee1461032e578063556f0dc71461034357806362ad1b831461035857806370a0823114610405578063767ab122146104265780638da5cb5b146104dc57806394d008ef1461050d578063959b8c3f1461057657806395d89b41146105975780639bd9bbc6146105ac5780639dc29fac14610615578063a9059cbb14610639578063c0ad8adc1461065d578063d0679d3414610672578063d95b637114610696578063dd62ed3e146106bd578063e51c090e146106e4578063ee91444c14610753578063f2fde38b1461080c578063f922f2161461082d578063fad8b32a14610842575b600080fd5b34801561018257600080fd5b5061018b610863565b6040805160208082528351818301528351919283929083019185019080838360005b838110156101c55781810151838201526020016101ad565b50505050905090810190601f1680156101f25780820380516001836020036101000a031916815260200191505b509250505060405180910390f35b34801561020c57600080fd5b506102156108f7565b005b34801561022357600080fd5b5061023b600160a060020a0360043516602435610961565b604080519115158252519081900360200190f35b34801561025b57600080fd5b5061023b6109e1565b34801561027057600080fd5b506102796109ea565b60408051918252519081900360200190f35b34801561029757600080fd5b506102156109f0565b3480156102ac57600080fd5b5061023b600160a060020a0360043581169060243516604435610a37565b3480156102d657600080fd5b506102df610b0d565b6040805160ff9092168252519081900360200190f35b34801561030157600080fd5b5061018b610b2c565b34801561031657600080fd5b50610215600160a060020a0360043516602435610bba565b34801561033a57600080fd5b5061018b610ca5565b34801561034f57600080fd5b50610279610cdc565b34801561036457600080fd5b50604080516020601f60643560048181013592830184900484028501840190955281845261021594600160a060020a03813581169560248035909216956044359536956084940191819084018382808284375050604080516020601f89358b018035918201839004830284018301909452808352979a999881019791965091820194509250829150840183828082843750949750610ce29650505050505050565b34801561041157600080fd5b50610279600160a060020a0360043516610cf7565b34801561043257600080fd5b506040805160206004803580820135601f810184900484028501840190955284845261021594369492936024939284019190819084018382808284375050604080516020601f89358b018035918201839004830284018301909452808352979a99988101979196509182019450925082915084018382808284375094975050843595505050602083013592600160a060020a03604082013581169350606090910135169050610d12565b3480156104e857600080fd5b506104f1610e16565b60408051600160a060020a039092168252519081900360200190f35b34801561051957600080fd5b50604080516020600460443581810135601f8101849004840285018401909552848452610215948235600160a060020a0316946024803595369594606494920191908190840183828082843750949750610e259650505050505050565b34801561058257600080fd5b50610215600160a060020a0360043516610fc3565b3480156105a357600080fd5b5061018b611032565b3480156105b857600080fd5b50604080516020600460443581810135601f8101849004840285018401909552848452610215948235600160a060020a03169460248035953695946064949201919081908401838280828437509497506110939650505050505050565b34801561062157600080fd5b50610215600160a060020a03600435166024356110b3565b34801561064557600080fd5b5061023b600160a060020a03600435166024356111da565b34801561066957600080fd5b5061018b61122c565b34801561067e57600080fd5b50610215600160a060020a036004351660243561128d565b3480156106a257600080fd5b5061023b600160a060020a03600435811690602435166112bd565b3480156106c957600080fd5b50610279600160a060020a036004358116906024351661130b565b3480156106f057600080fd5b50604080516020601f60643560048181013592830184900484028501840190955281845261021594600160a060020a0381358116956024803590921695604435953695608494019181908401838280828437509497506113509650505050505050565b34801561075f57600080fd5b50604080516020601f60843560048181013592830184900484028501840190955281845261021594600160a060020a03813581169560248035831696604435909316956064359536959460a49493919091019190819084018382808284375050604080516020601f89358b018035918201839004830284018301909452808352979a9998810197919650918201945092508291508401838280828437509497506113769650505050505050565b34801561081857600080fd5b50610215600160a060020a03600435166113a3565b34801561083957600080fd5b50610215611428565b34801561084e57600080fd5b50610215600160a060020a036004351661148d565b60028054604080516020601f60001961010060018716150201909416859004938401819004810282018101909252828152606093909290918301828280156108ec5780601f106108c1576101008083540402835291602001916108ec565b820191906000526020600020905b8154815290600101906020018083116108cf57829003601f168201915b505050505090505b90565b6108ff610e16565b600160a060020a0316331461091357600080fd5b6006805461ff001916610100178155604080518082019091529081527f4965726332300000000000000000000000000000000000000000000000000000602082015261095f903061150c565b565b600654600090610100900460ff16151561097a57600080fd5b336000818152600960209081526040808320600160a060020a03881680855290835292819020869055805186815290519293927f8c5be1e5ebec7d5bd14f71427d1e84f3dd0314c0f7b2291e5b200ac8c7c3b925929181900390910190a350600192915050565b60065460ff1690565b60055490565b6040805180820190915260098082527f6e657720737461746500000000000000000000000000000000000000000000006020909201918252610a3491600a91612106565b50565b600654600090610100900460ff161515610a5057600080fd5b600160a060020a0384166000908152600960209081526040808320338452909152902054821115610a8057600080fd5b600160a060020a0384166000908152600960209081526040808320338452909152902054610ab4908363ffffffff6115fb16565b600160a060020a03851660009081526009602090815260408083203380855290835281842094909455805180830182528381528151928301909152828252610b0393889388938893929161160d565b5060019392505050565b600654600090610100900460ff161515610b2657600080fd5b50601290565b600a805460408051602060026001851615610100026000190190941693909304601f81018490048402820184019092528181529291830182828015610bb25780601f10610b8757610100808354040283529160200191610bb2565b820191906000526020600020905b815481529060010190602001808311610b9557829003601f168201915b505050505081565b600160a060020a038216331415610bd057600080fd5b336000818152600960209081526040808320600160a060020a0387168452825280832085905560088252808320848452825291829020805460ff191660019081179091558251808401845260038082527f3078300000000000000000000000000000000000000000000000000000000000828501819052855180870190965290855292840192909252610c6b9386939092849287929061186e565b6040513390600160a060020a038416907ff4caeb2d6ca8932a215a353d0703c326ec2d81fc68170f320eb2ab49e9df61f990600090a35050565b60408051808201909152601c81527f492077696c6c206e6f742062652063616c6c61626c6520696e20563200000000602082015290565b60045490565b610cf0338686868686611376565b5050505050565b600160a060020a031660009081526007602052604090205490565b60065460ff1615610d2257600080fd5b8551610d35906002906020890190612106565b508451610d49906003906020880190612106565b5060058390556006805461ff0019166101001790556001841015610d6c57600080fd5b6004849055610d7a81611a69565b610d8382611aca565b610dc26040805190810160405280600781526020017f49454950373737000000000000000000000000000000000000000000000000008152503061150c565b610e016040805190810160405280600681526020017f49657263323000000000000000000000000000000000000000000000000000008152503061150c565b50506006805460ff1916600117905550505050565b600054600160a060020a031690565b610e2e82611af9565b600554610e41908363ffffffff611b3616565b600555600160a060020a038316600090815260076020526040902054610e6d908363ffffffff611b3616565b6007600085600160a060020a0316600160a060020a0316815260200190815260200160002081905550610eb733600085856020604051908101604052806000815250866001611b50565b33600160a060020a031683600160a060020a03167ffedc9d3d7d2dc09d33f2454ca41b1ef178b3bbf37b69fa47d602a8738d5ebdba84846040518083815260200180602001828103825283818151815260200191508051906020019080838360005b83811015610f31578181015183820152602001610f19565b50505050905090810190601f168015610f5e5780820380516001836020036101000a031916815260200191505b50935050505060405180910390a3600654610100900460ff1615610fbe57604080518381529051600160a060020a038516916000917fddf252ad1be2c89b69c2b068fc378daa952ba7f163c4a11628f55a4df523b3ef9181900360200190a35b505050565b600160a060020a038116331415610fd957600080fd5b600160a060020a0381166000818152600860209081526040808320338085529252808320805460ff19166001179055519092917ff4caeb2d6ca8932a215a353d0703c326ec2d81fc68170f320eb2ab49e9df61f991a350565b60038054604080516020601f60026000196101006001881615020190951694909404938401819004810282018101909252828152606093909290918301828280156108ec5780601f106108c1576101008083540402835291602001916108ec565b610fbe33848484336020604051908101604052806000815250600161160d565b6110bb610e16565b600160a060020a031633146110cf57600080fd5b6110d881611af9565b806110e283610cf7565b10156110ed57600080fd5b600160a060020a038216600090815260076020526040902054611116908263ffffffff6115fb16565b600160a060020a038316600090815260076020526040902055600554611142908263ffffffff6115fb16565b600555604080518281529051600160a060020a038416917f919f7e2092ffcc9d09f599be18d8152860b0c054df788a33bc549cdd9d0f15b1919081900360200190a2600654610100900460ff16156111d657604080518281529051600091600160a060020a038516917fddf252ad1be2c89b69c2b068fc378daa952ba7f163c4a11628f55a4df523b3ef9181900360200190a35b5050565b600654600090610100900460ff1615156111f357600080fd5b6112233384846020604051908101604052806000815250336020604051908101604052806000815250600061160d565b50600192915050565b600a8054604080516020601f60026000196101006001881615020190951694909404938401819004810282018101909252828152606093909290918301828280156108ec5780601f106108c1576101008083540402835291602001916108ec565b6111d63383836020604051908101604052806000815250336020604051908101604052806000815250600161160d565b600081600160a060020a031683600160a060020a031614806113045750600160a060020a0380841660009081526008602090815260408083209386168352929052205460ff165b9392505050565b600654600090610100900460ff16151561132457600080fd5b50600160a060020a03918216600090815260096020908152604080832093909416825291909152205490565b61135984610fc3565b611367848484846001611c56565b6113708461148d565b50505050565b61138086866112bd565b151561138b57600080fd5b61139b858585853386600061160d565b505050505050565b6113ab610e16565b600160a060020a031633146113bf57600080fd5b600160a060020a03811615156113d457600080fd5b7f8be0079c531659141344cd1fd0a4f28419497f9722a3daafe3b4186f6b6457e06113fd610e16565b60408051600160a060020a03928316815291841660208301528051918290030190a1610a3481611a69565b611430610e16565b600160a060020a0316331461144457600080fd5b6006805461ff0019168155604080518082019091529081527f4965726332300000000000000000000000000000000000000000000000000000602082015261095f90600061150c565b600160a060020a0381163314156114a357600080fd5b336000818152600960209081526040808320600160a060020a03861680855290835281842084905560088352818420858552909252808320805460ff191690555190917f50546e66e5f44d728365dc3908c63bc5cfeeab470722c1677e3073a6ac294aa191a350565b6000826040518082805190602001908083835b6020831061153e5780518252601f19909201916020918201910161151f565b5181516020939093036101000a6000190180199091169216919091179052604080519190930181900381206001547f29965a1d00000000000000000000000000000000000000000000000000000000835230600484015260248301829052600160a060020a03898116604485015294519197509390931694506329965a1d9350606480820193600093509182900301818387803b1580156115de57600080fd5b505af11580156115f2573d6000803e3d6000fd5b50505050505050565b60008282111561160757fe5b50900390565b61161685611af9565b611624838888888887611dc1565b600160a060020a038616151561163957600080fd5b600160a060020a03871660009081526007602052604090205485111561165e57600080fd5b600160a060020a038716600090815260076020526040902054611687908663ffffffff6115fb16565b600160a060020a0380891660009081526007602052604080822093909355908816815220546116bc908663ffffffff611b3616565b600160a060020a0387166000908152600760205260409020556116e483888888888787611b50565b82600160a060020a031686600160a060020a031688600160a060020a03167fc6bcce9531825c4f1772efa373d6fa8ccb63064ff1fd841aa151c8e8dd9bb39b888887604051808481526020018060200180602001838103835285818151815260200191508051906020019080838360005b8381101561176d578181015183820152602001611755565b50505050905090810190601f16801561179a5780820380516001836020036101000a031916815260200191505b50838103825284518152845160209182019186019080838360005b838110156117cd5781810151838201526020016117b5565b50505050905090810190601f1680156117fa5780820380516001836020036101000a031916815260200191505b509550505050505060405180910390a4600654610100900460ff16156115f25785600160a060020a031687600160a060020a03167fddf252ad1be2c89b69c2b068fc378daa952ba7f163c4a11628f55a4df523b3ef876040518082815260200191505060405180910390a350505050505050565b60006118af866040805190810160405280601581526020017f49454950373737546f6b656e734f70657261746f720000000000000000000000815250611f9c565b9050600160a060020a03811615611a455780600160a060020a03166332035ca68989898989896040518763ffffffff1660e060020a0281526004018087600160a060020a0316600160a060020a0316815260200186600160a060020a0316600160a060020a0316815260200185600160a060020a0316600160a060020a031681526020018481526020018060200180602001838103835285818151815260200191508051906020019080838360005b8381101561197657818101518382015260200161195e565b50505050905090810190601f1680156119a35780820380516001836020036101000a031916815260200191505b50838103825284518152845160209182019186019080838360005b838110156119d65781810151838201526020016119be565b50505050905090810190601f168015611a035780820380516001836020036101000a031916815260200191505b5098505050505050505050600060405180830381600087803b158015611a2857600080fd5b505af1158015611a3c573d6000803e3d6000fd5b50505050611a5f565b8115611a5f57611a548661209a565b1515611a5f57600080fd5b5050505050505050565b60008054600160a060020a03831673ffffffffffffffffffffffffffffffffffffffff19909116811790915560408051918252517f50146d0e3c60aa1d17a70635b05494f864e86144a2201275021014fbf08bafe29181900360200190a150565b6001805473ffffffffffffffffffffffffffffffffffffffff1916600160a060020a0392909216919091179055565b600081118015611b2b57506004548190611b2990611b1d838263ffffffff6120c416565b9063ffffffff6120db16565b145b1515610a3457600080fd5b600082820183811015611b4557fe5b8091505b5092915050565b6000611b91866040805190810160405280601681526020017f49454950373737546f6b656e73526563697069656e7400000000000000000000815250611f9c565b9050600160a060020a03811615611a455780600160a060020a03166223de298989898989896040518763ffffffff1660e060020a0281526004018087600160a060020a0316600160a060020a0316815260200186600160a060020a0316600160a060020a0316815260200185600160a060020a0316600160a060020a031681526020018481526020018060200180602001838103835285818151815260200191508051906020019080838360008381101561197657818101518382015260200161195e565b6000611c97866040805190810160405280600d81526020017f4950726f78795061796d656e7400000000000000000000000000000000000000815250611f9c565b9050600160a060020a03811615611da7576040517fe51c090e0000000000000000000000000000000000000000000000000000000081523360048201818152600160a060020a038881166024850152604484018890526080606485019081528751608486015287519186169463e51c090e94938b938b938b93909160a490910190602085019080838360005b83811015611d3b578181015183820152602001611d23565b50505050905090810190601f168015611d685780820380516001836020036101000a031916815260200191505b5095505050505050600060405180830381600087803b158015611d8a57600080fd5b505af1158015611d9e573d6000803e3d6000fd5b5050505061139b565b811561139b57611db68561209a565b151561139b57600080fd5b6000611e02866040805190810160405280601381526020017f49454950373737546f6b656e7353656e64657200000000000000000000000000815250611f9c565b9050600160a060020a038116156115f25780600160a060020a03166375ab97828888888888886040518763ffffffff1660e060020a0281526004018087600160a060020a0316600160a060020a0316815260200186600160a060020a0316600160a060020a0316815260200185600160a060020a0316600160a060020a031681526020018481526020018060200180602001838103835285818151815260200191508051906020019080838360005b83811015611ec9578181015183820152602001611eb1565b50505050905090810190601f168015611ef65780820380516001836020036101000a031916815260200191505b50838103825284518152845160209182019186019080838360005b83811015611f29578181015183820152602001611f11565b50505050905090810190601f168015611f565780820380516001836020036101000a031916815260200191505b5098505050505050505050600060405180830381600087803b158015611f7b57600080fd5b505af1158015611f8f573d6000803e3d6000fd5b5050505050505050505050565b600080826040518082805190602001908083835b60208310611fcf5780518252601f199092019160209182019101611fb0565b51815160209384036101000a6000190180199092169116179052604080519290940182900382206001547faabbb8ca000000000000000000000000000000000000000000000000000000008452600160a060020a038c8116600486015260248501839052955191985094909416955063aabbb8ca945060448083019491935090918290030181600087803b15801561206657600080fd5b505af115801561207a573d6000803e3d6000fd5b505050506040513d602081101561209057600080fd5b5051949350505050565b600080600160a060020a03831615156120b657600091506120be565b5050803b8015905b50919050565b60008082848115156120d257fe5b04949350505050565b6000808315156120ee5760009150611b49565b508282028284828115156120fe57fe5b0414611b4557fe5b828054600181600116156101000203166002900490600052602060002090601f016020900481019282601f1061214757805160ff1916838001178555612174565b82800160010185558215612174579182015b82811115612174578251825591602001919060010190612159565b50612180929150612184565b5090565b6108f491905b80821115612180576000815560010161218a5600a165627a7a72305820bbcf4423d64a8b8d5af6157bda0c05e07c0f50c51e6048c1662601fb1733442b0029",
  "source": "pragma solidity ^0.4.24;\n\nimport \"./UnstructuredUpgradeableTokenV0.sol\";\n\n\n/**\n* @title UnstructuredUpgradeableTokenV1\n* @dev Version 0 of a token to show upgradeability using unstructured storage.\n*/\ncontract UnstructuredUpgradeableTokenV1 is UnstructuredUpgradeableTokenV0 {\n\n  string public newStateVariable;\n\n  function addNewState() public {\n    newStateVariable = \"new state\";\n  }\n  function getNewState() public view returns(string) {\n    return newStateVariable;\n  }\n  function funcThatV2ShouldDeprecate() public pure returns(string) {\n    return \"I will not be callable in V2\";\n  }\n}",
  "sourcePath": "/home/ubuntu/dev/Kryptopal/kryptopal-contracts/contracts/upgradeable/unstructured/test/UnstructuredUpgradeableTokenV1.sol",
  "compiler": {
    "name": "solc",
    "version": "0.4.24+commit.e67f0147.Emscripten.clang"
  },
  "schemaVersion": "2.0.1",
  "updatedAt": "2018-07-19T04:57:34.954Z"
}