{
  "contractName": "UnstructuredUpgradeableTokenV3",
  "abi": [
    {
      "constant": true,
      "inputs": [],
      "name": "mTotalSupply",
      "outputs": [
        {
          "name": "",
          "type": "uint256"
        }
      ],
      "payable": false,
      "stateMutability": "view",
      "type": "function"
    },
    {
      "constant": true,
      "inputs": [],
      "name": "theOnlyFunction",
      "outputs": [
        {
          "name": "",
          "type": "string"
        }
      ],
      "payable": false,
      "stateMutability": "pure",
      "type": "function"
    },
    {
      "constant": true,
      "inputs": [],
      "name": "checkStateNotPreserved",
      "outputs": [
        {
          "name": "",
          "type": "uint256"
        }
      ],
      "payable": false,
      "stateMutability": "view",
      "type": "function"
    },
    {
      "constant": true,
      "inputs": [
        {
          "name": "_tokenHolder",
          "type": "address"
        }
      ],
      "name": "balanceOf",
      "outputs": [
        {
          "name": "",
          "type": "uint256"
        }
      ],
      "payable": false,
      "stateMutability": "view",
      "type": "function"
    }
  ],
  "bytecode": "0x608060405234801561001057600080fd5b506101f0806100206000396000f3006080604052600436106100605763ffffffff7c010000000000000000000000000000000000000000000000000000000060003504166257a891811461006557806341c792641461008c57806370a08231146101165780639804f43014610144575b600080fd5b34801561007157600080fd5b5061007a610159565b60408051918252519081900360200190f35b34801561009857600080fd5b506100a161015f565b6040805160208082528351818301528351919283929083019185019080838360005b838110156100db5781810151838201526020016100c3565b50505050905090810190601f1680156101085780820380516001836020036101000a031916815260200191505b509250505060405180910390f35b34801561012257600080fd5b5061007a73ffffffffffffffffffffffffffffffffffffffff60043516610196565b34801561015057600080fd5b5061007a6101be565b60005481565b60408051808201909152601181527f746865206f6e6c792066756e6374696f6e000000000000000000000000000000602082015290565b73ffffffffffffffffffffffffffffffffffffffff1660009081526001602052604090205490565b600054905600a165627a7a7230582094382e7b117fc9ff312fa0dc35f2960e65c3ecf8dae74dfdb512d2981f558b580029",
  "source": "pragma solidity ^0.4.24;\n\n\n/**\n* @title UnstructuredUpgradeableTokenV3\n* @dev Version 3 of a token to show upgradeability using unstructured storage.\n* What happens when you create a contract without inheritance, and without calling \n* the initialize function properly, is that you can end up with variables/state\n* which are misaligned with the proxy delegating its call. This contract shows an\n* example of Upgrading a contract, losing access (kind of) to state, but the operator\n* can just upgrade to a diff version that properly inherits/inits, and they will regain access\n* to the state.\n*/\ncontract UnstructuredUpgradeableTokenV3  {\n\n  uint256 public mTotalSupply;\n  mapping(address => uint256) private mBalances;\n\n  function theOnlyFunction() public pure returns(string) {\n    //rather, the only one that will return anything that is not just garbage\n    // likely pointing to the wrong storage loc\n    return \"the only function\"; \n  }\n  function checkStateNotPreserved() public view returns(uint256) {\n    return mTotalSupply;\n  }\n  function balanceOf(address _tokenHolder) public view returns (uint256) {\n    return mBalances[_tokenHolder];\n  }\n\n}",
  "sourcePath": "/home/ubuntu/dev/Kryptopal/kryptopal-contracts/contracts/upgradeable/unstructured/test/UnstructuredUpgradeableTokenV3.sol",
  "compiler": {
    "name": "solc",
    "version": "0.4.24+commit.e67f0147.Emscripten.clang"
  },
  "schemaVersion": "2.0.1",
  "updatedAt": "2018-07-19T04:57:34.956Z"
}