{
  "contractName": "UnstructuredOwnedUpgradeabilityProxy",
  "abi": [
    {
      "constant": true,
      "inputs": [],
      "name": "implementation",
      "outputs": [
        {
          "name": "impl",
          "type": "address"
        }
      ],
      "payable": false,
      "stateMutability": "view",
      "type": "function"
    },
    {
      "inputs": [
        {
          "name": "registryAddr",
          "type": "address"
        }
      ],
      "payable": false,
      "stateMutability": "nonpayable",
      "type": "constructor"
    },
    {
      "payable": true,
      "stateMutability": "payable",
      "type": "fallback"
    },
    {
      "anonymous": false,
      "inputs": [
        {
          "indexed": false,
          "name": "previousOwner",
          "type": "address"
        },
        {
          "indexed": false,
          "name": "newOwner",
          "type": "address"
        }
      ],
      "name": "ProxyOwnershipTransferred",
      "type": "event"
    },
    {
      "anonymous": false,
      "inputs": [
        {
          "indexed": false,
          "name": "upgradeabilityOwner",
          "type": "address"
        }
      ],
      "name": "UpgradeabilityOwnerSet",
      "type": "event"
    },
    {
      "anonymous": false,
      "inputs": [
        {
          "indexed": false,
          "name": "registryAddress",
          "type": "address"
        }
      ],
      "name": "RegistryAddrSet",
      "type": "event"
    },
    {
      "anonymous": false,
      "inputs": [
        {
          "indexed": false,
          "name": "version",
          "type": "string"
        },
        {
          "indexed": true,
          "name": "implementation",
          "type": "address"
        }
      ],
      "name": "Upgraded",
      "type": "event"
    },
    {
      "anonymous": false,
      "inputs": [
        {
          "indexed": true,
          "name": "impPosition",
          "type": "address"
        }
      ],
      "name": "ImplementationPositionSet",
      "type": "event"
    },
    {
      "constant": true,
      "inputs": [],
      "name": "proxyOwner",
      "outputs": [
        {
          "name": "owner",
          "type": "address"
        }
      ],
      "payable": false,
      "stateMutability": "view",
      "type": "function"
    },
    {
      "constant": true,
      "inputs": [],
      "name": "registryAddr",
      "outputs": [
        {
          "name": "registry",
          "type": "address"
        }
      ],
      "payable": false,
      "stateMutability": "view",
      "type": "function"
    },
    {
      "constant": false,
      "inputs": [
        {
          "name": "newOwner",
          "type": "address"
        }
      ],
      "name": "transferProxyOwnership",
      "outputs": [],
      "payable": false,
      "stateMutability": "nonpayable",
      "type": "function"
    },
    {
      "constant": false,
      "inputs": [
        {
          "name": "contractName",
          "type": "string"
        },
        {
          "name": "versionName",
          "type": "string"
        },
        {
          "name": "implementation",
          "type": "address"
        }
      ],
      "name": "upgradeTo",
      "outputs": [],
      "payable": false,
      "stateMutability": "nonpayable",
      "type": "function"
    },
    {
      "constant": false,
      "inputs": [
        {
          "name": "contractName",
          "type": "string"
        },
        {
          "name": "versionName",
          "type": "string"
        },
        {
          "name": "implementation",
          "type": "address"
        },
        {
          "name": "data",
          "type": "bytes"
        }
      ],
      "name": "upgradeToAndCall",
      "outputs": [],
      "payable": true,
      "stateMutability": "payable",
      "type": "function"
    }
  ],
  "bytecode": "0x608060405234801561001057600080fd5b5060405160208061093783398101604052516100343364010000000061004c810204565b610046816401000000006100bd810204565b5061012e565b604080517f6f72672e6e6f72692e70726f78792e6f776e657200000000000000000000000081528151908190036014018120838155600160a060020a038416825291517f3b0cafd62370550e29b73938980aa12140140dc15ea76833e07a2eda35695f859181900360200190a15050565b604080517f6f72672e6e6f72692e72656769737472792e616464726573730000000000000081528151908190036019018120838155600160a060020a038416825291517fb7f779905e041f03a0caaf89e90f030094468b03dc51502c1752994ce8fca80c9181900360200190a15050565b6107fa8061013d6000396000f3006080604052600436106100775763ffffffff7c0100000000000000000000000000000000000000000000000000000000600035041663025313a281146100bd57806303189b2d146100ee5780632bc38f78146101c757806351da2eaa146102695780635c60da1b1461027e578063f1739cae14610293575b60006100816102b4565b9050600160a060020a038116151561009857600080fd5b60405136600082376000803683855af43d806000843e8180156100b9578184f35b8184fd5b3480156100c957600080fd5b506100d26102ea565b60408051600160a060020a039092168252519081900360200190f35b6040805160206004803580820135601f81018490048402850184019095528484526101c594369492936024939284019190819084018382808284375050604080516020601f89358b018035918201839004830284018301909452808352979a99988101979196509182019450925082915084018382808284375050604080516020601f818a01358b0180359182018390048302840183018552818452989b600160a060020a038b35169b909a9099940197509195509182019350915081908401838280828437509497506103209650505050505050565b005b3480156101d357600080fd5b506040805160206004803580820135601f81018490048402850184019095528484526101c594369492936024939284019190819084018382808284375050604080516020601f89358b018035918201839004830284018301909452808352979a99988101979196509182019450925082915084018382808284375094975050509235600160a060020a031693506103d092505050565b34801561027557600080fd5b506100d2610602565b34801561028a57600080fd5b506100d26102b4565b34801561029f57600080fd5b506101c5600160a060020a0360043516610638565b604080517f6f72672e6e6f72692e70726f78792e696d706c656d656e746174696f6e0000008152905190819003601d0190205490565b604080517f6f72672e6e6f72692e70726f78792e6f776e6572000000000000000000000000815290519081900360140190205490565b6103286102ea565b600160a060020a0316331461033c57600080fd5b6103478484846103d0565b30600160a060020a0316348260405180828051906020019080838360005b8381101561037d578181015183820152602001610365565b50505050905090810190601f1680156103aa5780820380516001836020036101000a031916815260200191505b5091505060006040518083038185875af19250505015156103ca57600080fd5b50505050565b60006103da6102ea565b600160a060020a031633146103ee57600080fd5b6103f7826106c0565b6103ff610602565b6040517f69d569fb0000000000000000000000000000000000000000000000000000000081523060248201819052600160a060020a038581166064840152608060048401908152885160848501528851949550908516936369d569fb93899392899289928291604482019160a40190602089019080838360005b83811015610491578181015183820152602001610479565b50505050905090810190601f1680156104be5780820380516001836020036101000a031916815260200191505b50838103825285518152855160209182019187019080838360005b838110156104f15781810151838201526020016104d9565b50505050905090810190601f16801561051e5780820380516001836020036101000a031916815260200191505b509650505050505050600060405180830381600087803b15801561054157600080fd5b505af1158015610555573d6000803e3d6000fd5b5050505081600160a060020a03167f8e05e0e35ff592971ca8b477d4285a33a61ded208d644042667b78693a472f5e846040518080602001828103825283818151815260200191508051906020019080838360005b838110156105c25781810151838201526020016105aa565b50505050905090810190601f1680156105ef5780820380516001836020036101000a031916815260200191505b509250505060405180910390a250505050565b604080517f6f72672e6e6f72692e72656769737472792e6164647265737300000000000000815290519081900360190190205490565b6106406102ea565b600160a060020a0316331461065457600080fd5b600160a060020a038116151561066957600080fd5b7f5a3e66efaa1e445ebd894728a69d6959842ea1e97bd79b892797106e270efcd96106926102ea565b60408051600160a060020a03928316815291841660208301528051918290030190a16106bd816106f2565b50565b60006106ca6102b4565b9050600160a060020a0380821690831614156106e557600080fd5b6106ee82610763565b5050565b604080517f6f72672e6e6f72692e70726f78792e6f776e657200000000000000000000000081528151908190036014018120838155600160a060020a038416825291517f3b0cafd62370550e29b73938980aa12140140dc15ea76833e07a2eda35695f859181900360200190a15050565b604080517f6f72672e6e6f72692e70726f78792e696d706c656d656e746174696f6e0000008152905190819003601d01812082815590600160a060020a038316907fc28122b5e32e3ba08ee13769af3aa93e38733ec12a50045a6159afbe3b93229690600090a250505600a165627a7a723058203f0744837056f822ced1ff7821013b7366041d85ca1d45c0f4f4c077e63f6fd00029",
  "source": "pragma solidity ^0.4.24;\n\nimport \"./UnstructuredUpgradeabilityProxy.sol\";\nimport \"../../registry/IVersionRegistry.sol\";\n\n/**\n * @title UnstructuredOwnedUpgradeabilityProxy\n * @dev This contract combines an upgradeability proxy with basic authorization control functionalities\n */\ncontract UnstructuredOwnedUpgradeabilityProxy is UnstructuredUpgradeabilityProxy {\n  /**\n  * @dev Event to show ownership has been transferred\n  * @param previousOwner representing the address of the previous owner\n  * @param newOwner representing the address of the new owner\n  */\n  event ProxyOwnershipTransferred(address previousOwner, address newOwner);\n  event UpgradeabilityOwnerSet(address upgradeabilityOwner);\n  event RegistryAddrSet(address registryAddress);\n\n  // Storage position of the owner of the contract\n  bytes32 private constant proxyOwnerPosition = keccak256(\"org.nori.proxy.owner\");\n\n  //Storage position of the registry to keep track of versions\n  //todo is it the case that adding this second reserved slot messes with storage elsewhere?\n  bytes32 private constant registryAddrPosition = keccak256(\"org.nori.registry.address\");\n  \n  /**\n  * @dev the constructor sets the original owner of the contract to the sender account.\n  */\n  constructor (address registryAddr) public {\n    setUpgradeabilityOwner(msg.sender);\n    setRegistryAddr(registryAddr);\n  }\n\n  /**\n  * @dev Throws if called by any account other than the owner.\n  */\n  modifier onlyProxyOwner() {\n    require(msg.sender == proxyOwner());\n    _;\n  }\n\n  /**\n   * @dev Tells the address of the owner\n   * @return the address of the owner\n   */\n  function proxyOwner() public view returns (address owner) {\n    bytes32 position = proxyOwnerPosition;\n    assembly { //solium-disable-line security/no-inline-assembly\n      owner := sload(position)\n    }\n  }\n\n  /**\n   * @dev Sets the address of the owner\n   */\n  function setUpgradeabilityOwner(address newProxyOwner) internal {\n    bytes32 position = proxyOwnerPosition;\n    assembly { //solium-disable-line security/no-inline-assembly\n      sstore(position, newProxyOwner)\n    }\n    emit UpgradeabilityOwnerSet(newProxyOwner);\n  }\n\n  /**\n   * @dev Tells the address of the registry\n   * @return the address of the registry\n   */\n  function registryAddr() public view returns (address registry) {\n    bytes32 position = registryAddrPosition;\n    assembly { //solium-disable-line security/no-inline-assembly\n      registry := sload(position)\n    }\n  }\n\n  /**\n   * @dev Sets the address of the regisrty\n   */\n  function setRegistryAddr(address registryAddress) internal {\n    bytes32 position = registryAddrPosition;\n    assembly { //solium-disable-line security/no-inline-assembly\n      sstore(position, registryAddress)\n    }\n    emit RegistryAddrSet(registryAddress);\n  }\n\n  /**\n   * @dev Allows the current owner to transfer control of the contract to a newOwner.\n   * @param newOwner The address to transfer ownership to.\n   */\n  function transferProxyOwnership(address newOwner) public onlyProxyOwner {\n    require(newOwner != address(0));\n    emit ProxyOwnershipTransferred(proxyOwner(), newOwner);\n    setUpgradeabilityOwner(newOwner);\n  }\n\n  /**\n   * @dev Allows the proxy owner to upgrade the current version of the proxy.\n   * @param implementation representing the address of the new implementation to be set.\n   */\n  function upgradeTo(string contractName, string versionName, address implementation) public onlyProxyOwner {\n    _upgradeTo(implementation);\n    //todo register interface lookup using eip820 -- not including this now as implications are unknown\n    address registry = registryAddr();\n    IVersionRegistry(registry).setVersion(\n      contractName, \n      address(this), \n      versionName, \n      implementation\n    );\n    //todo require version name doesnt exits\n    emit Upgraded(versionName, implementation);\n  }\n\n  /**\n   * @dev Allows the proxy owner to upgrade the current version of the proxy and call the new implementation\n   * to initialize whatever is needed through a low level call.\n   * @param implementation representing the address of the new implementation to be set.\n   * @param data represents the msg.data to bet sent in the low level call. This parameter may include the function\n   * signature of the implementation to be called with the needed payload\n   */\n  function upgradeToAndCall(\n    string contractName, \n    string versionName, \n    address implementation, \n    bytes data\n  ) payable public onlyProxyOwner {\n    upgradeTo(contractName, versionName, implementation);\n    require(address(this).call.value(msg.value)(data)); //solium-disable-line security/no-call-value\n  }\n}",
  "sourcePath": "/home/ubuntu/dev/Kryptopal/kryptopal-contracts/contracts/upgradeable/unstructured/UnstructuredOwnedUpgradeabilityProxy.sol",
  "compiler": {
    "name": "solc",
    "version": "0.4.24+commit.e67f0147.Emscripten.clang"
  },
  "schemaVersion": "2.0.1",
  "updatedAt": "2018-07-19T05:20:24.000Z"
}