{
  "contractName": "UnstructuredUpgradeableTokenV2",
  "abi": [
    {
      "constant": true,
      "inputs": [],
      "name": "name",
      "outputs": [
        {
          "name": "",
          "type": "string"
        }
      ],
      "payable": false,
      "stateMutability": "view",
      "type": "function"
    },
    {
      "constant": false,
      "inputs": [],
      "name": "enableERC20",
      "outputs": [],
      "payable": false,
      "stateMutability": "nonpayable",
      "type": "function"
    },
    {
      "constant": false,
      "inputs": [
        {
          "name": "_spender",
          "type": "address"
        },
        {
          "name": "_value",
          "type": "uint256"
        }
      ],
      "name": "approve",
      "outputs": [
        {
          "name": "success",
          "type": "bool"
        }
      ],
      "payable": false,
      "stateMutability": "nonpayable",
      "type": "function"
    },
    {
      "constant": true,
      "inputs": [],
      "name": "initialized",
      "outputs": [
        {
          "name": "",
          "type": "bool"
        }
      ],
      "payable": false,
      "stateMutability": "view",
      "type": "function"
    },
    {
      "constant": true,
      "inputs": [],
      "name": "totalSupply",
      "outputs": [
        {
          "name": "",
          "type": "uint256"
        }
      ],
      "payable": false,
      "stateMutability": "view",
      "type": "function"
    },
    {
      "constant": false,
      "inputs": [
        {
          "name": "_from",
          "type": "address"
        },
        {
          "name": "_to",
          "type": "address"
        },
        {
          "name": "_value",
          "type": "uint256"
        }
      ],
      "name": "transferFrom",
      "outputs": [
        {
          "name": "success",
          "type": "bool"
        }
      ],
      "payable": false,
      "stateMutability": "nonpayable",
      "type": "function"
    },
    {
      "constant": true,
      "inputs": [],
      "name": "decimals",
      "outputs": [
        {
          "name": "",
          "type": "uint8"
        }
      ],
      "payable": false,
      "stateMutability": "view",
      "type": "function"
    },
    {
      "constant": true,
      "inputs": [],
      "name": "newStateVariable",
      "outputs": [
        {
          "name": "",
          "type": "string"
        }
      ],
      "payable": false,
      "stateMutability": "view",
      "type": "function"
    },
    {
      "constant": false,
      "inputs": [
        {
          "name": "_operator",
          "type": "address"
        },
        {
          "name": "_value",
          "type": "uint256"
        }
      ],
      "name": "authorizeOperator",
      "outputs": [],
      "payable": false,
      "stateMutability": "nonpayable",
      "type": "function"
    },
    {
      "constant": true,
      "inputs": [],
      "name": "granularity",
      "outputs": [
        {
          "name": "",
          "type": "uint256"
        }
      ],
      "payable": false,
      "stateMutability": "view",
      "type": "function"
    },
    {
      "constant": false,
      "inputs": [
        {
          "name": "_from",
          "type": "address"
        },
        {
          "name": "_to",
          "type": "address"
        },
        {
          "name": "_value",
          "type": "uint256"
        },
        {
          "name": "_userData",
          "type": "bytes"
        },
        {
          "name": "_operatorData",
          "type": "bytes"
        }
      ],
      "name": "operatorSend",
      "outputs": [],
      "payable": false,
      "stateMutability": "nonpayable",
      "type": "function"
    },
    {
      "constant": true,
      "inputs": [
        {
          "name": "_tokenHolder",
          "type": "address"
        }
      ],
      "name": "balanceOf",
      "outputs": [
        {
          "name": "",
          "type": "uint256"
        }
      ],
      "payable": false,
      "stateMutability": "view",
      "type": "function"
    },
    {
      "constant": false,
      "inputs": [
        {
          "name": "_name",
          "type": "string"
        },
        {
          "name": "_symbol",
          "type": "string"
        },
        {
          "name": "_granularity",
          "type": "uint256"
        },
        {
          "name": "_totalSupply",
          "type": "uint256"
        },
        {
          "name": "_eip820RegistryAddr",
          "type": "address"
        },
        {
          "name": "_owner",
          "type": "address"
        }
      ],
      "name": "initialize",
      "outputs": [],
      "payable": false,
      "stateMutability": "nonpayable",
      "type": "function"
    },
    {
      "constant": true,
      "inputs": [],
      "name": "owner",
      "outputs": [
        {
          "name": "",
          "type": "address"
        }
      ],
      "payable": false,
      "stateMutability": "view",
      "type": "function"
    },
    {
      "constant": false,
      "inputs": [
        {
          "name": "_tokenHolder",
          "type": "address"
        },
        {
          "name": "_value",
          "type": "uint256"
        },
        {
          "name": "_operatorData",
          "type": "bytes"
        }
      ],
      "name": "mint",
      "outputs": [],
      "payable": false,
      "stateMutability": "nonpayable",
      "type": "function"
    },
    {
      "constant": false,
      "inputs": [
        {
          "name": "_operator",
          "type": "address"
        }
      ],
      "name": "authorizeOperator",
      "outputs": [],
      "payable": false,
      "stateMutability": "nonpayable",
      "type": "function"
    },
    {
      "constant": true,
      "inputs": [],
      "name": "symbol",
      "outputs": [
        {
          "name": "",
          "type": "string"
        }
      ],
      "payable": false,
      "stateMutability": "view",
      "type": "function"
    },
    {
      "constant": false,
      "inputs": [
        {
          "name": "_to",
          "type": "address"
        },
        {
          "name": "_value",
          "type": "uint256"
        },
        {
          "name": "_userData",
          "type": "bytes"
        }
      ],
      "name": "send",
      "outputs": [],
      "payable": false,
      "stateMutability": "nonpayable",
      "type": "function"
    },
    {
      "constant": false,
      "inputs": [
        {
          "name": "_tokenHolder",
          "type": "address"
        },
        {
          "name": "_value",
          "type": "uint256"
        }
      ],
      "name": "burn",
      "outputs": [],
      "payable": false,
      "stateMutability": "nonpayable",
      "type": "function"
    },
    {
      "constant": false,
      "inputs": [
        {
          "name": "_to",
          "type": "address"
        },
        {
          "name": "_value",
          "type": "uint256"
        }
      ],
      "name": "transfer",
      "outputs": [
        {
          "name": "success",
          "type": "bool"
        }
      ],
      "payable": false,
      "stateMutability": "nonpayable",
      "type": "function"
    },
    {
      "constant": false,
      "inputs": [
        {
          "name": "_to",
          "type": "address"
        },
        {
          "name": "_value",
          "type": "uint256"
        }
      ],
      "name": "send",
      "outputs": [],
      "payable": false,
      "stateMutability": "nonpayable",
      "type": "function"
    },
    {
      "constant": true,
      "inputs": [
        {
          "name": "_operator",
          "type": "address"
        },
        {
          "name": "_tokenHolder",
          "type": "address"
        }
      ],
      "name": "isOperatorFor",
      "outputs": [
        {
          "name": "",
          "type": "bool"
        }
      ],
      "payable": false,
      "stateMutability": "view",
      "type": "function"
    },
    {
      "constant": true,
      "inputs": [
        {
          "name": "_owner",
          "type": "address"
        },
        {
          "name": "_spender",
          "type": "address"
        }
      ],
      "name": "allowance",
      "outputs": [
        {
          "name": "remaining",
          "type": "uint256"
        }
      ],
      "payable": false,
      "stateMutability": "view",
      "type": "function"
    },
    {
      "constant": false,
      "inputs": [
        {
          "name": "_operator",
          "type": "address"
        },
        {
          "name": "_to",
          "type": "address"
        },
        {
          "name": "_amount",
          "type": "uint256"
        },
        {
          "name": "_userData",
          "type": "bytes"
        }
      ],
      "name": "proxySend",
      "outputs": [],
      "payable": false,
      "stateMutability": "nonpayable",
      "type": "function"
    },
    {
      "constant": false,
      "inputs": [
        {
          "name": "_operator",
          "type": "address"
        },
        {
          "name": "_from",
          "type": "address"
        },
        {
          "name": "_to",
          "type": "address"
        },
        {
          "name": "_value",
          "type": "uint256"
        },
        {
          "name": "_userData",
          "type": "bytes"
        },
        {
          "name": "_operatorData",
          "type": "bytes"
        }
      ],
      "name": "operatorSend",
      "outputs": [],
      "payable": false,
      "stateMutability": "nonpayable",
      "type": "function"
    },
    {
      "constant": false,
      "inputs": [
        {
          "name": "newOwner",
          "type": "address"
        }
      ],
      "name": "transferOwnership",
      "outputs": [],
      "payable": false,
      "stateMutability": "nonpayable",
      "type": "function"
    },
    {
      "constant": false,
      "inputs": [],
      "name": "disableERC20",
      "outputs": [],
      "payable": false,
      "stateMutability": "nonpayable",
      "type": "function"
    },
    {
      "constant": false,
      "inputs": [
        {
          "name": "_operator",
          "type": "address"
        }
      ],
      "name": "revokeOperator",
      "outputs": [],
      "payable": false,
      "stateMutability": "nonpayable",
      "type": "function"
    },
    {
      "anonymous": false,
      "inputs": [
        {
          "indexed": false,
          "name": "newStateVariable",
          "type": "string"
        }
      ],
      "name": "NewStateAdded",
      "type": "event"
    },
    {
      "anonymous": false,
      "inputs": [
        {
          "indexed": true,
          "name": "from",
          "type": "address"
        },
        {
          "indexed": true,
          "name": "to",
          "type": "address"
        },
        {
          "indexed": false,
          "name": "amount",
          "type": "uint256"
        },
        {
          "indexed": false,
          "name": "userData",
          "type": "bytes"
        },
        {
          "indexed": true,
          "name": "operator",
          "type": "address"
        },
        {
          "indexed": false,
          "name": "operatorData",
          "type": "bytes"
        }
      ],
      "name": "Sent",
      "type": "event"
    },
    {
      "anonymous": false,
      "inputs": [
        {
          "indexed": true,
          "name": "to",
          "type": "address"
        },
        {
          "indexed": false,
          "name": "amount",
          "type": "uint256"
        },
        {
          "indexed": true,
          "name": "operator",
          "type": "address"
        },
        {
          "indexed": false,
          "name": "operatorData",
          "type": "bytes"
        }
      ],
      "name": "Minted",
      "type": "event"
    },
    {
      "anonymous": false,
      "inputs": [
        {
          "indexed": true,
          "name": "from",
          "type": "address"
        },
        {
          "indexed": false,
          "name": "amount",
          "type": "uint256"
        }
      ],
      "name": "Burnt",
      "type": "event"
    },
    {
      "anonymous": false,
      "inputs": [
        {
          "indexed": true,
          "name": "operator",
          "type": "address"
        },
        {
          "indexed": true,
          "name": "tokenHolder",
          "type": "address"
        }
      ],
      "name": "AuthorizedOperator",
      "type": "event"
    },
    {
      "anonymous": false,
      "inputs": [
        {
          "indexed": true,
          "name": "operator",
          "type": "address"
        },
        {
          "indexed": true,
          "name": "tokenHolder",
          "type": "address"
        }
      ],
      "name": "RevokedOperator",
      "type": "event"
    },
    {
      "anonymous": false,
      "inputs": [
        {
          "indexed": true,
          "name": "from",
          "type": "address"
        },
        {
          "indexed": true,
          "name": "to",
          "type": "address"
        },
        {
          "indexed": false,
          "name": "value",
          "type": "uint256"
        }
      ],
      "name": "Transfer",
      "type": "event"
    },
    {
      "anonymous": false,
      "inputs": [
        {
          "indexed": true,
          "name": "owner",
          "type": "address"
        },
        {
          "indexed": true,
          "name": "spender",
          "type": "address"
        },
        {
          "indexed": false,
          "name": "value",
          "type": "uint256"
        }
      ],
      "name": "Approval",
      "type": "event"
    },
    {
      "anonymous": false,
      "inputs": [
        {
          "indexed": false,
          "name": "previousOwner",
          "type": "address"
        },
        {
          "indexed": false,
          "name": "newOwner",
          "type": "address"
        }
      ],
      "name": "OwnershipTransferred",
      "type": "event"
    },
    {
      "anonymous": false,
      "inputs": [
        {
          "indexed": false,
          "name": "newOwner",
          "type": "address"
        }
      ],
      "name": "OwnerSet",
      "type": "event"
    },
    {
      "constant": false,
      "inputs": [],
      "name": "addNewState",
      "outputs": [],
      "payable": false,
      "stateMutability": "nonpayable",
      "type": "function"
    },
    {
      "constant": true,
      "inputs": [],
      "name": "getNewState",
      "outputs": [
        {
          "name": "",
          "type": "string"
        }
      ],
      "payable": false,
      "stateMutability": "view",
      "type": "function"
    },
    {
      "constant": true,
      "inputs": [],
      "name": "funcThatV2ShouldDeprecate",
      "outputs": [
        {
          "name": "",
          "type": "string"
        }
      ],
      "payable": false,
      "stateMutability": "pure",
      "type": "function"
    }
  ],
  "bytecode": "0x60806040526100163364010000000061001b810204565b61006f565b60008054600160a060020a038316600160a060020a0319909116811790915560408051918252517f50146d0e3c60aa1d17a70635b05494f864e86144a2201275021014fbf08bafe29181900360200190a150565b61225c8061007e6000396000f3006080604052600436106101715763ffffffff60e060020a60003504166306fdde038114610176578063070c87f914610200578063095ea7b314610217578063158ef93e1461024f57806318160ddd146102645780631bf291c61461028b57806323b872dd146102a0578063313ce567146102ca57806336916c77146102f557806347980aa31461030a578063551e68ee1461032e578063556f0dc71461034357806362ad1b831461035857806370a0823114610405578063767ab122146104265780638da5cb5b146104dc57806394d008ef1461050d578063959b8c3f1461057657806395d89b41146105975780639bd9bbc6146105ac5780639dc29fac14610615578063a9059cbb14610639578063c0ad8adc1461065d578063d0679d3414610672578063d95b637114610696578063dd62ed3e146106bd578063e51c090e146106e4578063ee91444c14610753578063f2fde38b1461080c578063f922f2161461082d578063fad8b32a14610842575b600080fd5b34801561018257600080fd5b5061018b610863565b6040805160208082528351818301528351919283929083019185019080838360005b838110156101c55781810151838201526020016101ad565b50505050905090810190601f1680156101f25780820380516001836020036101000a031916815260200191505b509250505060405180910390f35b34801561020c57600080fd5b506102156108f7565b005b34801561022357600080fd5b5061023b600160a060020a0360043516602435610961565b604080519115158252519081900360200190f35b34801561025b57600080fd5b5061023b6109e1565b34801561027057600080fd5b506102796109ea565b60408051918252519081900360200190f35b34801561029757600080fd5b506102156109f0565b3480156102ac57600080fd5b5061023b600160a060020a0360043581169060243516604435610a5a565b3480156102d657600080fd5b506102df610b30565b6040805160ff9092168252519081900360200190f35b34801561030157600080fd5b5061018b610b4f565b34801561031657600080fd5b50610215600160a060020a0360043516602435610bdd565b34801561033a57600080fd5b5061018b610cc8565b34801561034f57600080fd5b50610279610d27565b34801561036457600080fd5b50604080516020601f60643560048181013592830184900484028501840190955281845261021594600160a060020a03813581169560248035909216956044359536956084940191819084018382808284375050604080516020601f89358b018035918201839004830284018301909452808352979a999881019791965091820194509250829150840183828082843750949750610d2d9650505050505050565b34801561041157600080fd5b50610279600160a060020a0360043516610d42565b34801561043257600080fd5b506040805160206004803580820135601f810184900484028501840190955284845261021594369492936024939284019190819084018382808284375050604080516020601f89358b018035918201839004830284018301909452808352979a99988101979196509182019450925082915084018382808284375094975050843595505050602083013592600160a060020a03604082013581169350606090910135169050610d5d565b3480156104e857600080fd5b506104f1610e61565b60408051600160a060020a039092168252519081900360200190f35b34801561051957600080fd5b50604080516020600460443581810135601f8101849004840285018401909552848452610215948235600160a060020a0316946024803595369594606494920191908190840183828082843750949750610e709650505050505050565b34801561058257600080fd5b50610215600160a060020a036004351661100e565b3480156105a357600080fd5b5061018b61107d565b3480156105b857600080fd5b50604080516020600460443581810135601f8101849004840285018401909552848452610215948235600160a060020a03169460248035953695946064949201919081908401838280828437509497506110de9650505050505050565b34801561062157600080fd5b50610215600160a060020a03600435166024356110fe565b34801561064557600080fd5b5061023b600160a060020a0360043516602435611225565b34801561066957600080fd5b5061018b611277565b34801561067e57600080fd5b50610215600160a060020a03600435166024356112d8565b3480156106a257600080fd5b5061023b600160a060020a0360043581169060243516611308565b3480156106c957600080fd5b50610279600160a060020a0360043581169060243516611356565b3480156106f057600080fd5b50604080516020601f60643560048181013592830184900484028501840190955281845261021594600160a060020a03813581169560248035909216956044359536956084940191819084018382808284375094975061139b9650505050505050565b34801561075f57600080fd5b50604080516020601f60843560048181013592830184900484028501840190955281845261021594600160a060020a03813581169560248035831696604435909316956064359536959460a49493919091019190819084018382808284375050604080516020601f89358b018035918201839004830284018301909452808352979a9998810197919650918201945092508291508401838280828437509497506113c19650505050505050565b34801561081857600080fd5b50610215600160a060020a03600435166113ee565b34801561083957600080fd5b50610215611476565b34801561084e57600080fd5b50610215600160a060020a03600435166114db565b60028054604080516020601f60001961010060018716150201909416859004938401819004810282018101909252828152606093909290918301828280156108ec5780601f106108c1576101008083540402835291602001916108ec565b820191906000526020600020905b8154815290600101906020018083116108cf57829003601f168201915b505050505090505b90565b6108ff610e61565b600160a060020a0316331461091357600080fd5b6006805461ff001916610100178155604080518082019091529081527f4965726332300000000000000000000000000000000000000000000000000000602082015261095f903061155a565b565b600654600090610100900460ff16151561097a57600080fd5b336000818152600960209081526040808320600160a060020a03881680855290835292819020869055805186815290519293927f8c5be1e5ebec7d5bd14f71427d1e84f3dd0314c0f7b2291e5b200ac8c7c3b925929181900390910190a350600192915050565b60065460ff1690565b60055490565b6109f8611649565b6040805160208082526010908201527f6e657753746174655661726961626c65000000000000000000000000000000008183015290517f2d97fb77afa3d6f82029ad8babf35e879762def20792520da941c2fa3012dd099181900360600190a1565b600654600090610100900460ff161515610a7357600080fd5b600160a060020a0384166000908152600960209081526040808320338452909152902054821115610aa357600080fd5b600160a060020a0384166000908152600960209081526040808320338452909152902054610ad7908363ffffffff61168d16565b600160a060020a03851660009081526009602090815260408083203380855290835281842094909455805180830182528381528151928301909152828252610b2693889388938893929161169f565b5060019392505050565b600654600090610100900460ff161515610b4957600080fd5b50601290565b600a805460408051602060026001851615610100026000190190941693909304601f81018490048402820184019092528181529291830182828015610bd55780601f10610baa57610100808354040283529160200191610bd5565b820191906000526020600020905b815481529060010190602001808311610bb857829003601f168201915b505050505081565b600160a060020a038216331415610bf357600080fd5b336000818152600960209081526040808320600160a060020a0387168452825280832085905560088252808320848452825291829020805460ff191660019081179091558251808401845260038082527f3078300000000000000000000000000000000000000000000000000000000000828501819052855180870190965290855292840192909252610c8e93869390928492879290611900565b6040513390600160a060020a038416907ff4caeb2d6ca8932a215a353d0703c326ec2d81fc68170f320eb2ab49e9df61f990600090a35050565b60408051606081018252602881527f56312066756e63206f662073616d65206e616d6520686173206265656e20646560208201527f70726563617465640000000000000000000000000000000000000000000000009181019190915290565b60045490565b610d3b3386868686866113c1565b5050505050565b600160a060020a031660009081526007602052604090205490565b60065460ff1615610d6d57600080fd5b8551610d80906002906020890190612198565b508451610d94906003906020880190612198565b5060058390556006805461ff0019166101001790556001841015610db757600080fd5b6004849055610dc581611afb565b610dce82611b5c565b610e0d6040805190810160405280600781526020017f49454950373737000000000000000000000000000000000000000000000000008152503061155a565b610e4c6040805190810160405280600681526020017f49657263323000000000000000000000000000000000000000000000000000008152503061155a565b50506006805460ff1916600117905550505050565b600054600160a060020a031690565b610e7982611b8b565b600554610e8c908363ffffffff611bc816565b600555600160a060020a038316600090815260076020526040902054610eb8908363ffffffff611bc816565b6007600085600160a060020a0316600160a060020a0316815260200190815260200160002081905550610f0233600085856020604051908101604052806000815250866001611be2565b33600160a060020a031683600160a060020a03167ffedc9d3d7d2dc09d33f2454ca41b1ef178b3bbf37b69fa47d602a8738d5ebdba84846040518083815260200180602001828103825283818151815260200191508051906020019080838360005b83811015610f7c578181015183820152602001610f64565b50505050905090810190601f168015610fa95780820380516001836020036101000a031916815260200191505b50935050505060405180910390a3600654610100900460ff161561100957604080518381529051600160a060020a038516916000917fddf252ad1be2c89b69c2b068fc378daa952ba7f163c4a11628f55a4df523b3ef9181900360200190a35b505050565b600160a060020a03811633141561102457600080fd5b600160a060020a0381166000818152600860209081526040808320338085529252808320805460ff19166001179055519092917ff4caeb2d6ca8932a215a353d0703c326ec2d81fc68170f320eb2ab49e9df61f991a350565b60038054604080516020601f60026000196101006001881615020190951694909404938401819004810282018101909252828152606093909290918301828280156108ec5780601f106108c1576101008083540402835291602001916108ec565b61100933848484336020604051908101604052806000815250600161169f565b611106610e61565b600160a060020a0316331461111a57600080fd5b61112381611b8b565b8061112d83610d42565b101561113857600080fd5b600160a060020a038216600090815260076020526040902054611161908263ffffffff61168d16565b600160a060020a03831660009081526007602052604090205560055461118d908263ffffffff61168d16565b600555604080518281529051600160a060020a038416917f919f7e2092ffcc9d09f599be18d8152860b0c054df788a33bc549cdd9d0f15b1919081900360200190a2600654610100900460ff161561122157604080518281529051600091600160a060020a038516917fddf252ad1be2c89b69c2b068fc378daa952ba7f163c4a11628f55a4df523b3ef9181900360200190a35b5050565b600654600090610100900460ff16151561123e57600080fd5b61126e3384846020604051908101604052806000815250336020604051908101604052806000815250600061169f565b50600192915050565b600a8054604080516020601f60026000196101006001881615020190951694909404938401819004810282018101909252828152606093909290918301828280156108ec5780601f106108c1576101008083540402835291602001916108ec565b6112213383836020604051908101604052806000815250336020604051908101604052806000815250600161169f565b600081600160a060020a031683600160a060020a0316148061134f5750600160a060020a0380841660009081526008602090815260408083209386168352929052205460ff165b9392505050565b600654600090610100900460ff16151561136f57600080fd5b50600160a060020a03918216600090815260096020908152604080832093909416825291909152205490565b6113a48461100e565b6113b2848484846001611ce8565b6113bb846114db565b50505050565b6113cb8686611308565b15156113d657600080fd5b6113e6858585853386600061169f565b505050505050565b6113f6610e61565b600160a060020a0316331461140a57600080fd5b600160a060020a038116151561141f57600080fd5b7f8be0079c531659141344cd1fd0a4f28419497f9722a3daafe3b4186f6b6457e0611448610e61565b60408051600160a060020a03928316815291841660208301528051918290030190a161147381611afb565b50565b61147e610e61565b600160a060020a0316331461149257600080fd5b6006805461ff0019168155604080518082019091529081527f4965726332300000000000000000000000000000000000000000000000000000602082015261095f90600061155a565b600160a060020a0381163314156114f157600080fd5b336000818152600960209081526040808320600160a060020a03861680855290835281842084905560088352818420858552909252808320805460ff191690555190917f50546e66e5f44d728365dc3908c63bc5cfeeab470722c1677e3073a6ac294aa191a350565b6000826040518082805190602001908083835b6020831061158c5780518252601f19909201916020918201910161156d565b5181516020939093036101000a6000190180199091169216919091179052604080519190930181900381206001547f29965a1d00000000000000000000000000000000000000000000000000000000835230600484015260248301829052600160a060020a03898116604485015294519197509390931694506329965a1d9350606480820193600093509182900301818387803b15801561162c57600080fd5b505af1158015611640573d6000803e3d6000fd5b50505050505050565b6040805180820190915260098082527f6e65772073746174650000000000000000000000000000000000000000000000602090920191825261147391600a91612198565b60008282111561169957fe5b50900390565b6116a885611b8b565b6116b6838888888887611e53565b600160a060020a03861615156116cb57600080fd5b600160a060020a0387166000908152600760205260409020548511156116f057600080fd5b600160a060020a038716600090815260076020526040902054611719908663ffffffff61168d16565b600160a060020a03808916600090815260076020526040808220939093559088168152205461174e908663ffffffff611bc816565b600160a060020a03871660009081526007602052604090205561177683888888888787611be2565b82600160a060020a031686600160a060020a031688600160a060020a03167fc6bcce9531825c4f1772efa373d6fa8ccb63064ff1fd841aa151c8e8dd9bb39b888887604051808481526020018060200180602001838103835285818151815260200191508051906020019080838360005b838110156117ff5781810151838201526020016117e7565b50505050905090810190601f16801561182c5780820380516001836020036101000a031916815260200191505b50838103825284518152845160209182019186019080838360005b8381101561185f578181015183820152602001611847565b50505050905090810190601f16801561188c5780820380516001836020036101000a031916815260200191505b509550505050505060405180910390a4600654610100900460ff16156116405785600160a060020a031687600160a060020a03167fddf252ad1be2c89b69c2b068fc378daa952ba7f163c4a11628f55a4df523b3ef876040518082815260200191505060405180910390a350505050505050565b6000611941866040805190810160405280601581526020017f49454950373737546f6b656e734f70657261746f72000000000000000000000081525061202e565b9050600160a060020a03811615611ad75780600160a060020a03166332035ca68989898989896040518763ffffffff1660e060020a0281526004018087600160a060020a0316600160a060020a0316815260200186600160a060020a0316600160a060020a0316815260200185600160a060020a0316600160a060020a031681526020018481526020018060200180602001838103835285818151815260200191508051906020019080838360005b83811015611a085781810151838201526020016119f0565b50505050905090810190601f168015611a355780820380516001836020036101000a031916815260200191505b50838103825284518152845160209182019186019080838360005b83811015611a68578181015183820152602001611a50565b50505050905090810190601f168015611a955780820380516001836020036101000a031916815260200191505b5098505050505050505050600060405180830381600087803b158015611aba57600080fd5b505af1158015611ace573d6000803e3d6000fd5b50505050611af1565b8115611af157611ae68661212c565b1515611af157600080fd5b5050505050505050565b60008054600160a060020a03831673ffffffffffffffffffffffffffffffffffffffff19909116811790915560408051918252517f50146d0e3c60aa1d17a70635b05494f864e86144a2201275021014fbf08bafe29181900360200190a150565b6001805473ffffffffffffffffffffffffffffffffffffffff1916600160a060020a0392909216919091179055565b600081118015611bbd57506004548190611bbb90611baf838263ffffffff61215616565b9063ffffffff61216d16565b145b151561147357600080fd5b600082820183811015611bd757fe5b8091505b5092915050565b6000611c23866040805190810160405280601681526020017f49454950373737546f6b656e73526563697069656e740000000000000000000081525061202e565b9050600160a060020a03811615611ad75780600160a060020a03166223de298989898989896040518763ffffffff1660e060020a0281526004018087600160a060020a0316600160a060020a0316815260200186600160a060020a0316600160a060020a0316815260200185600160a060020a0316600160a060020a0316815260200184815260200180602001806020018381038352858181518152602001915080519060200190808383600083811015611a085781810151838201526020016119f0565b6000611d29866040805190810160405280600d81526020017f4950726f78795061796d656e740000000000000000000000000000000000000081525061202e565b9050600160a060020a03811615611e39576040517fe51c090e0000000000000000000000000000000000000000000000000000000081523360048201818152600160a060020a038881166024850152604484018890526080606485019081528751608486015287519186169463e51c090e94938b938b938b93909160a490910190602085019080838360005b83811015611dcd578181015183820152602001611db5565b50505050905090810190601f168015611dfa5780820380516001836020036101000a031916815260200191505b5095505050505050600060405180830381600087803b158015611e1c57600080fd5b505af1158015611e30573d6000803e3d6000fd5b505050506113e6565b81156113e657611e488561212c565b15156113e657600080fd5b6000611e94866040805190810160405280601381526020017f49454950373737546f6b656e7353656e6465720000000000000000000000000081525061202e565b9050600160a060020a038116156116405780600160a060020a03166375ab97828888888888886040518763ffffffff1660e060020a0281526004018087600160a060020a0316600160a060020a0316815260200186600160a060020a0316600160a060020a0316815260200185600160a060020a0316600160a060020a031681526020018481526020018060200180602001838103835285818151815260200191508051906020019080838360005b83811015611f5b578181015183820152602001611f43565b50505050905090810190601f168015611f885780820380516001836020036101000a031916815260200191505b50838103825284518152845160209182019186019080838360005b83811015611fbb578181015183820152602001611fa3565b50505050905090810190601f168015611fe85780820380516001836020036101000a031916815260200191505b5098505050505050505050600060405180830381600087803b15801561200d57600080fd5b505af1158015612021573d6000803e3d6000fd5b5050505050505050505050565b600080826040518082805190602001908083835b602083106120615780518252601f199092019160209182019101612042565b51815160209384036101000a6000190180199092169116179052604080519290940182900382206001547faabbb8ca000000000000000000000000000000000000000000000000000000008452600160a060020a038c8116600486015260248501839052955191985094909416955063aabbb8ca945060448083019491935090918290030181600087803b1580156120f857600080fd5b505af115801561210c573d6000803e3d6000fd5b505050506040513d602081101561212257600080fd5b5051949350505050565b600080600160a060020a03831615156121485760009150612150565b5050803b8015905b50919050565b600080828481151561216457fe5b04949350505050565b6000808315156121805760009150611bdb565b5082820282848281151561219057fe5b0414611bd757fe5b828054600181600116156101000203166002900490600052602060002090601f016020900481019282601f106121d957805160ff1916838001178555612206565b82800160010185558215612206579182015b828111156122065782518255916020019190600101906121eb565b50612212929150612216565b5090565b6108f491905b80821115612212576000815560010161221c5600a165627a7a723058205567eb942ae0f14b4692b583aa6d301188c45c0019fafc777406415bbcebe1dd0029",
  "source": "pragma solidity ^0.4.24;\n\nimport \"./UnstructuredUpgradeableTokenV1.sol\";\n\n\n/**\n* @title UnstructuredUpgradeableTokenV2\n* @dev Version 2 of a token to show upgradeability using unstructured storage.\n*/\ncontract UnstructuredUpgradeableTokenV2 is UnstructuredUpgradeableTokenV1 {\n  \n  event NewStateAdded(string newStateVariable);\n\n  function addNewState() public {\n    super.addNewState();\n    emit NewStateAdded(\"newStateVariable\");\n  }\n  function getNewState() public view returns(string) {\n    return newStateVariable;\n  }\n  function funcThatV2ShouldDeprecate() public pure returns(string) {\n    return \"V1 func of same name has been deprecated\";\n  }\n\n \n}",
  "sourcePath": "/home/ubuntu/dev/Kryptopal/kryptopal-contracts/contracts/upgradeable/unstructured/test/UnstructuredUpgradeableTokenV2.sol",
  "compiler": {
    "name": "solc",
    "version": "0.4.24+commit.e67f0147.Emscripten.clang"
  },
  "schemaVersion": "2.0.1",
  "updatedAt": "2018-07-19T04:57:34.955Z"
}