{
  "contractName": "VersionRegistry",
  "abi": [
    {
      "constant": true,
      "inputs": [
        {
          "name": "",
          "type": "bytes32"
        },
        {
          "name": "",
          "type": "address"
        },
        {
          "name": "",
          "type": "uint256"
        }
      ],
      "name": "versions",
      "outputs": [
        {
          "name": "versionName",
          "type": "string"
        },
        {
          "name": "implementation",
          "type": "address"
        }
      ],
      "payable": false,
      "stateMutability": "view",
      "type": "function"
    },
    {
      "anonymous": false,
      "inputs": [
        {
          "indexed": false,
          "name": "contractName",
          "type": "string"
        },
        {
          "indexed": false,
          "name": "proxyAddress",
          "type": "address"
        },
        {
          "indexed": false,
          "name": "versionName",
          "type": "string"
        },
        {
          "indexed": false,
          "name": "newImplementation",
          "type": "address"
        }
      ],
      "name": "VersionSet",
      "type": "event"
    },
    {
      "constant": true,
      "inputs": [
        {
          "name": "_contractName",
          "type": "string"
        }
      ],
      "name": "getLatestProxyAddr",
      "outputs": [
        {
          "name": "",
          "type": "address"
        }
      ],
      "payable": false,
      "stateMutability": "view",
      "type": "function"
    },
    {
      "constant": true,
      "inputs": [
        {
          "name": "_contractName",
          "type": "string"
        },
        {
          "name": "_index",
          "type": "int256"
        }
      ],
      "name": "getVersionForContractName",
      "outputs": [
        {
          "name": "",
          "type": "string"
        },
        {
          "name": "",
          "type": "address"
        },
        {
          "name": "",
          "type": "address"
        }
      ],
      "payable": false,
      "stateMutability": "view",
      "type": "function"
    }
  ],
  "bytecode": "0x608060405234801561001057600080fd5b5061065e806100206000396000f3006080604052600436106100565763ffffffff7c010000000000000000000000000000000000000000000000000000000060003504166360bd2ee4811461005b5780636df4023d146100d0578063bae18068146101d5575b600080fd5b34801561006757600080fd5b506040805160206004803580820135601f81018490048402850184019095528484526100b494369492936024939284019190819084018382808284375094975061028d9650505050505050565b60408051600160a060020a039092168252519081900360200190f35b3480156100dc57600080fd5b506040805160206004803580820135601f810184900484028501840190955284845261012b943694929360249392840191908190840183828082843750949750509335945061036f9350505050565b604051808060200184600160a060020a0316600160a060020a0316815260200183600160a060020a0316600160a060020a03168152602001828103825285818151815260200191508051906020019080838360005b83811015610198578181015183820152602001610180565b50505050905090810190601f1680156101c55780820380516001836020036101000a031916815260200191505b5094505050505060405180910390f35b3480156101e157600080fd5b506101fc600435600160a060020a036024351660443561055a565b604051808060200183600160a060020a0316600160a060020a03168152602001828103825284818151815260200191508051906020019080838360005b83811015610251578181015183820152602001610239565b50505050905090810190601f16801561027e5780820380516001836020036101000a031916815260200191505b50935050505060405180910390f35b600080826040516020018082805190602001908083835b602083106102c35780518252601f1990920191602091820191016102a4565b6001836020036101000a0380198251168184511680821785525050505050509050019150506040516020818303038152906040526040518082805190602001908083835b602083106103265780518252601f199092019160209182019101610307565b51815160209384036101000a600019018019909216911617905260408051929094018290039091206000908152908190529190912054600160a060020a03169695505050505050565b606060008060008060008060006103858a61028d565b9350896040516020018082805190602001908083835b602083106103ba5780518252601f19909201916020918201910161039b565b6001836020036101000a0380198251168184511680821785525050505050509050019150506040516020818303038152906040526040518082805190602001908083835b6020831061041d5780518252601f1990920191602091820191016103fe565b51815160209384036101000a60001901801990921691161790526040805192909401829003909120600081815260018352848120600160a060020a038c168252909252928120929750919550508b121591506104829050578154600019019450610486565b8894505b818581548110151561049457fe5b600091825260209182902060029182020160018181015482546040805161010094831615949094026000190190911694909404601f81018690048602830186019094528382529194508493600160a060020a039092169288928591908301828280156105415780601f1061051657610100808354040283529160200191610541565b820191906000526020600020905b81548152906001019060200180831161052457829003601f168201915b5050505050925097509750975050505050509250925092565b60016020528260005260406000206020528160005260406000208181548110151561058157fe5b60009182526020918290206002918202018054604080516001831615610100026000190190921693909304601f81018590048502820185019093528281529095509350849250908301828280156106195780601f106105ee57610100808354040283529160200191610619565b820191906000526020600020905b8154815290600101906020018083116105fc57829003601f168201915b50505060019093015491925050600160a060020a0316825600a165627a7a7230582079f7b6fd266d4f81bba6ec1294a7ef04dc635968b0fd604870ed1e647c9e258a0029",
  "source": "pragma solidity ^0.4.24;\n\n\n/// @title VersionRegistry\n/// @dev keeps track of the latest version of all contracts\ncontract VersionRegistry {\n\n  event VersionSet(string contractName, address proxyAddress, string versionName, address newImplementation);\n\n  mapping(bytes32 => address) private proxyContracts;\n  mapping(bytes32 => mapping(address => Version[])) public versions;\n\n  struct Version {\n    string versionName;\n    address implementation;\n  }\n\n  /// @notice Gets the address of the latest proxt contract of a particular name\n  /// @param _contractName String name of a contract (ie Registry)\n  function getLatestProxyAddr(string _contractName) public view returns (address) {\n    bytes32 contractName = keccak256(abi.encodePacked(_contractName));\n    return proxyContracts[contractName];\n  }\n\n  //todo create a function for getting count of versiuons for a particular contract name\n  //todo create a function that gets a contract proxy for a particular version name\n\n  function _setVersion(\n    string _contractName, \n    address _proxyAddress, \n    string _versionName, \n    address _newImplementation\n  ) internal {\n    bytes32 contractName = keccak256(abi.encodePacked(_contractName));\n    Version[] storage history = versions[contractName][_proxyAddress];\n    history.push(Version(_versionName, _newImplementation));\n    proxyContracts[contractName] = _proxyAddress;\n    emit VersionSet(\n      _contractName, \n      _proxyAddress, \n      _versionName, \n      _newImplementation\n    );\n  }\n\n  /// @dev pass -1 to get the latest, or a particular index to get a certain one\n  function getVersionForContractName(string _contractName, int _index) public view returns (string, address, address) {\n    uint index;\n    address latestProxy = getLatestProxyAddr(_contractName);\n    bytes32 contractName = keccak256(abi.encodePacked(_contractName));\n    Version[] storage history = versions[contractName][latestProxy];\n    if(_index < 0) {\n      index = history.length-1;\n    }\n    else {\n      index = uint(_index);\n    }\n    Version storage latest = history[index];\n    return (latest.versionName, latest.implementation, latestProxy);\n  }\n\n}\n",
  "sourcePath": "/home/ubuntu/dev/Kryptopal/kryptopal-contracts/contracts/registry/VersionRegistry.sol",
  "compiler": {
    "name": "solc",
    "version": "0.4.24+commit.e67f0147.Emscripten.clang"
  },
  "schemaVersion": "2.0.1",
  "updatedAt": "2018-07-19T04:57:34.921Z"
}